{
	".deps/remix-tests/roma2number.sol": {
		"transnmber": {
			"abi": [
				{
					"inputs": [],
					"stateMutability": "nonpayable",
					"type": "constructor"
				},
				{
					"inputs": [
						{
							"internalType": "string",
							"name": "roma",
							"type": "string"
						}
					],
					"name": "setTransnum",
					"outputs": [
						{
							"internalType": "uint256",
							"name": "",
							"type": "uint256"
						}
					],
					"stateMutability": "view",
					"type": "function"
				},
				{
					"inputs": [
						{
							"internalType": "bytes1",
							"name": "",
							"type": "bytes1"
						}
					],
					"name": "transnumToName",
					"outputs": [
						{
							"internalType": "uint256",
							"name": "",
							"type": "uint256"
						}
					],
					"stateMutability": "view",
					"type": "function"
				}
			],
			"devdoc": {
				"kind": "dev",
				"methods": {},
				"version": 1
			},
			"evm": {
				"assembly": "    /* \".deps/remix-tests/roma2number.sol\":60:1041  contract transnmber{... */\n  mstore(0x40, 0x80)\n    /* \".deps/remix-tests/roma2number.sol\":145:463  constructor() {... */\n  callvalue\n  dup1\n  iszero\n  tag_1\n  jumpi\n  revert(0x00, 0x00)\ntag_1:\n  pop\n    /* \".deps/remix-tests/roma2number.sol\":241:242  1 */\n  0x01\n    /* \".deps/remix-tests/roma2number.sol\":219:233  transnumToName */\n  0x00\n    /* \".deps/remix-tests/roma2number.sol\":219:238  transnumToName['I'] */\n  0x00\n  and(not(0xffffffffffffffffffffffffffffffffffffffffffffffffffffffffffffff), 0x4900000000000000000000000000000000000000000000000000000000000000)\n  dup2\n  mstore\n  0x20\n  add\n  swap1\n  dup2\n  mstore\n  0x20\n  add\n  0x00\n  keccak256\n    /* \".deps/remix-tests/roma2number.sol\":219:242  transnumToName['I'] = 1 */\n  dup2\n  swap1\n  sstore\n  pop\n    /* \".deps/remix-tests/roma2number.sol\":275:276  5 */\n  0x05\n    /* \".deps/remix-tests/roma2number.sol\":253:267  transnumToName */\n  0x00\n    /* \".deps/remix-tests/roma2number.sol\":253:272  transnumToName['V'] */\n  0x00\n  and(not(0xffffffffffffffffffffffffffffffffffffffffffffffffffffffffffffff), 0x5600000000000000000000000000000000000000000000000000000000000000)\n  dup2\n  mstore\n  0x20\n  add\n  swap1\n  dup2\n  mstore\n  0x20\n  add\n  0x00\n  keccak256\n    /* \".deps/remix-tests/roma2number.sol\":253:276  transnumToName['V'] = 5 */\n  dup2\n  swap1\n  sstore\n  pop\n    /* \".deps/remix-tests/roma2number.sol\":309:311  10 */\n  0x0a\n    /* \".deps/remix-tests/roma2number.sol\":287:301  transnumToName */\n  0x00\n    /* \".deps/remix-tests/roma2number.sol\":287:306  transnumToName['X'] */\n  0x00\n  and(not(0xffffffffffffffffffffffffffffffffffffffffffffffffffffffffffffff), 0x5800000000000000000000000000000000000000000000000000000000000000)\n  dup2\n  mstore\n  0x20\n  add\n  swap1\n  dup2\n  mstore\n  0x20\n  add\n  0x00\n  keccak256\n    /* \".deps/remix-tests/roma2number.sol\":287:311  transnumToName['X'] = 10 */\n  dup2\n  swap1\n  sstore\n  pop\n    /* \".deps/remix-tests/roma2number.sol\":344:346  50 */\n  0x32\n    /* \".deps/remix-tests/roma2number.sol\":322:336  transnumToName */\n  0x00\n    /* \".deps/remix-tests/roma2number.sol\":322:341  transnumToName['L'] */\n  0x00\n  and(not(0xffffffffffffffffffffffffffffffffffffffffffffffffffffffffffffff), 0x4c00000000000000000000000000000000000000000000000000000000000000)\n  dup2\n  mstore\n  0x20\n  add\n  swap1\n  dup2\n  mstore\n  0x20\n  add\n  0x00\n  keccak256\n    /* \".deps/remix-tests/roma2number.sol\":322:346  transnumToName['L'] = 50 */\n  dup2\n  swap1\n  sstore\n  pop\n    /* \".deps/remix-tests/roma2number.sol\":379:382  100 */\n  0x64\n    /* \".deps/remix-tests/roma2number.sol\":357:371  transnumToName */\n  0x00\n    /* \".deps/remix-tests/roma2number.sol\":357:376  transnumToName['C'] */\n  0x00\n  and(not(0xffffffffffffffffffffffffffffffffffffffffffffffffffffffffffffff), 0x4300000000000000000000000000000000000000000000000000000000000000)\n  dup2\n  mstore\n  0x20\n  add\n  swap1\n  dup2\n  mstore\n  0x20\n  add\n  0x00\n  keccak256\n    /* \".deps/remix-tests/roma2number.sol\":357:382  transnumToName['C'] = 100 */\n  dup2\n  swap1\n  sstore\n  pop\n    /* \".deps/remix-tests/roma2number.sol\":415:418  500 */\n  0x01f4\n    /* \".deps/remix-tests/roma2number.sol\":393:407  transnumToName */\n  0x00\n    /* \".deps/remix-tests/roma2number.sol\":393:412  transnumToName['D'] */\n  0x00\n  and(not(0xffffffffffffffffffffffffffffffffffffffffffffffffffffffffffffff), 0x4400000000000000000000000000000000000000000000000000000000000000)\n  dup2\n  mstore\n  0x20\n  add\n  swap1\n  dup2\n  mstore\n  0x20\n  add\n  0x00\n  keccak256\n    /* \".deps/remix-tests/roma2number.sol\":393:418  transnumToName['D'] = 500 */\n  dup2\n  swap1\n  sstore\n  pop\n    /* \".deps/remix-tests/roma2number.sol\":451:455  1000 */\n  0x03e8\n    /* \".deps/remix-tests/roma2number.sol\":429:443  transnumToName */\n  0x00\n    /* \".deps/remix-tests/roma2number.sol\":429:448  transnumToName['M'] */\n  0x00\n  and(not(0xffffffffffffffffffffffffffffffffffffffffffffffffffffffffffffff), 0x4d00000000000000000000000000000000000000000000000000000000000000)\n  dup2\n  mstore\n  0x20\n  add\n  swap1\n  dup2\n  mstore\n  0x20\n  add\n  0x00\n  keccak256\n    /* \".deps/remix-tests/roma2number.sol\":429:455  transnumToName['M'] = 1000 */\n  dup2\n  swap1\n  sstore\n  pop\n    /* \".deps/remix-tests/roma2number.sol\":60:1041  contract transnmber{... */\n  dataSize(sub_0)\n  dup1\n  dataOffset(sub_0)\n  0x00\n  codecopy\n  0x00\n  return\nstop\n\nsub_0: assembly {\n        /* \".deps/remix-tests/roma2number.sol\":60:1041  contract transnmber{... */\n      mstore(0x40, 0x80)\n      callvalue\n      dup1\n      iszero\n      tag_1\n      jumpi\n      revert(0x00, 0x00)\n    tag_1:\n      pop\n      jumpi(tag_2, lt(calldatasize, 0x04))\n      shr(0xe0, calldataload(0x00))\n      dup1\n      0x1e37bf8e\n      eq\n      tag_3\n      jumpi\n      dup1\n      0xf704bbad\n      eq\n      tag_4\n      jumpi\n    tag_2:\n      revert(0x00, 0x00)\n        /* \".deps/remix-tests/roma2number.sol\":88:135  mapping (bytes1  => uint) public transnumToName */\n    tag_3:\n      tag_5\n      0x04\n      dup1\n      calldatasize\n      sub\n      dup2\n      add\n      swap1\n      tag_6\n      swap2\n      swap1\n      tag_7\n      jump\t// in\n    tag_6:\n      tag_8\n      jump\t// in\n    tag_5:\n      mload(0x40)\n      tag_9\n      swap2\n      swap1\n      tag_10\n      jump\t// in\n    tag_9:\n      mload(0x40)\n      dup1\n      swap2\n      sub\n      swap1\n      return\n        /* \".deps/remix-tests/roma2number.sol\":469:1038  function setTransnum(string calldata roma) public view  returns (uint) {... */\n    tag_4:\n      tag_11\n      0x04\n      dup1\n      calldatasize\n      sub\n      dup2\n      add\n      swap1\n      tag_12\n      swap2\n      swap1\n      tag_13\n      jump\t// in\n    tag_12:\n      tag_14\n      jump\t// in\n    tag_11:\n      mload(0x40)\n      tag_15\n      swap2\n      swap1\n      tag_10\n      jump\t// in\n    tag_15:\n      mload(0x40)\n      dup1\n      swap2\n      sub\n      swap1\n      return\n        /* \".deps/remix-tests/roma2number.sol\":88:135  mapping (bytes1  => uint) public transnumToName */\n    tag_8:\n      mstore(0x20, 0x00)\n      dup1\n      0x00\n      mstore\n      keccak256(0x00, 0x40)\n      0x00\n      swap2\n      pop\n      swap1\n      pop\n      sload\n      dup2\n      jump\t// out\n        /* \".deps/remix-tests/roma2number.sol\":469:1038  function setTransnum(string calldata roma) public view  returns (uint) {... */\n    tag_14:\n        /* \".deps/remix-tests/roma2number.sol\":534:538  uint */\n      0x00\n        /* \".deps/remix-tests/roma2number.sol\":550:558  uint len */\n      0x00\n        /* \".deps/remix-tests/roma2number.sol\":567:571  roma */\n      dup4\n      dup4\n        /* \".deps/remix-tests/roma2number.sol\":561:579  bytes(roma).length */\n      swap1\n      pop\n        /* \".deps/remix-tests/roma2number.sol\":550:579  uint len = bytes(roma).length */\n      swap1\n      pop\n        /* \".deps/remix-tests/roma2number.sol\":589:603  bytes memory m */\n      0x00\n        /* \".deps/remix-tests/roma2number.sol\":612:616  roma */\n      dup5\n      dup5\n        /* \".deps/remix-tests/roma2number.sol\":589:617  bytes memory m = bytes(roma) */\n      dup1\n      dup1\n      0x1f\n      add\n      0x20\n      dup1\n      swap2\n      div\n      mul\n      0x20\n      add\n      mload(0x40)\n      swap1\n      dup2\n      add\n      0x40\n      mstore\n      dup1\n      swap4\n      swap3\n      swap2\n      swap1\n      dup2\n      dup2\n      mstore\n      0x20\n      add\n      dup4\n      dup4\n      dup1\n      dup3\n      dup5\n      calldatacopy\n      0x00\n      dup2\n      dup5\n      add\n      mstore\n      not(0x1f)\n      0x1f\n      dup3\n      add\n      and\n      swap1\n      pop\n      dup1\n      dup4\n      add\n      swap3\n      pop\n      pop\n      pop\n      pop\n      pop\n      pop\n      pop\n      swap1\n      pop\n        /* \".deps/remix-tests/roma2number.sol\":627:642  uint romaNumber */\n      0x00\n        /* \".deps/remix-tests/roma2number.sol\":652:665  uint prevalue */\n      0x00\n        /* \".deps/remix-tests/roma2number.sol\":668:669  0 */\n      0x00\n        /* \".deps/remix-tests/roma2number.sol\":652:669  uint prevalue = 0 */\n      swap1\n      pop\n        /* \".deps/remix-tests/roma2number.sol\":684:690  uint i */\n      0x00\n        /* \".deps/remix-tests/roma2number.sol\":692:695  len */\n      dup5\n        /* \".deps/remix-tests/roma2number.sol\":684:695  uint i =len */\n      swap1\n      pop\n        /* \".deps/remix-tests/roma2number.sol\":679:1004  for (uint i =len;i > 0; i--){... */\n    tag_17:\n        /* \".deps/remix-tests/roma2number.sol\":700:701  0 */\n      0x00\n        /* \".deps/remix-tests/roma2number.sol\":696:697  i */\n      dup2\n        /* \".deps/remix-tests/roma2number.sol\":696:701  i > 0 */\n      gt\n        /* \".deps/remix-tests/roma2number.sol\":679:1004  for (uint i =len;i > 0; i--){... */\n      iszero\n      tag_18\n      jumpi\n        /* \".deps/remix-tests/roma2number.sol\":719:737  bytes1 currentChar */\n      0x00\n        /* \".deps/remix-tests/roma2number.sol\":740:741  m */\n      dup5\n        /* \".deps/remix-tests/roma2number.sol\":744:745  1 */\n      0x01\n        /* \".deps/remix-tests/roma2number.sol\":742:743  i */\n      dup4\n        /* \".deps/remix-tests/roma2number.sol\":742:745  i-1 */\n      tag_20\n      swap2\n      swap1\n      tag_21\n      jump\t// in\n    tag_20:\n        /* \".deps/remix-tests/roma2number.sol\":740:746  m[i-1] */\n      dup2\n      mload\n      dup2\n      lt\n      tag_22\n      jumpi\n      tag_23\n      tag_24\n      jump\t// in\n    tag_23:\n    tag_22:\n      0x20\n      add\n      add\n      mload\n      0xf8\n      shr\n      0xf8\n      shl\n        /* \".deps/remix-tests/roma2number.sol\":719:746  bytes1 currentChar = m[i-1] */\n      swap1\n      pop\n        /* \".deps/remix-tests/roma2number.sol\":758:775  uint currentValue */\n      0x00\n        /* \".deps/remix-tests/roma2number.sol\":778:792  transnumToName */\n      0x00\n        /* \".deps/remix-tests/roma2number.sol\":778:805  transnumToName[currentChar] */\n      0x00\n        /* \".deps/remix-tests/roma2number.sol\":793:804  currentChar */\n      dup4\n        /* \".deps/remix-tests/roma2number.sol\":778:805  transnumToName[currentChar] */\n      not(0xffffffffffffffffffffffffffffffffffffffffffffffffffffffffffffff)\n      and\n      not(0xffffffffffffffffffffffffffffffffffffffffffffffffffffffffffffff)\n      and\n      dup2\n      mstore\n      0x20\n      add\n      swap1\n      dup2\n      mstore\n      0x20\n      add\n      0x00\n      keccak256\n      sload\n        /* \".deps/remix-tests/roma2number.sol\":758:805  uint currentValue = transnumToName[currentChar] */\n      swap1\n      pop\n        /* \".deps/remix-tests/roma2number.sol\":836:844  prevalue */\n      dup4\n        /* \".deps/remix-tests/roma2number.sol\":821:833  currentValue */\n      dup2\n        /* \".deps/remix-tests/roma2number.sol\":821:844  currentValue < prevalue */\n      lt\n        /* \".deps/remix-tests/roma2number.sol\":817:959  if (currentValue < prevalue){... */\n      iszero\n      tag_25\n      jumpi\n        /* \".deps/remix-tests/roma2number.sol\":875:887  currentValue */\n      dup1\n        /* \".deps/remix-tests/roma2number.sol\":860:887  romaNumber  -= currentValue */\n      dup6\n      tag_26\n      swap2\n      swap1\n      tag_21\n      jump\t// in\n    tag_26:\n      swap5\n      pop\n        /* \".deps/remix-tests/roma2number.sol\":817:959  if (currentValue < prevalue){... */\n      jump(tag_27)\n    tag_25:\n        /* \".deps/remix-tests/roma2number.sol\":934:946  currentValue */\n      dup1\n        /* \".deps/remix-tests/roma2number.sol\":920:946  romaNumber += currentValue */\n      dup6\n      tag_28\n      swap2\n      swap1\n      tag_29\n      jump\t// in\n    tag_28:\n      swap5\n      pop\n        /* \".deps/remix-tests/roma2number.sol\":817:959  if (currentValue < prevalue){... */\n    tag_27:\n        /* \".deps/remix-tests/roma2number.sol\":981:993  currentValue */\n      dup1\n        /* \".deps/remix-tests/roma2number.sol\":970:993  prevalue = currentValue */\n      swap4\n      pop\n        /* \".deps/remix-tests/roma2number.sol\":707:1004  {... */\n      pop\n      pop\n        /* \".deps/remix-tests/roma2number.sol\":703:706  i-- */\n      dup1\n      dup1\n      tag_30\n      swap1\n      tag_31\n      jump\t// in\n    tag_30:\n      swap2\n      pop\n      pop\n        /* \".deps/remix-tests/roma2number.sol\":679:1004  for (uint i =len;i > 0; i--){... */\n      jump(tag_17)\n    tag_18:\n      pop\n        /* \".deps/remix-tests/roma2number.sol\":1020:1030  romaNumber */\n      dup2\n        /* \".deps/remix-tests/roma2number.sol\":1013:1030  return romaNumber */\n      swap5\n      pop\n      pop\n      pop\n      pop\n      pop\n        /* \".deps/remix-tests/roma2number.sol\":469:1038  function setTransnum(string calldata roma) public view  returns (uint) {... */\n      swap3\n      swap2\n      pop\n      pop\n      jump\t// out\n        /* \"#utility.yul\":88:205   */\n    tag_33:\n        /* \"#utility.yul\":197:198   */\n      0x00\n        /* \"#utility.yul\":194:195   */\n      0x00\n        /* \"#utility.yul\":187:199   */\n      revert\n        /* \"#utility.yul\":211:328   */\n    tag_34:\n        /* \"#utility.yul\":320:321   */\n      0x00\n        /* \"#utility.yul\":317:318   */\n      0x00\n        /* \"#utility.yul\":310:322   */\n      revert\n        /* \"#utility.yul\":334:483   */\n    tag_35:\n        /* \"#utility.yul\":370:377   */\n      0x00\n        /* \"#utility.yul\":410:476   */\n      0xff00000000000000000000000000000000000000000000000000000000000000\n        /* \"#utility.yul\":403:408   */\n      dup3\n        /* \"#utility.yul\":399:477   */\n      and\n        /* \"#utility.yul\":388:477   */\n      swap1\n      pop\n        /* \"#utility.yul\":334:483   */\n      swap2\n      swap1\n      pop\n      jump\t// out\n        /* \"#utility.yul\":489:609   */\n    tag_36:\n        /* \"#utility.yul\":561:584   */\n      tag_51\n        /* \"#utility.yul\":578:583   */\n      dup2\n        /* \"#utility.yul\":561:584   */\n      tag_35\n      jump\t// in\n    tag_51:\n        /* \"#utility.yul\":554:559   */\n      dup2\n        /* \"#utility.yul\":551:585   */\n      eq\n        /* \"#utility.yul\":541:603   */\n      tag_52\n      jumpi\n        /* \"#utility.yul\":599:600   */\n      0x00\n        /* \"#utility.yul\":596:597   */\n      0x00\n        /* \"#utility.yul\":589:601   */\n      revert\n        /* \"#utility.yul\":541:603   */\n    tag_52:\n        /* \"#utility.yul\":489:609   */\n      pop\n      jump\t// out\n        /* \"#utility.yul\":615:752   */\n    tag_37:\n        /* \"#utility.yul\":660:665   */\n      0x00\n        /* \"#utility.yul\":698:704   */\n      dup2\n        /* \"#utility.yul\":685:705   */\n      calldataload\n        /* \"#utility.yul\":676:705   */\n      swap1\n      pop\n        /* \"#utility.yul\":714:746   */\n      tag_54\n        /* \"#utility.yul\":740:745   */\n      dup2\n        /* \"#utility.yul\":714:746   */\n      tag_36\n      jump\t// in\n    tag_54:\n        /* \"#utility.yul\":615:752   */\n      swap3\n      swap2\n      pop\n      pop\n      jump\t// out\n        /* \"#utility.yul\":758:1085   */\n    tag_7:\n        /* \"#utility.yul\":816:822   */\n      0x00\n        /* \"#utility.yul\":865:867   */\n      0x20\n        /* \"#utility.yul\":853:862   */\n      dup3\n        /* \"#utility.yul\":844:851   */\n      dup5\n        /* \"#utility.yul\":840:863   */\n      sub\n        /* \"#utility.yul\":836:868   */\n      slt\n        /* \"#utility.yul\":833:952   */\n      iszero\n      tag_56\n      jumpi\n        /* \"#utility.yul\":871:950   */\n      tag_57\n      tag_33\n      jump\t// in\n    tag_57:\n        /* \"#utility.yul\":833:952   */\n    tag_56:\n        /* \"#utility.yul\":991:992   */\n      0x00\n        /* \"#utility.yul\":1016:1068   */\n      tag_58\n        /* \"#utility.yul\":1060:1067   */\n      dup5\n        /* \"#utility.yul\":1051:1057   */\n      dup3\n        /* \"#utility.yul\":1040:1049   */\n      dup6\n        /* \"#utility.yul\":1036:1058   */\n      add\n        /* \"#utility.yul\":1016:1068   */\n      tag_37\n      jump\t// in\n    tag_58:\n        /* \"#utility.yul\":1006:1068   */\n      swap2\n      pop\n        /* \"#utility.yul\":962:1078   */\n      pop\n        /* \"#utility.yul\":758:1085   */\n      swap3\n      swap2\n      pop\n      pop\n      jump\t// out\n        /* \"#utility.yul\":1091:1168   */\n    tag_38:\n        /* \"#utility.yul\":1128:1135   */\n      0x00\n        /* \"#utility.yul\":1157:1162   */\n      dup2\n        /* \"#utility.yul\":1146:1162   */\n      swap1\n      pop\n        /* \"#utility.yul\":1091:1168   */\n      swap2\n      swap1\n      pop\n      jump\t// out\n        /* \"#utility.yul\":1174:1292   */\n    tag_39:\n        /* \"#utility.yul\":1261:1285   */\n      tag_61\n        /* \"#utility.yul\":1279:1284   */\n      dup2\n        /* \"#utility.yul\":1261:1285   */\n      tag_38\n      jump\t// in\n    tag_61:\n        /* \"#utility.yul\":1256:1259   */\n      dup3\n        /* \"#utility.yul\":1249:1286   */\n      mstore\n        /* \"#utility.yul\":1174:1292   */\n      pop\n      pop\n      jump\t// out\n        /* \"#utility.yul\":1298:1520   */\n    tag_10:\n        /* \"#utility.yul\":1391:1395   */\n      0x00\n        /* \"#utility.yul\":1429:1431   */\n      0x20\n        /* \"#utility.yul\":1418:1427   */\n      dup3\n        /* \"#utility.yul\":1414:1432   */\n      add\n        /* \"#utility.yul\":1406:1432   */\n      swap1\n      pop\n        /* \"#utility.yul\":1442:1513   */\n      tag_63\n        /* \"#utility.yul\":1510:1511   */\n      0x00\n        /* \"#utility.yul\":1499:1508   */\n      dup4\n        /* \"#utility.yul\":1495:1512   */\n      add\n        /* \"#utility.yul\":1486:1492   */\n      dup5\n        /* \"#utility.yul\":1442:1513   */\n      tag_39\n      jump\t// in\n    tag_63:\n        /* \"#utility.yul\":1298:1520   */\n      swap3\n      swap2\n      pop\n      pop\n      jump\t// out\n        /* \"#utility.yul\":1526:1643   */\n    tag_40:\n        /* \"#utility.yul\":1635:1636   */\n      0x00\n        /* \"#utility.yul\":1632:1633   */\n      0x00\n        /* \"#utility.yul\":1625:1637   */\n      revert\n        /* \"#utility.yul\":1649:1766   */\n    tag_41:\n        /* \"#utility.yul\":1758:1759   */\n      0x00\n        /* \"#utility.yul\":1755:1756   */\n      0x00\n        /* \"#utility.yul\":1748:1760   */\n      revert\n        /* \"#utility.yul\":1772:1889   */\n    tag_42:\n        /* \"#utility.yul\":1881:1882   */\n      0x00\n        /* \"#utility.yul\":1878:1879   */\n      0x00\n        /* \"#utility.yul\":1871:1883   */\n      revert\n        /* \"#utility.yul\":1909:2462   */\n    tag_43:\n        /* \"#utility.yul\":1967:1975   */\n      0x00\n        /* \"#utility.yul\":1977:1983   */\n      0x00\n        /* \"#utility.yul\":2027:2030   */\n      dup4\n        /* \"#utility.yul\":2020:2024   */\n      0x1f\n        /* \"#utility.yul\":2012:2018   */\n      dup5\n        /* \"#utility.yul\":2008:2025   */\n      add\n        /* \"#utility.yul\":2004:2031   */\n      slt\n        /* \"#utility.yul\":1994:2116   */\n      tag_68\n      jumpi\n        /* \"#utility.yul\":2035:2114   */\n      tag_69\n      tag_40\n      jump\t// in\n    tag_69:\n        /* \"#utility.yul\":1994:2116   */\n    tag_68:\n        /* \"#utility.yul\":2148:2154   */\n      dup3\n        /* \"#utility.yul\":2135:2155   */\n      calldataload\n        /* \"#utility.yul\":2125:2155   */\n      swap1\n      pop\n        /* \"#utility.yul\":2178:2196   */\n      0xffffffffffffffff\n        /* \"#utility.yul\":2170:2176   */\n      dup2\n        /* \"#utility.yul\":2167:2197   */\n      gt\n        /* \"#utility.yul\":2164:2281   */\n      iszero\n      tag_70\n      jumpi\n        /* \"#utility.yul\":2200:2279   */\n      tag_71\n      tag_41\n      jump\t// in\n    tag_71:\n        /* \"#utility.yul\":2164:2281   */\n    tag_70:\n        /* \"#utility.yul\":2314:2318   */\n      0x20\n        /* \"#utility.yul\":2306:2312   */\n      dup4\n        /* \"#utility.yul\":2302:2319   */\n      add\n        /* \"#utility.yul\":2290:2319   */\n      swap2\n      pop\n        /* \"#utility.yul\":2368:2371   */\n      dup4\n        /* \"#utility.yul\":2360:2364   */\n      0x01\n        /* \"#utility.yul\":2352:2358   */\n      dup3\n        /* \"#utility.yul\":2348:2365   */\n      mul\n        /* \"#utility.yul\":2338:2346   */\n      dup4\n        /* \"#utility.yul\":2334:2366   */\n      add\n        /* \"#utility.yul\":2331:2372   */\n      gt\n        /* \"#utility.yul\":2328:2456   */\n      iszero\n      tag_72\n      jumpi\n        /* \"#utility.yul\":2375:2454   */\n      tag_73\n      tag_42\n      jump\t// in\n    tag_73:\n        /* \"#utility.yul\":2328:2456   */\n    tag_72:\n        /* \"#utility.yul\":1909:2462   */\n      swap3\n      pop\n      swap3\n      swap1\n      pop\n      jump\t// out\n        /* \"#utility.yul\":2468:2997   */\n    tag_13:\n        /* \"#utility.yul\":2539:2545   */\n      0x00\n        /* \"#utility.yul\":2547:2553   */\n      0x00\n        /* \"#utility.yul\":2596:2598   */\n      0x20\n        /* \"#utility.yul\":2584:2593   */\n      dup4\n        /* \"#utility.yul\":2575:2582   */\n      dup6\n        /* \"#utility.yul\":2571:2594   */\n      sub\n        /* \"#utility.yul\":2567:2599   */\n      slt\n        /* \"#utility.yul\":2564:2683   */\n      iszero\n      tag_75\n      jumpi\n        /* \"#utility.yul\":2602:2681   */\n      tag_76\n      tag_33\n      jump\t// in\n    tag_76:\n        /* \"#utility.yul\":2564:2683   */\n    tag_75:\n        /* \"#utility.yul\":2750:2751   */\n      0x00\n        /* \"#utility.yul\":2739:2748   */\n      dup4\n        /* \"#utility.yul\":2735:2752   */\n      add\n        /* \"#utility.yul\":2722:2753   */\n      calldataload\n        /* \"#utility.yul\":2780:2798   */\n      0xffffffffffffffff\n        /* \"#utility.yul\":2772:2778   */\n      dup2\n        /* \"#utility.yul\":2769:2799   */\n      gt\n        /* \"#utility.yul\":2766:2883   */\n      iszero\n      tag_77\n      jumpi\n        /* \"#utility.yul\":2802:2881   */\n      tag_78\n      tag_34\n      jump\t// in\n    tag_78:\n        /* \"#utility.yul\":2766:2883   */\n    tag_77:\n        /* \"#utility.yul\":2915:2980   */\n      tag_79\n        /* \"#utility.yul\":2972:2979   */\n      dup6\n        /* \"#utility.yul\":2963:2969   */\n      dup3\n        /* \"#utility.yul\":2952:2961   */\n      dup7\n        /* \"#utility.yul\":2948:2970   */\n      add\n        /* \"#utility.yul\":2915:2980   */\n      tag_43\n      jump\t// in\n    tag_79:\n        /* \"#utility.yul\":2897:2980   */\n      swap3\n      pop\n      swap3\n      pop\n        /* \"#utility.yul\":2693:2990   */\n      pop\n        /* \"#utility.yul\":2468:2997   */\n      swap3\n      pop\n      swap3\n      swap1\n      pop\n      jump\t// out\n        /* \"#utility.yul\":3003:3183   */\n    tag_44:\n        /* \"#utility.yul\":3051:3128   */\n      0x4e487b7100000000000000000000000000000000000000000000000000000000\n        /* \"#utility.yul\":3048:3049   */\n      0x00\n        /* \"#utility.yul\":3041:3129   */\n      mstore\n        /* \"#utility.yul\":3148:3152   */\n      0x11\n        /* \"#utility.yul\":3145:3146   */\n      0x04\n        /* \"#utility.yul\":3138:3153   */\n      mstore\n        /* \"#utility.yul\":3172:3176   */\n      0x24\n        /* \"#utility.yul\":3169:3170   */\n      0x00\n        /* \"#utility.yul\":3162:3177   */\n      revert\n        /* \"#utility.yul\":3189:3383   */\n    tag_21:\n        /* \"#utility.yul\":3229:3233   */\n      0x00\n        /* \"#utility.yul\":3249:3269   */\n      tag_82\n        /* \"#utility.yul\":3267:3268   */\n      dup3\n        /* \"#utility.yul\":3249:3269   */\n      tag_38\n      jump\t// in\n    tag_82:\n        /* \"#utility.yul\":3244:3269   */\n      swap2\n      pop\n        /* \"#utility.yul\":3283:3303   */\n      tag_83\n        /* \"#utility.yul\":3301:3302   */\n      dup4\n        /* \"#utility.yul\":3283:3303   */\n      tag_38\n      jump\t// in\n    tag_83:\n        /* \"#utility.yul\":3278:3303   */\n      swap3\n      pop\n        /* \"#utility.yul\":3327:3328   */\n      dup3\n        /* \"#utility.yul\":3324:3325   */\n      dup3\n        /* \"#utility.yul\":3320:3329   */\n      sub\n        /* \"#utility.yul\":3312:3329   */\n      swap1\n      pop\n        /* \"#utility.yul\":3351:3352   */\n      dup2\n        /* \"#utility.yul\":3345:3349   */\n      dup2\n        /* \"#utility.yul\":3342:3353   */\n      gt\n        /* \"#utility.yul\":3339:3376   */\n      iszero\n      tag_84\n      jumpi\n        /* \"#utility.yul\":3356:3374   */\n      tag_85\n      tag_44\n      jump\t// in\n    tag_85:\n        /* \"#utility.yul\":3339:3376   */\n    tag_84:\n        /* \"#utility.yul\":3189:3383   */\n      swap3\n      swap2\n      pop\n      pop\n      jump\t// out\n        /* \"#utility.yul\":3389:3569   */\n    tag_24:\n        /* \"#utility.yul\":3437:3514   */\n      0x4e487b7100000000000000000000000000000000000000000000000000000000\n        /* \"#utility.yul\":3434:3435   */\n      0x00\n        /* \"#utility.yul\":3427:3515   */\n      mstore\n        /* \"#utility.yul\":3534:3538   */\n      0x32\n        /* \"#utility.yul\":3531:3532   */\n      0x04\n        /* \"#utility.yul\":3524:3539   */\n      mstore\n        /* \"#utility.yul\":3558:3562   */\n      0x24\n        /* \"#utility.yul\":3555:3556   */\n      0x00\n        /* \"#utility.yul\":3548:3563   */\n      revert\n        /* \"#utility.yul\":3575:3766   */\n    tag_29:\n        /* \"#utility.yul\":3615:3618   */\n      0x00\n        /* \"#utility.yul\":3634:3654   */\n      tag_88\n        /* \"#utility.yul\":3652:3653   */\n      dup3\n        /* \"#utility.yul\":3634:3654   */\n      tag_38\n      jump\t// in\n    tag_88:\n        /* \"#utility.yul\":3629:3654   */\n      swap2\n      pop\n        /* \"#utility.yul\":3668:3688   */\n      tag_89\n        /* \"#utility.yul\":3686:3687   */\n      dup4\n        /* \"#utility.yul\":3668:3688   */\n      tag_38\n      jump\t// in\n    tag_89:\n        /* \"#utility.yul\":3663:3688   */\n      swap3\n      pop\n        /* \"#utility.yul\":3711:3712   */\n      dup3\n        /* \"#utility.yul\":3708:3709   */\n      dup3\n        /* \"#utility.yul\":3704:3713   */\n      add\n        /* \"#utility.yul\":3697:3713   */\n      swap1\n      pop\n        /* \"#utility.yul\":3732:3735   */\n      dup1\n        /* \"#utility.yul\":3729:3730   */\n      dup3\n        /* \"#utility.yul\":3726:3736   */\n      gt\n        /* \"#utility.yul\":3723:3759   */\n      iszero\n      tag_90\n      jumpi\n        /* \"#utility.yul\":3739:3757   */\n      tag_91\n      tag_44\n      jump\t// in\n    tag_91:\n        /* \"#utility.yul\":3723:3759   */\n    tag_90:\n        /* \"#utility.yul\":3575:3766   */\n      swap3\n      swap2\n      pop\n      pop\n      jump\t// out\n        /* \"#utility.yul\":3772:3943   */\n    tag_31:\n        /* \"#utility.yul\":3811:3814   */\n      0x00\n        /* \"#utility.yul\":3834:3858   */\n      tag_93\n        /* \"#utility.yul\":3852:3857   */\n      dup3\n        /* \"#utility.yul\":3834:3858   */\n      tag_38\n      jump\t// in\n    tag_93:\n        /* \"#utility.yul\":3825:3858   */\n      swap2\n      pop\n        /* \"#utility.yul\":3880:3884   */\n      0x00\n        /* \"#utility.yul\":3873:3878   */\n      dup3\n        /* \"#utility.yul\":3870:3885   */\n      sub\n        /* \"#utility.yul\":3867:3908   */\n      tag_94\n      jumpi\n        /* \"#utility.yul\":3888:3906   */\n      tag_95\n      tag_44\n      jump\t// in\n    tag_95:\n        /* \"#utility.yul\":3867:3908   */\n    tag_94:\n        /* \"#utility.yul\":3935:3936   */\n      0x01\n        /* \"#utility.yul\":3928:3933   */\n      dup3\n        /* \"#utility.yul\":3924:3937   */\n      sub\n        /* \"#utility.yul\":3917:3937   */\n      swap1\n      pop\n        /* \"#utility.yul\":3772:3943   */\n      swap2\n      swap1\n      pop\n      jump\t// out\n\n    auxdata: 0xa2646970667358221220e87f99a5b1e92278fa8f93a3d904cd9762c71440b21072b28f043ee9a5d1a4e664736f6c634300081e0033\n}\n",
				"bytecode": {
					"linkReferences": {},
					"object": "608060405234801561000f575f5ffd5b5060015f5f7f49000000000000000000000000000000000000000000000000000000000000007effffffffffffffffffffffffffffffffffffffffffffffffffffffffffffff191681526020019081526020015f208190555060055f5f7f56000000000000000000000000000000000000000000000000000000000000007effffffffffffffffffffffffffffffffffffffffffffffffffffffffffffff191681526020019081526020015f2081905550600a5f5f7f58000000000000000000000000000000000000000000000000000000000000007effffffffffffffffffffffffffffffffffffffffffffffffffffffffffffff191681526020019081526020015f208190555060325f5f7f4c000000000000000000000000000000000000000000000000000000000000007effffffffffffffffffffffffffffffffffffffffffffffffffffffffffffff191681526020019081526020015f208190555060645f5f7f43000000000000000000000000000000000000000000000000000000000000007effffffffffffffffffffffffffffffffffffffffffffffffffffffffffffff191681526020019081526020015f20819055506101f45f5f7f44000000000000000000000000000000000000000000000000000000000000007effffffffffffffffffffffffffffffffffffffffffffffffffffffffffffff191681526020019081526020015f20819055506103e85f5f7f4d000000000000000000000000000000000000000000000000000000000000007effffffffffffffffffffffffffffffffffffffffffffffffffffffffffffff191681526020019081526020015f2081905550610464806102875f395ff3fe608060405234801561000f575f5ffd5b5060043610610034575f3560e01c80631e37bf8e14610038578063f704bbad14610068575b5f5ffd5b610052600480360381019061004d919061023f565b610098565b60405161005f9190610282565b60405180910390f35b610082600480360381019061007d91906102fc565b6100ac565b60405161008f9190610282565b60405180910390f35b5f602052805f5260405f205f915090505481565b5f5f8383905090505f84848080601f0160208091040260200160405190810160405280939291908181526020018383808284375f81840152601f19601f8201169050808301925050505050505090505f5f5f90505f8490505b5f8111156101d4575f8460018361011c9190610374565b8151811061012d5761012c6103a7565b5b602001015160f81c60f81b90505f5f5f837effffffffffffffffffffffffffffffffffffffffffffffffffffffffffffff19167effffffffffffffffffffffffffffffffffffffffffffffffffffffffffffff191681526020019081526020015f20549050838110156101ad5780856101a69190610374565b94506101bc565b80856101b991906103d4565b94505b809350505080806101cc90610407565b915050610105565b508194505050505092915050565b5f5ffd5b5f5ffd5b5f7fff0000000000000000000000000000000000000000000000000000000000000082169050919050565b61021e816101ea565b8114610228575f5ffd5b50565b5f8135905061023981610215565b92915050565b5f60208284031215610254576102536101e2565b5b5f6102618482850161022b565b91505092915050565b5f819050919050565b61027c8161026a565b82525050565b5f6020820190506102955f830184610273565b92915050565b5f5ffd5b5f5ffd5b5f5ffd5b5f5f83601f8401126102bc576102bb61029b565b5b8235905067ffffffffffffffff8111156102d9576102d861029f565b5b6020830191508360018202830111156102f5576102f46102a3565b5b9250929050565b5f5f60208385031215610312576103116101e2565b5b5f83013567ffffffffffffffff81111561032f5761032e6101e6565b5b61033b858286016102a7565b92509250509250929050565b7f4e487b71000000000000000000000000000000000000000000000000000000005f52601160045260245ffd5b5f61037e8261026a565b91506103898361026a565b92508282039050818111156103a1576103a0610347565b5b92915050565b7f4e487b71000000000000000000000000000000000000000000000000000000005f52603260045260245ffd5b5f6103de8261026a565b91506103e98361026a565b925082820190508082111561040157610400610347565b5b92915050565b5f6104118261026a565b91505f820361042357610422610347565b5b60018203905091905056fea2646970667358221220e87f99a5b1e92278fa8f93a3d904cd9762c71440b21072b28f043ee9a5d1a4e664736f6c634300081e0033",
					"opcodes": "PUSH1 0x80 PUSH1 0x40 MSTORE CALLVALUE DUP1 ISZERO PUSH2 0xF JUMPI PUSH0 PUSH0 REVERT JUMPDEST POP PUSH1 0x1 PUSH0 PUSH0 PUSH32 0x4900000000000000000000000000000000000000000000000000000000000000 PUSH31 0xFFFFFFFFFFFFFFFFFFFFFFFFFFFFFFFFFFFFFFFFFFFFFFFFFFFFFFFFFFFFFF NOT AND DUP2 MSTORE PUSH1 0x20 ADD SWAP1 DUP2 MSTORE PUSH1 0x20 ADD PUSH0 KECCAK256 DUP2 SWAP1 SSTORE POP PUSH1 0x5 PUSH0 PUSH0 PUSH32 0x5600000000000000000000000000000000000000000000000000000000000000 PUSH31 0xFFFFFFFFFFFFFFFFFFFFFFFFFFFFFFFFFFFFFFFFFFFFFFFFFFFFFFFFFFFFFF NOT AND DUP2 MSTORE PUSH1 0x20 ADD SWAP1 DUP2 MSTORE PUSH1 0x20 ADD PUSH0 KECCAK256 DUP2 SWAP1 SSTORE POP PUSH1 0xA PUSH0 PUSH0 PUSH32 0x5800000000000000000000000000000000000000000000000000000000000000 PUSH31 0xFFFFFFFFFFFFFFFFFFFFFFFFFFFFFFFFFFFFFFFFFFFFFFFFFFFFFFFFFFFFFF NOT AND DUP2 MSTORE PUSH1 0x20 ADD SWAP1 DUP2 MSTORE PUSH1 0x20 ADD PUSH0 KECCAK256 DUP2 SWAP1 SSTORE POP PUSH1 0x32 PUSH0 PUSH0 PUSH32 0x4C00000000000000000000000000000000000000000000000000000000000000 PUSH31 0xFFFFFFFFFFFFFFFFFFFFFFFFFFFFFFFFFFFFFFFFFFFFFFFFFFFFFFFFFFFFFF NOT AND DUP2 MSTORE PUSH1 0x20 ADD SWAP1 DUP2 MSTORE PUSH1 0x20 ADD PUSH0 KECCAK256 DUP2 SWAP1 SSTORE POP PUSH1 0x64 PUSH0 PUSH0 PUSH32 0x4300000000000000000000000000000000000000000000000000000000000000 PUSH31 0xFFFFFFFFFFFFFFFFFFFFFFFFFFFFFFFFFFFFFFFFFFFFFFFFFFFFFFFFFFFFFF NOT AND DUP2 MSTORE PUSH1 0x20 ADD SWAP1 DUP2 MSTORE PUSH1 0x20 ADD PUSH0 KECCAK256 DUP2 SWAP1 SSTORE POP PUSH2 0x1F4 PUSH0 PUSH0 PUSH32 0x4400000000000000000000000000000000000000000000000000000000000000 PUSH31 0xFFFFFFFFFFFFFFFFFFFFFFFFFFFFFFFFFFFFFFFFFFFFFFFFFFFFFFFFFFFFFF NOT AND DUP2 MSTORE PUSH1 0x20 ADD SWAP1 DUP2 MSTORE PUSH1 0x20 ADD PUSH0 KECCAK256 DUP2 SWAP1 SSTORE POP PUSH2 0x3E8 PUSH0 PUSH0 PUSH32 0x4D00000000000000000000000000000000000000000000000000000000000000 PUSH31 0xFFFFFFFFFFFFFFFFFFFFFFFFFFFFFFFFFFFFFFFFFFFFFFFFFFFFFFFFFFFFFF NOT AND DUP2 MSTORE PUSH1 0x20 ADD SWAP1 DUP2 MSTORE PUSH1 0x20 ADD PUSH0 KECCAK256 DUP2 SWAP1 SSTORE POP PUSH2 0x464 DUP1 PUSH2 0x287 PUSH0 CODECOPY PUSH0 RETURN INVALID PUSH1 0x80 PUSH1 0x40 MSTORE CALLVALUE DUP1 ISZERO PUSH2 0xF JUMPI PUSH0 PUSH0 REVERT JUMPDEST POP PUSH1 0x4 CALLDATASIZE LT PUSH2 0x34 JUMPI PUSH0 CALLDATALOAD PUSH1 0xE0 SHR DUP1 PUSH4 0x1E37BF8E EQ PUSH2 0x38 JUMPI DUP1 PUSH4 0xF704BBAD EQ PUSH2 0x68 JUMPI JUMPDEST PUSH0 PUSH0 REVERT JUMPDEST PUSH2 0x52 PUSH1 0x4 DUP1 CALLDATASIZE SUB DUP2 ADD SWAP1 PUSH2 0x4D SWAP2 SWAP1 PUSH2 0x23F JUMP JUMPDEST PUSH2 0x98 JUMP JUMPDEST PUSH1 0x40 MLOAD PUSH2 0x5F SWAP2 SWAP1 PUSH2 0x282 JUMP JUMPDEST PUSH1 0x40 MLOAD DUP1 SWAP2 SUB SWAP1 RETURN JUMPDEST PUSH2 0x82 PUSH1 0x4 DUP1 CALLDATASIZE SUB DUP2 ADD SWAP1 PUSH2 0x7D SWAP2 SWAP1 PUSH2 0x2FC JUMP JUMPDEST PUSH2 0xAC JUMP JUMPDEST PUSH1 0x40 MLOAD PUSH2 0x8F SWAP2 SWAP1 PUSH2 0x282 JUMP JUMPDEST PUSH1 0x40 MLOAD DUP1 SWAP2 SUB SWAP1 RETURN JUMPDEST PUSH0 PUSH1 0x20 MSTORE DUP1 PUSH0 MSTORE PUSH1 0x40 PUSH0 KECCAK256 PUSH0 SWAP2 POP SWAP1 POP SLOAD DUP2 JUMP JUMPDEST PUSH0 PUSH0 DUP4 DUP4 SWAP1 POP SWAP1 POP PUSH0 DUP5 DUP5 DUP1 DUP1 PUSH1 0x1F ADD PUSH1 0x20 DUP1 SWAP2 DIV MUL PUSH1 0x20 ADD PUSH1 0x40 MLOAD SWAP1 DUP2 ADD PUSH1 0x40 MSTORE DUP1 SWAP4 SWAP3 SWAP2 SWAP1 DUP2 DUP2 MSTORE PUSH1 0x20 ADD DUP4 DUP4 DUP1 DUP3 DUP5 CALLDATACOPY PUSH0 DUP2 DUP5 ADD MSTORE PUSH1 0x1F NOT PUSH1 0x1F DUP3 ADD AND SWAP1 POP DUP1 DUP4 ADD SWAP3 POP POP POP POP POP POP POP SWAP1 POP PUSH0 PUSH0 PUSH0 SWAP1 POP PUSH0 DUP5 SWAP1 POP JUMPDEST PUSH0 DUP2 GT ISZERO PUSH2 0x1D4 JUMPI PUSH0 DUP5 PUSH1 0x1 DUP4 PUSH2 0x11C SWAP2 SWAP1 PUSH2 0x374 JUMP JUMPDEST DUP2 MLOAD DUP2 LT PUSH2 0x12D JUMPI PUSH2 0x12C PUSH2 0x3A7 JUMP JUMPDEST JUMPDEST PUSH1 0x20 ADD ADD MLOAD PUSH1 0xF8 SHR PUSH1 0xF8 SHL SWAP1 POP PUSH0 PUSH0 PUSH0 DUP4 PUSH31 0xFFFFFFFFFFFFFFFFFFFFFFFFFFFFFFFFFFFFFFFFFFFFFFFFFFFFFFFFFFFFFF NOT AND PUSH31 0xFFFFFFFFFFFFFFFFFFFFFFFFFFFFFFFFFFFFFFFFFFFFFFFFFFFFFFFFFFFFFF NOT AND DUP2 MSTORE PUSH1 0x20 ADD SWAP1 DUP2 MSTORE PUSH1 0x20 ADD PUSH0 KECCAK256 SLOAD SWAP1 POP DUP4 DUP2 LT ISZERO PUSH2 0x1AD JUMPI DUP1 DUP6 PUSH2 0x1A6 SWAP2 SWAP1 PUSH2 0x374 JUMP JUMPDEST SWAP5 POP PUSH2 0x1BC JUMP JUMPDEST DUP1 DUP6 PUSH2 0x1B9 SWAP2 SWAP1 PUSH2 0x3D4 JUMP JUMPDEST SWAP5 POP JUMPDEST DUP1 SWAP4 POP POP POP DUP1 DUP1 PUSH2 0x1CC SWAP1 PUSH2 0x407 JUMP JUMPDEST SWAP2 POP POP PUSH2 0x105 JUMP JUMPDEST POP DUP2 SWAP5 POP POP POP POP POP SWAP3 SWAP2 POP POP JUMP JUMPDEST PUSH0 PUSH0 REVERT JUMPDEST PUSH0 PUSH0 REVERT JUMPDEST PUSH0 PUSH32 0xFF00000000000000000000000000000000000000000000000000000000000000 DUP3 AND SWAP1 POP SWAP2 SWAP1 POP JUMP JUMPDEST PUSH2 0x21E DUP2 PUSH2 0x1EA JUMP JUMPDEST DUP2 EQ PUSH2 0x228 JUMPI PUSH0 PUSH0 REVERT JUMPDEST POP JUMP JUMPDEST PUSH0 DUP2 CALLDATALOAD SWAP1 POP PUSH2 0x239 DUP2 PUSH2 0x215 JUMP JUMPDEST SWAP3 SWAP2 POP POP JUMP JUMPDEST PUSH0 PUSH1 0x20 DUP3 DUP5 SUB SLT ISZERO PUSH2 0x254 JUMPI PUSH2 0x253 PUSH2 0x1E2 JUMP JUMPDEST JUMPDEST PUSH0 PUSH2 0x261 DUP5 DUP3 DUP6 ADD PUSH2 0x22B JUMP JUMPDEST SWAP2 POP POP SWAP3 SWAP2 POP POP JUMP JUMPDEST PUSH0 DUP2 SWAP1 POP SWAP2 SWAP1 POP JUMP JUMPDEST PUSH2 0x27C DUP2 PUSH2 0x26A JUMP JUMPDEST DUP3 MSTORE POP POP JUMP JUMPDEST PUSH0 PUSH1 0x20 DUP3 ADD SWAP1 POP PUSH2 0x295 PUSH0 DUP4 ADD DUP5 PUSH2 0x273 JUMP JUMPDEST SWAP3 SWAP2 POP POP JUMP JUMPDEST PUSH0 PUSH0 REVERT JUMPDEST PUSH0 PUSH0 REVERT JUMPDEST PUSH0 PUSH0 REVERT JUMPDEST PUSH0 PUSH0 DUP4 PUSH1 0x1F DUP5 ADD SLT PUSH2 0x2BC JUMPI PUSH2 0x2BB PUSH2 0x29B JUMP JUMPDEST JUMPDEST DUP3 CALLDATALOAD SWAP1 POP PUSH8 0xFFFFFFFFFFFFFFFF DUP2 GT ISZERO PUSH2 0x2D9 JUMPI PUSH2 0x2D8 PUSH2 0x29F JUMP JUMPDEST JUMPDEST PUSH1 0x20 DUP4 ADD SWAP2 POP DUP4 PUSH1 0x1 DUP3 MUL DUP4 ADD GT ISZERO PUSH2 0x2F5 JUMPI PUSH2 0x2F4 PUSH2 0x2A3 JUMP JUMPDEST JUMPDEST SWAP3 POP SWAP3 SWAP1 POP JUMP JUMPDEST PUSH0 PUSH0 PUSH1 0x20 DUP4 DUP6 SUB SLT ISZERO PUSH2 0x312 JUMPI PUSH2 0x311 PUSH2 0x1E2 JUMP JUMPDEST JUMPDEST PUSH0 DUP4 ADD CALLDATALOAD PUSH8 0xFFFFFFFFFFFFFFFF DUP2 GT ISZERO PUSH2 0x32F JUMPI PUSH2 0x32E PUSH2 0x1E6 JUMP JUMPDEST JUMPDEST PUSH2 0x33B DUP6 DUP3 DUP7 ADD PUSH2 0x2A7 JUMP JUMPDEST SWAP3 POP SWAP3 POP POP SWAP3 POP SWAP3 SWAP1 POP JUMP JUMPDEST PUSH32 0x4E487B7100000000000000000000000000000000000000000000000000000000 PUSH0 MSTORE PUSH1 0x11 PUSH1 0x4 MSTORE PUSH1 0x24 PUSH0 REVERT JUMPDEST PUSH0 PUSH2 0x37E DUP3 PUSH2 0x26A JUMP JUMPDEST SWAP2 POP PUSH2 0x389 DUP4 PUSH2 0x26A JUMP JUMPDEST SWAP3 POP DUP3 DUP3 SUB SWAP1 POP DUP2 DUP2 GT ISZERO PUSH2 0x3A1 JUMPI PUSH2 0x3A0 PUSH2 0x347 JUMP JUMPDEST JUMPDEST SWAP3 SWAP2 POP POP JUMP JUMPDEST PUSH32 0x4E487B7100000000000000000000000000000000000000000000000000000000 PUSH0 MSTORE PUSH1 0x32 PUSH1 0x4 MSTORE PUSH1 0x24 PUSH0 REVERT JUMPDEST PUSH0 PUSH2 0x3DE DUP3 PUSH2 0x26A JUMP JUMPDEST SWAP2 POP PUSH2 0x3E9 DUP4 PUSH2 0x26A JUMP JUMPDEST SWAP3 POP DUP3 DUP3 ADD SWAP1 POP DUP1 DUP3 GT ISZERO PUSH2 0x401 JUMPI PUSH2 0x400 PUSH2 0x347 JUMP JUMPDEST JUMPDEST SWAP3 SWAP2 POP POP JUMP JUMPDEST PUSH0 PUSH2 0x411 DUP3 PUSH2 0x26A JUMP JUMPDEST SWAP2 POP PUSH0 DUP3 SUB PUSH2 0x423 JUMPI PUSH2 0x422 PUSH2 0x347 JUMP JUMPDEST JUMPDEST PUSH1 0x1 DUP3 SUB SWAP1 POP SWAP2 SWAP1 POP JUMP INVALID LOG2 PUSH5 0x6970667358 0x22 SLT KECCAK256 0xE8 PUSH32 0x99A5B1E92278FA8F93A3D904CD9762C71440B21072B28F043EE9A5D1A4E66473 PUSH16 0x6C634300081E00330000000000000000 "
				},
				"gasEstimates": {
					"creation": {
						"codeDepositCost": "224800",
						"executionCost": "155653",
						"totalCost": "380453"
					},
					"external": {
						"setTransnum(string)": "infinite",
						"transnumToName(bytes1)": "2737"
					}
				},
				"methodIdentifiers": {
					"setTransnum(string)": "f704bbad",
					"transnumToName(bytes1)": "1e37bf8e"
				}
			},
			"storageLayout": {
				"storage": [
					{
						"astId": 5,
						"contract": ".deps/remix-tests/roma2number.sol:transnmber",
						"label": "transnumToName",
						"offset": 0,
						"slot": "0",
						"type": "t_mapping(t_bytes1,t_uint256)"
					}
				],
				"types": {
					"t_bytes1": {
						"encoding": "inplace",
						"label": "bytes1",
						"numberOfBytes": "1"
					},
					"t_mapping(t_bytes1,t_uint256)": {
						"encoding": "mapping",
						"key": "t_bytes1",
						"label": "mapping(bytes1 => uint256)",
						"numberOfBytes": "32",
						"value": "t_uint256"
					},
					"t_uint256": {
						"encoding": "inplace",
						"label": "uint256",
						"numberOfBytes": "32"
					}
				}
			},
			"userdoc": {
				"kind": "user",
				"methods": {},
				"version": 1
			}
		}
	}
}