{
	".deps/remix-tests/vetong.sol": {
		"voting": {
			"abi": [
				{
					"inputs": [],
					"stateMutability": "nonpayable",
					"type": "constructor"
				},
				{
					"anonymous": false,
					"inputs": [
						{
							"indexed": false,
							"internalType": "address",
							"name": "voter",
							"type": "address"
						},
						{
							"indexed": false,
							"internalType": "string",
							"name": "candidate",
							"type": "string"
						}
					],
					"name": "Voted",
					"type": "event"
				},
				{
					"anonymous": false,
					"inputs": [],
					"name": "VotesReset",
					"type": "event"
				},
				{
					"inputs": [
						{
							"internalType": "address",
							"name": "_address",
							"type": "address"
						},
						{
							"internalType": "string",
							"name": "_username",
							"type": "string"
						},
						{
							"internalType": "string",
							"name": "_gender",
							"type": "string"
						}
					],
					"name": "addCandidate",
					"outputs": [],
					"stateMutability": "nonpayable",
					"type": "function"
				},
				{
					"inputs": [
						{
							"internalType": "string",
							"name": "name1",
							"type": "string"
						}
					],
					"name": "addToCandidates",
					"outputs": [],
					"stateMutability": "nonpayable",
					"type": "function"
				},
				{
					"inputs": [
						{
							"internalType": "uint256",
							"name": "",
							"type": "uint256"
						}
					],
					"name": "candidates",
					"outputs": [
						{
							"internalType": "string",
							"name": "",
							"type": "string"
						}
					],
					"stateMutability": "view",
					"type": "function"
				},
				{
					"inputs": [
						{
							"internalType": "string",
							"name": "name1",
							"type": "string"
						}
					],
					"name": "getVotes",
					"outputs": [
						{
							"internalType": "uint256",
							"name": "",
							"type": "uint256"
						}
					],
					"stateMutability": "view",
					"type": "function"
				},
				{
					"inputs": [
						{
							"internalType": "address",
							"name": "",
							"type": "address"
						}
					],
					"name": "houMap",
					"outputs": [
						{
							"internalType": "string",
							"name": "username",
							"type": "string"
						},
						{
							"internalType": "string",
							"name": "gender",
							"type": "string"
						},
						{
							"internalType": "uint256",
							"name": "piao",
							"type": "uint256"
						}
					],
					"stateMutability": "view",
					"type": "function"
				},
				{
					"inputs": [],
					"name": "owner",
					"outputs": [
						{
							"internalType": "address",
							"name": "",
							"type": "address"
						}
					],
					"stateMutability": "view",
					"type": "function"
				},
				{
					"inputs": [],
					"name": "resetVotes",
					"outputs": [],
					"stateMutability": "nonpayable",
					"type": "function"
				},
				{
					"inputs": [
						{
							"internalType": "string",
							"name": "",
							"type": "string"
						},
						{
							"internalType": "address",
							"name": "",
							"type": "address"
						}
					],
					"name": "touMap",
					"outputs": [
						{
							"internalType": "bool",
							"name": "",
							"type": "bool"
						}
					],
					"stateMutability": "view",
					"type": "function"
				},
				{
					"inputs": [
						{
							"internalType": "string",
							"name": "name1",
							"type": "string"
						}
					],
					"name": "vote",
					"outputs": [
						{
							"internalType": "string",
							"name": "",
							"type": "string"
						}
					],
					"stateMutability": "nonpayable",
					"type": "function"
				}
			],
			"devdoc": {
				"kind": "dev",
				"methods": {},
				"version": 1
			},
			"evm": {
				"assembly": "    /* \".deps/remix-tests/vetong.sol\":61:2431  contract voting {... */\n  mstore(0x40, 0x80)\n    /* \".deps/remix-tests/vetong.sol\":211:262  constructor() {... */\n  callvalue\n  dup1\n  iszero\n  tag_1\n  jumpi\n  0x00\n  dup1\n  revert\ntag_1:\n  pop\n    /* \".deps/remix-tests/vetong.sol\":244:254  msg.sender */\n  caller\n    /* \".deps/remix-tests/vetong.sol\":236:241  owner */\n  0x00\n  dup1\n    /* \".deps/remix-tests/vetong.sol\":236:254  owner = msg.sender */\n  0x0100\n  exp\n  dup2\n  sload\n  dup2\n  0xffffffffffffffffffffffffffffffffffffffff\n  mul\n  not\n  and\n  swap1\n  dup4\n  0xffffffffffffffffffffffffffffffffffffffff\n  and\n  mul\n  or\n  swap1\n  sstore\n  pop\n    /* \".deps/remix-tests/vetong.sol\":61:2431  contract voting {... */\n  dataSize(sub_0)\n  dup1\n  dataOffset(sub_0)\n  0x00\n  codecopy\n  0x00\n  return\nstop\n\nsub_0: assembly {\n        /* \".deps/remix-tests/vetong.sol\":61:2431  contract voting {... */\n      mstore(0x40, 0x80)\n      callvalue\n      dup1\n      iszero\n      tag_1\n      jumpi\n      0x00\n      dup1\n      revert\n    tag_1:\n      pop\n      jumpi(tag_2, lt(calldatasize, 0x04))\n      shr(0xe0, calldataload(0x00))\n      dup1\n      0x9b60f2ff\n      gt\n      tag_12\n      jumpi\n      dup1\n      0x9b60f2ff\n      eq\n      tag_7\n      jumpi\n      dup1\n      0xb9830ff1\n      eq\n      tag_8\n      jumpi\n      dup1\n      0xe22a6231\n      eq\n      tag_9\n      jumpi\n      dup1\n      0xe7ff2844\n      eq\n      tag_10\n      jumpi\n      dup1\n      0xfc36e15b\n      eq\n      tag_11\n      jumpi\n      jump(tag_2)\n    tag_12:\n      dup1\n      0x3477ee2e\n      eq\n      tag_3\n      jumpi\n      dup1\n      0x5ab5237b\n      eq\n      tag_4\n      jumpi\n      dup1\n      0x805265e5\n      eq\n      tag_5\n      jumpi\n      dup1\n      0x8da5cb5b\n      eq\n      tag_6\n      jumpi\n    tag_2:\n      0x00\n      dup1\n      revert\n        /* \".deps/remix-tests/vetong.sol\":724:750  string[] public candidates */\n    tag_3:\n      tag_13\n      0x04\n      dup1\n      calldatasize\n      sub\n      dup2\n      add\n      swap1\n      tag_14\n      swap2\n      swap1\n      tag_15\n      jump\t// in\n    tag_14:\n      tag_16\n      jump\t// in\n    tag_13:\n      mload(0x40)\n      tag_17\n      swap2\n      swap1\n      tag_18\n      jump\t// in\n    tag_17:\n      mload(0x40)\n      dup1\n      swap2\n      sub\n      swap1\n      return\n        /* \".deps/remix-tests/vetong.sol\":592:649  mapping(string => mapping(address => bool)) public touMap */\n    tag_4:\n      tag_19\n      0x04\n      dup1\n      calldatasize\n      sub\n      dup2\n      add\n      swap1\n      tag_20\n      swap2\n      swap1\n      tag_21\n      jump\t// in\n    tag_20:\n      tag_22\n      jump\t// in\n    tag_19:\n      mload(0x40)\n      tag_23\n      swap2\n      swap1\n      tag_24\n      jump\t// in\n    tag_23:\n      mload(0x40)\n      dup1\n      swap2\n      sub\n      swap1\n      return\n        /* \".deps/remix-tests/vetong.sol\":1674:1865  function getVotes(string calldata name1) public view returns (uint) {... */\n    tag_5:\n      tag_25\n      0x04\n      dup1\n      calldatasize\n      sub\n      dup2\n      add\n      swap1\n      tag_26\n      swap2\n      swap1\n      tag_27\n      jump\t// in\n    tag_26:\n      tag_28\n      jump\t// in\n    tag_25:\n      mload(0x40)\n      tag_29\n      swap2\n      swap1\n      tag_30\n      jump\t// in\n    tag_29:\n      mload(0x40)\n      dup1\n      swap2\n      sub\n      swap1\n      return\n        /* \".deps/remix-tests/vetong.sol\":184:204  address public owner */\n    tag_6:\n      tag_31\n      tag_32\n      jump\t// in\n    tag_31:\n      mload(0x40)\n      tag_33\n      swap2\n      swap1\n      tag_34\n      jump\t// in\n    tag_33:\n      mload(0x40)\n      dup1\n      swap2\n      sub\n      swap1\n      return\n        /* \".deps/remix-tests/vetong.sol\":2322:2426  function addToCandidates(string memory name1) public onlyOwner {... */\n    tag_7:\n      tag_35\n      0x04\n      dup1\n      calldatasize\n      sub\n      dup2\n      add\n      swap1\n      tag_36\n      swap2\n      swap1\n      tag_37\n      jump\t// in\n    tag_36:\n      tag_38\n      jump\t// in\n    tag_35:\n      stop\n        /* \".deps/remix-tests/vetong.sol\":1875:2271  function resetVotes() public onlyOwner {... */\n    tag_8:\n      tag_39\n      tag_40\n      jump\t// in\n    tag_39:\n      stop\n        /* \".deps/remix-tests/vetong.sol\":789:953  function addCandidate(address _address, string memory _username, string memory _gender) public {... */\n    tag_9:\n      tag_41\n      0x04\n      dup1\n      calldatasize\n      sub\n      dup2\n      add\n      swap1\n      tag_42\n      swap2\n      swap1\n      tag_43\n      jump\t// in\n    tag_42:\n      tag_44\n      jump\t// in\n    tag_41:\n      stop\n        /* \".deps/remix-tests/vetong.sol\":487:531  mapping (address => houUsers) public  houMap */\n    tag_10:\n      tag_45\n      0x04\n      dup1\n      calldatasize\n      sub\n      dup2\n      add\n      swap1\n      tag_46\n      swap2\n      swap1\n      tag_47\n      jump\t// in\n    tag_46:\n      tag_48\n      jump\t// in\n    tag_45:\n      mload(0x40)\n      tag_49\n      swap4\n      swap3\n      swap2\n      swap1\n      tag_50\n      jump\t// in\n    tag_49:\n      mload(0x40)\n      dup1\n      swap2\n      sub\n      swap1\n      return\n        /* \".deps/remix-tests/vetong.sol\":981:1662  function vote (string calldata name1) external  returns (string memory ){... */\n    tag_11:\n      tag_51\n      0x04\n      dup1\n      calldatasize\n      sub\n      dup2\n      add\n      swap1\n      tag_52\n      swap2\n      swap1\n      tag_27\n      jump\t// in\n    tag_52:\n      tag_53\n      jump\t// in\n    tag_51:\n      mload(0x40)\n      tag_54\n      swap2\n      swap1\n      tag_18\n      jump\t// in\n    tag_54:\n      mload(0x40)\n      dup1\n      swap2\n      sub\n      swap1\n      return\n        /* \".deps/remix-tests/vetong.sol\":724:750  string[] public candidates */\n    tag_16:\n      0x03\n      dup2\n      dup2\n      sload\n      dup2\n      lt\n      tag_55\n      jumpi\n      0x00\n      dup1\n      revert\n    tag_55:\n      swap1\n      0x00\n      mstore\n      keccak256(0x00, 0x20)\n      add\n      0x00\n      swap2\n      pop\n      swap1\n      pop\n      dup1\n      sload\n      tag_57\n      swap1\n      tag_58\n      jump\t// in\n    tag_57:\n      dup1\n      0x1f\n      add\n      0x20\n      dup1\n      swap2\n      div\n      mul\n      0x20\n      add\n      mload(0x40)\n      swap1\n      dup2\n      add\n      0x40\n      mstore\n      dup1\n      swap3\n      swap2\n      swap1\n      dup2\n      dup2\n      mstore\n      0x20\n      add\n      dup3\n      dup1\n      sload\n      tag_59\n      swap1\n      tag_58\n      jump\t// in\n    tag_59:\n      dup1\n      iszero\n      tag_60\n      jumpi\n      dup1\n      0x1f\n      lt\n      tag_61\n      jumpi\n      0x0100\n      dup1\n      dup4\n      sload\n      div\n      mul\n      dup4\n      mstore\n      swap2\n      0x20\n      add\n      swap2\n      jump(tag_60)\n    tag_61:\n      dup3\n      add\n      swap2\n      swap1\n      0x00\n      mstore\n      keccak256(0x00, 0x20)\n      swap1\n    tag_62:\n      dup2\n      sload\n      dup2\n      mstore\n      swap1\n      0x01\n      add\n      swap1\n      0x20\n      add\n      dup1\n      dup4\n      gt\n      tag_62\n      jumpi\n      dup3\n      swap1\n      sub\n      0x1f\n      and\n      dup3\n      add\n      swap2\n    tag_60:\n      pop\n      pop\n      pop\n      pop\n      pop\n      dup2\n      jump\t// out\n        /* \".deps/remix-tests/vetong.sol\":592:649  mapping(string => mapping(address => bool)) public touMap */\n    tag_22:\n      0x02\n      dup3\n      dup1\n      mload\n      0x20\n      dup2\n      add\n      dup3\n      add\n      dup1\n      mload\n      dup5\n      dup3\n      mstore\n      0x20\n      dup4\n      add\n      0x20\n      dup6\n      add\n      keccak256\n      dup2\n      dup4\n      mstore\n      dup1\n      swap6\n      pop\n      pop\n      pop\n      pop\n      pop\n      pop\n      0x20\n      mstore\n      dup1\n      0x00\n      mstore\n      keccak256(0x00, 0x40)\n      0x00\n      swap2\n      pop\n      swap2\n      pop\n      swap1\n      sload\n      swap1\n      0x0100\n      exp\n      swap1\n      div\n      0xff\n      and\n      dup2\n      jump\t// out\n        /* \".deps/remix-tests/vetong.sol\":1674:1865  function getVotes(string calldata name1) public view returns (uint) {... */\n    tag_28:\n        /* \".deps/remix-tests/vetong.sol\":1736:1740  uint */\n      0x00\n        /* \".deps/remix-tests/vetong.sol\":1753:1777  address candidateAddress */\n      dup1\n        /* \".deps/remix-tests/vetong.sol\":1802:1807  name1 */\n      dup4\n      dup4\n        /* \".deps/remix-tests/vetong.sol\":1788:1809  bytes20(bytes(name1)) */\n      swap1\n      tag_64\n      swap2\n      swap1\n      tag_65\n      jump\t// in\n    tag_64:\n        /* \".deps/remix-tests/vetong.sol\":1780:1810  address(bytes20(bytes(name1))) */\n      0x60\n      shr\n        /* \".deps/remix-tests/vetong.sol\":1753:1810  address candidateAddress = address(bytes20(bytes(name1))) */\n      swap1\n      pop\n        /* \".deps/remix-tests/vetong.sol\":1828:1834  houMap */\n      0x01\n        /* \".deps/remix-tests/vetong.sol\":1828:1852  houMap[candidateAddress] */\n      0x00\n        /* \".deps/remix-tests/vetong.sol\":1835:1851  candidateAddress */\n      dup3\n        /* \".deps/remix-tests/vetong.sol\":1828:1852  houMap[candidateAddress] */\n      0xffffffffffffffffffffffffffffffffffffffff\n      and\n      0xffffffffffffffffffffffffffffffffffffffff\n      and\n      dup2\n      mstore\n      0x20\n      add\n      swap1\n      dup2\n      mstore\n      0x20\n      add\n      0x00\n      keccak256\n        /* \".deps/remix-tests/vetong.sol\":1828:1857  houMap[candidateAddress].piao */\n      0x02\n      add\n      sload\n        /* \".deps/remix-tests/vetong.sol\":1821:1857  return houMap[candidateAddress].piao */\n      swap2\n      pop\n      pop\n        /* \".deps/remix-tests/vetong.sol\":1674:1865  function getVotes(string calldata name1) public view returns (uint) {... */\n      swap3\n      swap2\n      pop\n      pop\n      jump\t// out\n        /* \".deps/remix-tests/vetong.sol\":184:204  address public owner */\n    tag_32:\n      0x00\n      dup1\n      sload\n      swap1\n      0x0100\n      exp\n      swap1\n      div\n      0xffffffffffffffffffffffffffffffffffffffff\n      and\n      dup2\n      jump\t// out\n        /* \".deps/remix-tests/vetong.sol\":2322:2426  function addToCandidates(string memory name1) public onlyOwner {... */\n    tag_38:\n        /* \".deps/remix-tests/vetong.sol\":324:329  owner */\n      0x00\n      dup1\n      sload\n      swap1\n      0x0100\n      exp\n      swap1\n      div\n      0xffffffffffffffffffffffffffffffffffffffff\n      and\n        /* \".deps/remix-tests/vetong.sol\":310:329  msg.sender == owner */\n      0xffffffffffffffffffffffffffffffffffffffff\n      and\n        /* \".deps/remix-tests/vetong.sol\":310:320  msg.sender */\n      caller\n        /* \".deps/remix-tests/vetong.sol\":310:329  msg.sender == owner */\n      0xffffffffffffffffffffffffffffffffffffffff\n      and\n      eq\n        /* \".deps/remix-tests/vetong.sol\":302:367  require(msg.sender == owner, \"Only owner can call this function\") */\n      tag_67\n      jumpi\n      mload(0x40)\n      0x08c379a000000000000000000000000000000000000000000000000000000000\n      dup2\n      mstore\n      0x04\n      add\n      tag_68\n      swap1\n      tag_69\n      jump\t// in\n    tag_68:\n      mload(0x40)\n      dup1\n      swap2\n      sub\n      swap1\n      revert\n    tag_67:\n        /* \".deps/remix-tests/vetong.sol\":2396:2406  candidates */\n      0x03\n        /* \".deps/remix-tests/vetong.sol\":2412:2417  name1 */\n      dup2\n        /* \".deps/remix-tests/vetong.sol\":2396:2418  candidates.push(name1) */\n      swap1\n      dup1\n      0x01\n      dup2\n      sload\n      add\n      dup1\n      dup3\n      sstore\n      dup1\n      swap2\n      pop\n      pop\n      0x01\n      swap1\n      sub\n      swap1\n      0x00\n      mstore\n      keccak256(0x00, 0x20)\n      add\n      0x00\n      swap1\n      swap2\n      swap1\n      swap2\n      swap1\n      swap2\n      pop\n      swap1\n      dup2\n      tag_72\n      swap2\n      swap1\n      tag_73\n      jump\t// in\n    tag_72:\n      pop\n        /* \".deps/remix-tests/vetong.sol\":2322:2426  function addToCandidates(string memory name1) public onlyOwner {... */\n      pop\n      jump\t// out\n        /* \".deps/remix-tests/vetong.sol\":1875:2271  function resetVotes() public onlyOwner {... */\n    tag_40:\n        /* \".deps/remix-tests/vetong.sol\":324:329  owner */\n      0x00\n      dup1\n      sload\n      swap1\n      0x0100\n      exp\n      swap1\n      div\n      0xffffffffffffffffffffffffffffffffffffffff\n      and\n        /* \".deps/remix-tests/vetong.sol\":310:329  msg.sender == owner */\n      0xffffffffffffffffffffffffffffffffffffffff\n      and\n        /* \".deps/remix-tests/vetong.sol\":310:320  msg.sender */\n      caller\n        /* \".deps/remix-tests/vetong.sol\":310:329  msg.sender == owner */\n      0xffffffffffffffffffffffffffffffffffffffff\n      and\n      eq\n        /* \".deps/remix-tests/vetong.sol\":302:367  require(msg.sender == owner, \"Only owner can call this function\") */\n      tag_75\n      jumpi\n      mload(0x40)\n      0x08c379a000000000000000000000000000000000000000000000000000000000\n      dup2\n      mstore\n      0x04\n      add\n      tag_76\n      swap1\n      tag_69\n      jump\t// in\n    tag_76:\n      mload(0x40)\n      dup1\n      swap2\n      sub\n      swap1\n      revert\n    tag_75:\n        /* \".deps/remix-tests/vetong.sol\":1930:1936  uint i */\n      0x00\n        /* \".deps/remix-tests/vetong.sol\":1925:2236  for (uint i = 0; i < candidates.length; i++) {... */\n    tag_78:\n        /* \".deps/remix-tests/vetong.sol\":1946:1956  candidates */\n      0x03\n        /* \".deps/remix-tests/vetong.sol\":1946:1963  candidates.length */\n      dup1\n      sload\n      swap1\n      pop\n        /* \".deps/remix-tests/vetong.sol\":1942:1943  i */\n      dup2\n        /* \".deps/remix-tests/vetong.sol\":1942:1963  i < candidates.length */\n      lt\n        /* \".deps/remix-tests/vetong.sol\":1925:2236  for (uint i = 0; i < candidates.length; i++) {... */\n      iszero\n      tag_79\n      jumpi\n        /* \".deps/remix-tests/vetong.sol\":1985:2009  address candidateAddress */\n      0x00\n        /* \".deps/remix-tests/vetong.sol\":2034:2044  candidates */\n      0x03\n        /* \".deps/remix-tests/vetong.sol\":2045:2046  i */\n      dup3\n        /* \".deps/remix-tests/vetong.sol\":2034:2047  candidates[i] */\n      dup2\n      sload\n      dup2\n      lt\n      tag_81\n      jumpi\n      tag_82\n      tag_83\n      jump\t// in\n    tag_82:\n    tag_81:\n      swap1\n      0x00\n      mstore\n      keccak256(0x00, 0x20)\n      add\n        /* \".deps/remix-tests/vetong.sol\":2020:2049  bytes20(bytes(candidates[i])) */\n      tag_85\n      swap1\n      tag_86\n      jump\t// in\n    tag_85:\n        /* \".deps/remix-tests/vetong.sol\":2012:2050  address(bytes20(bytes(candidates[i]))) */\n      0x60\n      shr\n        /* \".deps/remix-tests/vetong.sol\":1985:2050  address candidateAddress = address(bytes20(bytes(candidates[i]))) */\n      swap1\n      pop\n        /* \".deps/remix-tests/vetong.sol\":2097:2098  0 */\n      0x00\n        /* \".deps/remix-tests/vetong.sol\":2065:2071  houMap */\n      0x01\n        /* \".deps/remix-tests/vetong.sol\":2065:2089  houMap[candidateAddress] */\n      0x00\n        /* \".deps/remix-tests/vetong.sol\":2072:2088  candidateAddress */\n      dup4\n        /* \".deps/remix-tests/vetong.sol\":2065:2089  houMap[candidateAddress] */\n      0xffffffffffffffffffffffffffffffffffffffff\n      and\n      0xffffffffffffffffffffffffffffffffffffffff\n      and\n      dup2\n      mstore\n      0x20\n      add\n      swap1\n      dup2\n      mstore\n      0x20\n      add\n      0x00\n      keccak256\n        /* \".deps/remix-tests/vetong.sol\":2065:2094  houMap[candidateAddress].piao */\n      0x02\n      add\n        /* \".deps/remix-tests/vetong.sol\":2065:2098  houMap[candidateAddress].piao = 0 */\n      dup2\n      swap1\n      sstore\n      pop\n        /* \".deps/remix-tests/vetong.sol\":1970:2236  {... */\n      pop\n        /* \".deps/remix-tests/vetong.sol\":1965:1968  i++ */\n      dup1\n      dup1\n      0x01\n      add\n      swap2\n      pop\n      pop\n        /* \".deps/remix-tests/vetong.sol\":1925:2236  for (uint i = 0; i < candidates.length; i++) {... */\n      jump(tag_78)\n    tag_79:\n      pop\n        /* \".deps/remix-tests/vetong.sol\":2251:2263  VotesReset() */\n      0x181116b640e6a324b012ab99d433f09debd8232185d611ebed62cfb16f06a4c4\n      mload(0x40)\n      mload(0x40)\n      dup1\n      swap2\n      sub\n      swap1\n      log1\n        /* \".deps/remix-tests/vetong.sol\":1875:2271  function resetVotes() public onlyOwner {... */\n      jump\t// out\n        /* \".deps/remix-tests/vetong.sol\":789:953  function addCandidate(address _address, string memory _username, string memory _gender) public {... */\n    tag_44:\n        /* \".deps/remix-tests/vetong.sol\":914:945  houUsers(_username, _gender, 0) */\n      mload(0x40)\n      dup1\n      0x60\n      add\n      0x40\n      mstore\n      dup1\n        /* \".deps/remix-tests/vetong.sol\":923:932  _username */\n      dup4\n        /* \".deps/remix-tests/vetong.sol\":914:945  houUsers(_username, _gender, 0) */\n      dup2\n      mstore\n      0x20\n      add\n        /* \".deps/remix-tests/vetong.sol\":934:941  _gender */\n      dup3\n        /* \".deps/remix-tests/vetong.sol\":914:945  houUsers(_username, _gender, 0) */\n      dup2\n      mstore\n      0x20\n      add\n        /* \".deps/remix-tests/vetong.sol\":943:944  0 */\n      0x00\n        /* \".deps/remix-tests/vetong.sol\":914:945  houUsers(_username, _gender, 0) */\n      dup2\n      mstore\n      pop\n        /* \".deps/remix-tests/vetong.sol\":895:901  houMap */\n      0x01\n        /* \".deps/remix-tests/vetong.sol\":895:911  houMap[_address] */\n      0x00\n        /* \".deps/remix-tests/vetong.sol\":902:910  _address */\n      dup6\n        /* \".deps/remix-tests/vetong.sol\":895:911  houMap[_address] */\n      0xffffffffffffffffffffffffffffffffffffffff\n      and\n      0xffffffffffffffffffffffffffffffffffffffff\n      and\n      dup2\n      mstore\n      0x20\n      add\n      swap1\n      dup2\n      mstore\n      0x20\n      add\n      0x00\n      keccak256\n        /* \".deps/remix-tests/vetong.sol\":895:945  houMap[_address] = houUsers(_username, _gender, 0) */\n      0x00\n      dup3\n      add\n      mload\n      dup2\n      0x00\n      add\n      swap1\n      dup2\n      tag_88\n      swap2\n      swap1\n      tag_73\n      jump\t// in\n    tag_88:\n      pop\n      0x20\n      dup3\n      add\n      mload\n      dup2\n      0x01\n      add\n      swap1\n      dup2\n      tag_89\n      swap2\n      swap1\n      tag_73\n      jump\t// in\n    tag_89:\n      pop\n      0x40\n      dup3\n      add\n      mload\n      dup2\n      0x02\n      add\n      sstore\n      swap1\n      pop\n      pop\n        /* \".deps/remix-tests/vetong.sol\":789:953  function addCandidate(address _address, string memory _username, string memory _gender) public {... */\n      pop\n      pop\n      pop\n      jump\t// out\n        /* \".deps/remix-tests/vetong.sol\":487:531  mapping (address => houUsers) public  houMap */\n    tag_48:\n      mstore(0x20, 0x01)\n      dup1\n      0x00\n      mstore\n      keccak256(0x00, 0x40)\n      0x00\n      swap2\n      pop\n      swap1\n      pop\n      dup1\n      0x00\n      add\n      dup1\n      sload\n      tag_90\n      swap1\n      tag_58\n      jump\t// in\n    tag_90:\n      dup1\n      0x1f\n      add\n      0x20\n      dup1\n      swap2\n      div\n      mul\n      0x20\n      add\n      mload(0x40)\n      swap1\n      dup2\n      add\n      0x40\n      mstore\n      dup1\n      swap3\n      swap2\n      swap1\n      dup2\n      dup2\n      mstore\n      0x20\n      add\n      dup3\n      dup1\n      sload\n      tag_91\n      swap1\n      tag_58\n      jump\t// in\n    tag_91:\n      dup1\n      iszero\n      tag_92\n      jumpi\n      dup1\n      0x1f\n      lt\n      tag_93\n      jumpi\n      0x0100\n      dup1\n      dup4\n      sload\n      div\n      mul\n      dup4\n      mstore\n      swap2\n      0x20\n      add\n      swap2\n      jump(tag_92)\n    tag_93:\n      dup3\n      add\n      swap2\n      swap1\n      0x00\n      mstore\n      keccak256(0x00, 0x20)\n      swap1\n    tag_94:\n      dup2\n      sload\n      dup2\n      mstore\n      swap1\n      0x01\n      add\n      swap1\n      0x20\n      add\n      dup1\n      dup4\n      gt\n      tag_94\n      jumpi\n      dup3\n      swap1\n      sub\n      0x1f\n      and\n      dup3\n      add\n      swap2\n    tag_92:\n      pop\n      pop\n      pop\n      pop\n      pop\n      swap1\n      dup1\n      0x01\n      add\n      dup1\n      sload\n      tag_95\n      swap1\n      tag_58\n      jump\t// in\n    tag_95:\n      dup1\n      0x1f\n      add\n      0x20\n      dup1\n      swap2\n      div\n      mul\n      0x20\n      add\n      mload(0x40)\n      swap1\n      dup2\n      add\n      0x40\n      mstore\n      dup1\n      swap3\n      swap2\n      swap1\n      dup2\n      dup2\n      mstore\n      0x20\n      add\n      dup3\n      dup1\n      sload\n      tag_96\n      swap1\n      tag_58\n      jump\t// in\n    tag_96:\n      dup1\n      iszero\n      tag_97\n      jumpi\n      dup1\n      0x1f\n      lt\n      tag_98\n      jumpi\n      0x0100\n      dup1\n      dup4\n      sload\n      div\n      mul\n      dup4\n      mstore\n      swap2\n      0x20\n      add\n      swap2\n      jump(tag_97)\n    tag_98:\n      dup3\n      add\n      swap2\n      swap1\n      0x00\n      mstore\n      keccak256(0x00, 0x20)\n      swap1\n    tag_99:\n      dup2\n      sload\n      dup2\n      mstore\n      swap1\n      0x01\n      add\n      swap1\n      0x20\n      add\n      dup1\n      dup4\n      gt\n      tag_99\n      jumpi\n      dup3\n      swap1\n      sub\n      0x1f\n      and\n      dup3\n      add\n      swap2\n    tag_97:\n      pop\n      pop\n      pop\n      pop\n      pop\n      swap1\n      dup1\n      0x02\n      add\n      sload\n      swap1\n      pop\n      dup4\n      jump\t// out\n        /* \".deps/remix-tests/vetong.sol\":981:1662  function vote (string calldata name1) external  returns (string memory ){... */\n    tag_53:\n        /* \".deps/remix-tests/vetong.sol\":1038:1051  string memory */\n      0x60\n        /* \".deps/remix-tests/vetong.sol\":1141:1142  0 */\n      0x00\n        /* \".deps/remix-tests/vetong.sol\":1102:1108  houMap */\n      0x01\n        /* \".deps/remix-tests/vetong.sol\":1102:1120  houMap[msg.sender] */\n      0x00\n        /* \".deps/remix-tests/vetong.sol\":1109:1119  msg.sender */\n      caller\n        /* \".deps/remix-tests/vetong.sol\":1102:1120  houMap[msg.sender] */\n      0xffffffffffffffffffffffffffffffffffffffff\n      and\n      0xffffffffffffffffffffffffffffffffffffffff\n      and\n      dup2\n      mstore\n      0x20\n      add\n      swap1\n      dup2\n      mstore\n      0x20\n      add\n      0x00\n      keccak256\n        /* \".deps/remix-tests/vetong.sol\":1102:1129  houMap[msg.sender].username */\n      0x00\n      add\n        /* \".deps/remix-tests/vetong.sol\":1096:1137  bytes(houMap[msg.sender].username).length */\n      dup1\n      sload\n      tag_101\n      swap1\n      tag_58\n      jump\t// in\n    tag_101:\n      swap1\n      pop\n        /* \".deps/remix-tests/vetong.sol\":1096:1142  bytes(houMap[msg.sender].username).length != 0 */\n      sub\n        /* \".deps/remix-tests/vetong.sol\":1088:1167  require(bytes(houMap[msg.sender].username).length != 0, \"Voter not registered\") */\n      tag_102\n      jumpi\n      mload(0x40)\n      0x08c379a000000000000000000000000000000000000000000000000000000000\n      dup2\n      mstore\n      0x04\n      add\n      tag_103\n      swap1\n      tag_104\n      jump\t// in\n    tag_103:\n      mload(0x40)\n      dup1\n      swap2\n      sub\n      swap1\n      revert\n    tag_102:\n        /* \".deps/remix-tests/vetong.sol\":1226:1232  touMap */\n      0x02\n        /* \".deps/remix-tests/vetong.sol\":1233:1238  name1 */\n      dup4\n      dup4\n        /* \".deps/remix-tests/vetong.sol\":1226:1239  touMap[name1] */\n      mload(0x40)\n      tag_105\n      swap3\n      swap2\n      swap1\n      tag_106\n      jump\t// in\n    tag_105:\n      swap1\n      dup2\n      mstore\n      0x20\n      add\n      mload(0x40)\n      dup1\n      swap2\n      sub\n      swap1\n      keccak256\n        /* \".deps/remix-tests/vetong.sol\":1226:1251  touMap[name1][msg.sender] */\n      0x00\n        /* \".deps/remix-tests/vetong.sol\":1240:1250  msg.sender */\n      caller\n        /* \".deps/remix-tests/vetong.sol\":1226:1251  touMap[name1][msg.sender] */\n      0xffffffffffffffffffffffffffffffffffffffff\n      and\n      0xffffffffffffffffffffffffffffffffffffffff\n      and\n      dup2\n      mstore\n      0x20\n      add\n      swap1\n      dup2\n      mstore\n      0x20\n      add\n      0x00\n      keccak256\n      0x00\n      swap1\n      sload\n      swap1\n      0x0100\n      exp\n      swap1\n      div\n      0xff\n      and\n        /* \".deps/remix-tests/vetong.sol\":1225:1251  !touMap[name1][msg.sender] */\n      iszero\n        /* \".deps/remix-tests/vetong.sol\":1217:1297  require(!touMap[name1][msg.sender], \"You have already voted for this candidate\") */\n      tag_107\n      jumpi\n      mload(0x40)\n      0x08c379a000000000000000000000000000000000000000000000000000000000\n      dup2\n      mstore\n      0x04\n      add\n      tag_108\n      swap1\n      tag_109\n      jump\t// in\n    tag_108:\n      mload(0x40)\n      dup1\n      swap2\n      sub\n      swap1\n      revert\n    tag_107:\n        /* \".deps/remix-tests/vetong.sol\":1360:1364  true */\n      0x01\n        /* \".deps/remix-tests/vetong.sol\":1332:1338  touMap */\n      0x02\n        /* \".deps/remix-tests/vetong.sol\":1339:1344  name1 */\n      dup5\n      dup5\n        /* \".deps/remix-tests/vetong.sol\":1332:1345  touMap[name1] */\n      mload(0x40)\n      tag_110\n      swap3\n      swap2\n      swap1\n      tag_106\n      jump\t// in\n    tag_110:\n      swap1\n      dup2\n      mstore\n      0x20\n      add\n      mload(0x40)\n      dup1\n      swap2\n      sub\n      swap1\n      keccak256\n        /* \".deps/remix-tests/vetong.sol\":1332:1357  touMap[name1][msg.sender] */\n      0x00\n        /* \".deps/remix-tests/vetong.sol\":1346:1356  msg.sender */\n      caller\n        /* \".deps/remix-tests/vetong.sol\":1332:1357  touMap[name1][msg.sender] */\n      0xffffffffffffffffffffffffffffffffffffffff\n      and\n      0xffffffffffffffffffffffffffffffffffffffff\n      and\n      dup2\n      mstore\n      0x20\n      add\n      swap1\n      dup2\n      mstore\n      0x20\n      add\n      0x00\n      keccak256\n      0x00\n        /* \".deps/remix-tests/vetong.sol\":1332:1364  touMap[name1][msg.sender] = true */\n      0x0100\n      exp\n      dup2\n      sload\n      dup2\n      0xff\n      mul\n      not\n      and\n      swap1\n      dup4\n      iszero\n      iszero\n      mul\n      or\n      swap1\n      sstore\n      pop\n        /* \".deps/remix-tests/vetong.sol\":1429:1430  0 */\n      0x00\n        /* \".deps/remix-tests/vetong.sol\":1382:1388  houMap */\n      0x01\n        /* \".deps/remix-tests/vetong.sol\":1382:1420  houMap[address(bytes20(bytes(name1)))] */\n      0x00\n        /* \".deps/remix-tests/vetong.sol\":1411:1416  name1 */\n      dup6\n      dup6\n        /* \".deps/remix-tests/vetong.sol\":1397:1418  bytes20(bytes(name1)) */\n      swap1\n      tag_111\n      swap2\n      swap1\n      tag_65\n      jump\t// in\n    tag_111:\n        /* \".deps/remix-tests/vetong.sol\":1389:1419  address(bytes20(bytes(name1))) */\n      0x60\n      shr\n        /* \".deps/remix-tests/vetong.sol\":1382:1420  houMap[address(bytes20(bytes(name1)))] */\n      0xffffffffffffffffffffffffffffffffffffffff\n      and\n      0xffffffffffffffffffffffffffffffffffffffff\n      and\n      dup2\n      mstore\n      0x20\n      add\n      swap1\n      dup2\n      mstore\n      0x20\n      add\n      0x00\n      keccak256\n        /* \".deps/remix-tests/vetong.sol\":1382:1425  houMap[address(bytes20(bytes(name1)))].piao */\n      0x02\n      add\n      sload\n        /* \".deps/remix-tests/vetong.sol\":1382:1430  houMap[address(bytes20(bytes(name1)))].piao == 0 */\n      sub\n        /* \".deps/remix-tests/vetong.sol\":1378:1481  if (houMap[address(bytes20(bytes(name1)))].piao == 0) {... */\n      tag_112\n      jumpi\n        /* \".deps/remix-tests/vetong.sol\":1447:1457  candidates */\n      0x03\n        /* \".deps/remix-tests/vetong.sol\":1463:1468  name1 */\n      dup4\n      dup4\n        /* \".deps/remix-tests/vetong.sol\":1447:1469  candidates.push(name1) */\n      swap1\n      swap2\n      dup1\n      0x01\n      dup2\n      sload\n      add\n      dup1\n      dup3\n      sstore\n      dup1\n      swap2\n      pop\n      pop\n      0x01\n      swap1\n      sub\n      swap1\n      0x00\n      mstore\n      keccak256(0x00, 0x20)\n      add\n      0x00\n      swap1\n      swap2\n      swap3\n      swap1\n      swap2\n      swap3\n      swap1\n      swap2\n      swap3\n      swap1\n      swap2\n      swap3\n      pop\n      swap2\n      dup3\n      tag_114\n      swap3\n      swap2\n      swap1\n      tag_115\n      jump\t// in\n    tag_114:\n      pop\n        /* \".deps/remix-tests/vetong.sol\":1378:1481  if (houMap[address(bytes20(bytes(name1)))].piao == 0) {... */\n    tag_112:\n        /* \".deps/remix-tests/vetong.sol\":1491:1515  address candidateAddress */\n      0x00\n        /* \".deps/remix-tests/vetong.sol\":1540:1545  name1 */\n      dup4\n      dup4\n        /* \".deps/remix-tests/vetong.sol\":1526:1547  bytes20(bytes(name1)) */\n      swap1\n      tag_116\n      swap2\n      swap1\n      tag_65\n      jump\t// in\n    tag_116:\n        /* \".deps/remix-tests/vetong.sol\":1518:1548  address(bytes20(bytes(name1))) */\n      0x60\n      shr\n        /* \".deps/remix-tests/vetong.sol\":1491:1548  address candidateAddress = address(bytes20(bytes(name1))) */\n      swap1\n      pop\n        /* \".deps/remix-tests/vetong.sol\":1592:1593  1 */\n      0x01\n        /* \".deps/remix-tests/vetong.sol\":1559:1565  houMap */\n      dup1\n        /* \".deps/remix-tests/vetong.sol\":1559:1583  houMap[candidateAddress] */\n      0x00\n        /* \".deps/remix-tests/vetong.sol\":1566:1582  candidateAddress */\n      dup4\n        /* \".deps/remix-tests/vetong.sol\":1559:1583  houMap[candidateAddress] */\n      0xffffffffffffffffffffffffffffffffffffffff\n      and\n      0xffffffffffffffffffffffffffffffffffffffff\n      and\n      dup2\n      mstore\n      0x20\n      add\n      swap1\n      dup2\n      mstore\n      0x20\n      add\n      0x00\n      keccak256\n        /* \".deps/remix-tests/vetong.sol\":1559:1588  houMap[candidateAddress].piao */\n      0x02\n      add\n      0x00\n        /* \".deps/remix-tests/vetong.sol\":1559:1593  houMap[candidateAddress].piao += 1 */\n      dup3\n      dup3\n      sload\n      tag_117\n      swap2\n      swap1\n      tag_118\n      jump\t// in\n    tag_117:\n      swap3\n      pop\n      pop\n      dup2\n      swap1\n      sstore\n      pop\n        /* \".deps/remix-tests/vetong.sol\":1609:1633  Voted(msg.sender, name1) */\n      0xcb6783276e8a4347387036bbfea000268f0a4b1f8c46ac79980609f2af8d2acd\n        /* \".deps/remix-tests/vetong.sol\":1615:1625  msg.sender */\n      caller\n        /* \".deps/remix-tests/vetong.sol\":1627:1632  name1 */\n      dup6\n      dup6\n        /* \".deps/remix-tests/vetong.sol\":1609:1633  Voted(msg.sender, name1) */\n      mload(0x40)\n      tag_119\n      swap4\n      swap3\n      swap2\n      swap1\n      tag_120\n      jump\t// in\n    tag_119:\n      mload(0x40)\n      dup1\n      swap2\n      sub\n      swap1\n      log1\n        /* \".deps/remix-tests/vetong.sol\":1643:1654  return \"ok\" */\n      mload(0x40)\n      dup1\n      0x40\n      add\n      0x40\n      mstore\n      dup1\n      0x02\n      dup2\n      mstore\n      0x20\n      add\n      0x6f6b000000000000000000000000000000000000000000000000000000000000\n      dup2\n      mstore\n      pop\n      swap2\n      pop\n      pop\n        /* \".deps/remix-tests/vetong.sol\":981:1662  function vote (string calldata name1) external  returns (string memory ){... */\n      swap3\n      swap2\n      pop\n      pop\n      jump\t// out\n        /* \"#utility.yul\":7:82   */\n    tag_121:\n        /* \"#utility.yul\":40:46   */\n      0x00\n        /* \"#utility.yul\":73:75   */\n      0x40\n        /* \"#utility.yul\":67:76   */\n      mload\n        /* \"#utility.yul\":57:76   */\n      swap1\n      pop\n        /* \"#utility.yul\":7:82   */\n      swap1\n      jump\t// out\n        /* \"#utility.yul\":88:205   */\n    tag_122:\n        /* \"#utility.yul\":197:198   */\n      0x00\n        /* \"#utility.yul\":194:195   */\n      dup1\n        /* \"#utility.yul\":187:199   */\n      revert\n        /* \"#utility.yul\":211:328   */\n    tag_123:\n        /* \"#utility.yul\":320:321   */\n      0x00\n        /* \"#utility.yul\":317:318   */\n      dup1\n        /* \"#utility.yul\":310:322   */\n      revert\n        /* \"#utility.yul\":334:411   */\n    tag_124:\n        /* \"#utility.yul\":371:378   */\n      0x00\n        /* \"#utility.yul\":400:405   */\n      dup2\n        /* \"#utility.yul\":389:405   */\n      swap1\n      pop\n        /* \"#utility.yul\":334:411   */\n      swap2\n      swap1\n      pop\n      jump\t// out\n        /* \"#utility.yul\":417:539   */\n    tag_125:\n        /* \"#utility.yul\":490:514   */\n      tag_195\n        /* \"#utility.yul\":508:513   */\n      dup2\n        /* \"#utility.yul\":490:514   */\n      tag_124\n      jump\t// in\n    tag_195:\n        /* \"#utility.yul\":483:488   */\n      dup2\n        /* \"#utility.yul\":480:515   */\n      eq\n        /* \"#utility.yul\":470:533   */\n      tag_196\n      jumpi\n        /* \"#utility.yul\":529:530   */\n      0x00\n        /* \"#utility.yul\":526:527   */\n      dup1\n        /* \"#utility.yul\":519:531   */\n      revert\n        /* \"#utility.yul\":470:533   */\n    tag_196:\n        /* \"#utility.yul\":417:539   */\n      pop\n      jump\t// out\n        /* \"#utility.yul\":545:684   */\n    tag_126:\n        /* \"#utility.yul\":591:596   */\n      0x00\n        /* \"#utility.yul\":629:635   */\n      dup2\n        /* \"#utility.yul\":616:636   */\n      calldataload\n        /* \"#utility.yul\":607:636   */\n      swap1\n      pop\n        /* \"#utility.yul\":645:678   */\n      tag_198\n        /* \"#utility.yul\":672:677   */\n      dup2\n        /* \"#utility.yul\":645:678   */\n      tag_125\n      jump\t// in\n    tag_198:\n        /* \"#utility.yul\":545:684   */\n      swap3\n      swap2\n      pop\n      pop\n      jump\t// out\n        /* \"#utility.yul\":690:1019   */\n    tag_15:\n        /* \"#utility.yul\":749:755   */\n      0x00\n        /* \"#utility.yul\":798:800   */\n      0x20\n        /* \"#utility.yul\":786:795   */\n      dup3\n        /* \"#utility.yul\":777:784   */\n      dup5\n        /* \"#utility.yul\":773:796   */\n      sub\n        /* \"#utility.yul\":769:801   */\n      slt\n        /* \"#utility.yul\":766:885   */\n      iszero\n      tag_200\n      jumpi\n        /* \"#utility.yul\":804:883   */\n      tag_201\n      tag_122\n      jump\t// in\n    tag_201:\n        /* \"#utility.yul\":766:885   */\n    tag_200:\n        /* \"#utility.yul\":924:925   */\n      0x00\n        /* \"#utility.yul\":949:1002   */\n      tag_202\n        /* \"#utility.yul\":994:1001   */\n      dup5\n        /* \"#utility.yul\":985:991   */\n      dup3\n        /* \"#utility.yul\":974:983   */\n      dup6\n        /* \"#utility.yul\":970:992   */\n      add\n        /* \"#utility.yul\":949:1002   */\n      tag_126\n      jump\t// in\n    tag_202:\n        /* \"#utility.yul\":939:1002   */\n      swap2\n      pop\n        /* \"#utility.yul\":895:1012   */\n      pop\n        /* \"#utility.yul\":690:1019   */\n      swap3\n      swap2\n      pop\n      pop\n      jump\t// out\n        /* \"#utility.yul\":1025:1124   */\n    tag_127:\n        /* \"#utility.yul\":1077:1083   */\n      0x00\n        /* \"#utility.yul\":1111:1116   */\n      dup2\n        /* \"#utility.yul\":1105:1117   */\n      mload\n        /* \"#utility.yul\":1095:1117   */\n      swap1\n      pop\n        /* \"#utility.yul\":1025:1124   */\n      swap2\n      swap1\n      pop\n      jump\t// out\n        /* \"#utility.yul\":1130:1299   */\n    tag_128:\n        /* \"#utility.yul\":1214:1225   */\n      0x00\n        /* \"#utility.yul\":1248:1254   */\n      dup3\n        /* \"#utility.yul\":1243:1246   */\n      dup3\n        /* \"#utility.yul\":1236:1255   */\n      mstore\n        /* \"#utility.yul\":1288:1292   */\n      0x20\n        /* \"#utility.yul\":1283:1286   */\n      dup3\n        /* \"#utility.yul\":1279:1293   */\n      add\n        /* \"#utility.yul\":1264:1293   */\n      swap1\n      pop\n        /* \"#utility.yul\":1130:1299   */\n      swap3\n      swap2\n      pop\n      pop\n      jump\t// out\n        /* \"#utility.yul\":1305:1444   */\n    tag_129:\n        /* \"#utility.yul\":1394:1400   */\n      dup3\n        /* \"#utility.yul\":1389:1392   */\n      dup2\n        /* \"#utility.yul\":1384:1387   */\n      dup4\n        /* \"#utility.yul\":1378:1401   */\n      mcopy\n        /* \"#utility.yul\":1435:1436   */\n      0x00\n        /* \"#utility.yul\":1426:1432   */\n      dup4\n        /* \"#utility.yul\":1421:1424   */\n      dup4\n        /* \"#utility.yul\":1417:1433   */\n      add\n        /* \"#utility.yul\":1410:1437   */\n      mstore\n        /* \"#utility.yul\":1305:1444   */\n      pop\n      pop\n      pop\n      jump\t// out\n        /* \"#utility.yul\":1450:1552   */\n    tag_130:\n        /* \"#utility.yul\":1491:1497   */\n      0x00\n        /* \"#utility.yul\":1542:1544   */\n      0x1f\n        /* \"#utility.yul\":1538:1545   */\n      not\n        /* \"#utility.yul\":1533:1535   */\n      0x1f\n        /* \"#utility.yul\":1526:1531   */\n      dup4\n        /* \"#utility.yul\":1522:1536   */\n      add\n        /* \"#utility.yul\":1518:1546   */\n      and\n        /* \"#utility.yul\":1508:1546   */\n      swap1\n      pop\n        /* \"#utility.yul\":1450:1552   */\n      swap2\n      swap1\n      pop\n      jump\t// out\n        /* \"#utility.yul\":1558:1935   */\n    tag_131:\n        /* \"#utility.yul\":1646:1649   */\n      0x00\n        /* \"#utility.yul\":1674:1713   */\n      tag_208\n        /* \"#utility.yul\":1707:1712   */\n      dup3\n        /* \"#utility.yul\":1674:1713   */\n      tag_127\n      jump\t// in\n    tag_208:\n        /* \"#utility.yul\":1729:1800   */\n      tag_209\n        /* \"#utility.yul\":1793:1799   */\n      dup2\n        /* \"#utility.yul\":1788:1791   */\n      dup6\n        /* \"#utility.yul\":1729:1800   */\n      tag_128\n      jump\t// in\n    tag_209:\n        /* \"#utility.yul\":1722:1800   */\n      swap4\n      pop\n        /* \"#utility.yul\":1809:1874   */\n      tag_210\n        /* \"#utility.yul\":1867:1873   */\n      dup2\n        /* \"#utility.yul\":1862:1865   */\n      dup6\n        /* \"#utility.yul\":1855:1859   */\n      0x20\n        /* \"#utility.yul\":1848:1853   */\n      dup7\n        /* \"#utility.yul\":1844:1860   */\n      add\n        /* \"#utility.yul\":1809:1874   */\n      tag_129\n      jump\t// in\n    tag_210:\n        /* \"#utility.yul\":1899:1928   */\n      tag_211\n        /* \"#utility.yul\":1921:1927   */\n      dup2\n        /* \"#utility.yul\":1899:1928   */\n      tag_130\n      jump\t// in\n    tag_211:\n        /* \"#utility.yul\":1894:1897   */\n      dup5\n        /* \"#utility.yul\":1890:1929   */\n      add\n        /* \"#utility.yul\":1883:1929   */\n      swap2\n      pop\n        /* \"#utility.yul\":1650:1935   */\n      pop\n        /* \"#utility.yul\":1558:1935   */\n      swap3\n      swap2\n      pop\n      pop\n      jump\t// out\n        /* \"#utility.yul\":1941:2254   */\n    tag_18:\n        /* \"#utility.yul\":2054:2058   */\n      0x00\n        /* \"#utility.yul\":2092:2094   */\n      0x20\n        /* \"#utility.yul\":2081:2090   */\n      dup3\n        /* \"#utility.yul\":2077:2095   */\n      add\n        /* \"#utility.yul\":2069:2095   */\n      swap1\n      pop\n        /* \"#utility.yul\":2141:2150   */\n      dup2\n        /* \"#utility.yul\":2135:2139   */\n      dup2\n        /* \"#utility.yul\":2131:2151   */\n      sub\n        /* \"#utility.yul\":2127:2128   */\n      0x00\n        /* \"#utility.yul\":2116:2125   */\n      dup4\n        /* \"#utility.yul\":2112:2129   */\n      add\n        /* \"#utility.yul\":2105:2152   */\n      mstore\n        /* \"#utility.yul\":2169:2247   */\n      tag_213\n        /* \"#utility.yul\":2242:2246   */\n      dup2\n        /* \"#utility.yul\":2233:2239   */\n      dup5\n        /* \"#utility.yul\":2169:2247   */\n      tag_131\n      jump\t// in\n    tag_213:\n        /* \"#utility.yul\":2161:2247   */\n      swap1\n      pop\n        /* \"#utility.yul\":1941:2254   */\n      swap3\n      swap2\n      pop\n      pop\n      jump\t// out\n        /* \"#utility.yul\":2260:2377   */\n    tag_132:\n        /* \"#utility.yul\":2369:2370   */\n      0x00\n        /* \"#utility.yul\":2366:2367   */\n      dup1\n        /* \"#utility.yul\":2359:2371   */\n      revert\n        /* \"#utility.yul\":2383:2500   */\n    tag_133:\n        /* \"#utility.yul\":2492:2493   */\n      0x00\n        /* \"#utility.yul\":2489:2490   */\n      dup1\n        /* \"#utility.yul\":2482:2494   */\n      revert\n        /* \"#utility.yul\":2506:2686   */\n    tag_134:\n        /* \"#utility.yul\":2554:2631   */\n      0x4e487b7100000000000000000000000000000000000000000000000000000000\n        /* \"#utility.yul\":2551:2552   */\n      0x00\n        /* \"#utility.yul\":2544:2632   */\n      mstore\n        /* \"#utility.yul\":2651:2655   */\n      0x41\n        /* \"#utility.yul\":2648:2649   */\n      0x04\n        /* \"#utility.yul\":2641:2656   */\n      mstore\n        /* \"#utility.yul\":2675:2679   */\n      0x24\n        /* \"#utility.yul\":2672:2673   */\n      0x00\n        /* \"#utility.yul\":2665:2680   */\n      revert\n        /* \"#utility.yul\":2692:2973   */\n    tag_135:\n        /* \"#utility.yul\":2775:2802   */\n      tag_218\n        /* \"#utility.yul\":2797:2801   */\n      dup3\n        /* \"#utility.yul\":2775:2802   */\n      tag_130\n      jump\t// in\n    tag_218:\n        /* \"#utility.yul\":2767:2773   */\n      dup2\n        /* \"#utility.yul\":2763:2803   */\n      add\n        /* \"#utility.yul\":2905:2911   */\n      dup2\n        /* \"#utility.yul\":2893:2903   */\n      dup2\n        /* \"#utility.yul\":2890:2912   */\n      lt\n        /* \"#utility.yul\":2869:2887   */\n      0xffffffffffffffff\n        /* \"#utility.yul\":2857:2867   */\n      dup3\n        /* \"#utility.yul\":2854:2888   */\n      gt\n        /* \"#utility.yul\":2851:2913   */\n      or\n        /* \"#utility.yul\":2848:2936   */\n      iszero\n      tag_219\n      jumpi\n        /* \"#utility.yul\":2916:2934   */\n      tag_220\n      tag_134\n      jump\t// in\n    tag_220:\n        /* \"#utility.yul\":2848:2936   */\n    tag_219:\n        /* \"#utility.yul\":2956:2966   */\n      dup1\n        /* \"#utility.yul\":2952:2954   */\n      0x40\n        /* \"#utility.yul\":2945:2967   */\n      mstore\n        /* \"#utility.yul\":2735:2973   */\n      pop\n        /* \"#utility.yul\":2692:2973   */\n      pop\n      pop\n      jump\t// out\n        /* \"#utility.yul\":2979:3108   */\n    tag_136:\n        /* \"#utility.yul\":3013:3019   */\n      0x00\n        /* \"#utility.yul\":3040:3060   */\n      tag_222\n      tag_121\n      jump\t// in\n    tag_222:\n        /* \"#utility.yul\":3030:3060   */\n      swap1\n      pop\n        /* \"#utility.yul\":3069:3102   */\n      tag_223\n        /* \"#utility.yul\":3097:3101   */\n      dup3\n        /* \"#utility.yul\":3089:3095   */\n      dup3\n        /* \"#utility.yul\":3069:3102   */\n      tag_135\n      jump\t// in\n    tag_223:\n        /* \"#utility.yul\":2979:3108   */\n      swap2\n      swap1\n      pop\n      jump\t// out\n        /* \"#utility.yul\":3114:3422   */\n    tag_137:\n        /* \"#utility.yul\":3176:3180   */\n      0x00\n        /* \"#utility.yul\":3266:3284   */\n      0xffffffffffffffff\n        /* \"#utility.yul\":3258:3264   */\n      dup3\n        /* \"#utility.yul\":3255:3285   */\n      gt\n        /* \"#utility.yul\":3252:3308   */\n      iszero\n      tag_225\n      jumpi\n        /* \"#utility.yul\":3288:3306   */\n      tag_226\n      tag_134\n      jump\t// in\n    tag_226:\n        /* \"#utility.yul\":3252:3308   */\n    tag_225:\n        /* \"#utility.yul\":3326:3355   */\n      tag_227\n        /* \"#utility.yul\":3348:3354   */\n      dup3\n        /* \"#utility.yul\":3326:3355   */\n      tag_130\n      jump\t// in\n    tag_227:\n        /* \"#utility.yul\":3318:3355   */\n      swap1\n      pop\n        /* \"#utility.yul\":3410:3414   */\n      0x20\n        /* \"#utility.yul\":3404:3408   */\n      dup2\n        /* \"#utility.yul\":3400:3415   */\n      add\n        /* \"#utility.yul\":3392:3415   */\n      swap1\n      pop\n        /* \"#utility.yul\":3114:3422   */\n      swap2\n      swap1\n      pop\n      jump\t// out\n        /* \"#utility.yul\":3428:3576   */\n    tag_138:\n        /* \"#utility.yul\":3526:3532   */\n      dup3\n        /* \"#utility.yul\":3521:3524   */\n      dup2\n        /* \"#utility.yul\":3516:3519   */\n      dup4\n        /* \"#utility.yul\":3503:3533   */\n      calldatacopy\n        /* \"#utility.yul\":3567:3568   */\n      0x00\n        /* \"#utility.yul\":3558:3564   */\n      dup4\n        /* \"#utility.yul\":3553:3556   */\n      dup4\n        /* \"#utility.yul\":3549:3565   */\n      add\n        /* \"#utility.yul\":3542:3569   */\n      mstore\n        /* \"#utility.yul\":3428:3576   */\n      pop\n      pop\n      pop\n      jump\t// out\n        /* \"#utility.yul\":3582:4007   */\n    tag_139:\n        /* \"#utility.yul\":3660:3665   */\n      0x00\n        /* \"#utility.yul\":3685:3751   */\n      tag_230\n        /* \"#utility.yul\":3701:3750   */\n      tag_231\n        /* \"#utility.yul\":3743:3749   */\n      dup5\n        /* \"#utility.yul\":3701:3750   */\n      tag_137\n      jump\t// in\n    tag_231:\n        /* \"#utility.yul\":3685:3751   */\n      tag_136\n      jump\t// in\n    tag_230:\n        /* \"#utility.yul\":3676:3751   */\n      swap1\n      pop\n        /* \"#utility.yul\":3774:3780   */\n      dup3\n        /* \"#utility.yul\":3767:3772   */\n      dup2\n        /* \"#utility.yul\":3760:3781   */\n      mstore\n        /* \"#utility.yul\":3812:3816   */\n      0x20\n        /* \"#utility.yul\":3805:3810   */\n      dup2\n        /* \"#utility.yul\":3801:3817   */\n      add\n        /* \"#utility.yul\":3850:3853   */\n      dup5\n        /* \"#utility.yul\":3841:3847   */\n      dup5\n        /* \"#utility.yul\":3836:3839   */\n      dup5\n        /* \"#utility.yul\":3832:3848   */\n      add\n        /* \"#utility.yul\":3829:3854   */\n      gt\n        /* \"#utility.yul\":3826:3938   */\n      iszero\n      tag_232\n      jumpi\n        /* \"#utility.yul\":3857:3936   */\n      tag_233\n      tag_133\n      jump\t// in\n    tag_233:\n        /* \"#utility.yul\":3826:3938   */\n    tag_232:\n        /* \"#utility.yul\":3947:4001   */\n      tag_234\n        /* \"#utility.yul\":3994:4000   */\n      dup5\n        /* \"#utility.yul\":3989:3992   */\n      dup3\n        /* \"#utility.yul\":3984:3987   */\n      dup6\n        /* \"#utility.yul\":3947:4001   */\n      tag_138\n      jump\t// in\n    tag_234:\n        /* \"#utility.yul\":3666:4007   */\n      pop\n        /* \"#utility.yul\":3582:4007   */\n      swap4\n      swap3\n      pop\n      pop\n      pop\n      jump\t// out\n        /* \"#utility.yul\":4027:4367   */\n    tag_140:\n        /* \"#utility.yul\":4083:4088   */\n      0x00\n        /* \"#utility.yul\":4132:4135   */\n      dup3\n        /* \"#utility.yul\":4125:4129   */\n      0x1f\n        /* \"#utility.yul\":4117:4123   */\n      dup4\n        /* \"#utility.yul\":4113:4130   */\n      add\n        /* \"#utility.yul\":4109:4136   */\n      slt\n        /* \"#utility.yul\":4099:4221   */\n      tag_236\n      jumpi\n        /* \"#utility.yul\":4140:4219   */\n      tag_237\n      tag_132\n      jump\t// in\n    tag_237:\n        /* \"#utility.yul\":4099:4221   */\n    tag_236:\n        /* \"#utility.yul\":4257:4263   */\n      dup2\n        /* \"#utility.yul\":4244:4264   */\n      calldataload\n        /* \"#utility.yul\":4282:4361   */\n      tag_238\n        /* \"#utility.yul\":4357:4360   */\n      dup5\n        /* \"#utility.yul\":4349:4355   */\n      dup3\n        /* \"#utility.yul\":4342:4346   */\n      0x20\n        /* \"#utility.yul\":4334:4340   */\n      dup7\n        /* \"#utility.yul\":4330:4347   */\n      add\n        /* \"#utility.yul\":4282:4361   */\n      tag_139\n      jump\t// in\n    tag_238:\n        /* \"#utility.yul\":4273:4361   */\n      swap2\n      pop\n        /* \"#utility.yul\":4089:4367   */\n      pop\n        /* \"#utility.yul\":4027:4367   */\n      swap3\n      swap2\n      pop\n      pop\n      jump\t// out\n        /* \"#utility.yul\":4373:4499   */\n    tag_141:\n        /* \"#utility.yul\":4410:4417   */\n      0x00\n        /* \"#utility.yul\":4450:4492   */\n      0xffffffffffffffffffffffffffffffffffffffff\n        /* \"#utility.yul\":4443:4448   */\n      dup3\n        /* \"#utility.yul\":4439:4493   */\n      and\n        /* \"#utility.yul\":4428:4493   */\n      swap1\n      pop\n        /* \"#utility.yul\":4373:4499   */\n      swap2\n      swap1\n      pop\n      jump\t// out\n        /* \"#utility.yul\":4505:4601   */\n    tag_142:\n        /* \"#utility.yul\":4542:4549   */\n      0x00\n        /* \"#utility.yul\":4571:4595   */\n      tag_241\n        /* \"#utility.yul\":4589:4594   */\n      dup3\n        /* \"#utility.yul\":4571:4595   */\n      tag_141\n      jump\t// in\n    tag_241:\n        /* \"#utility.yul\":4560:4595   */\n      swap1\n      pop\n        /* \"#utility.yul\":4505:4601   */\n      swap2\n      swap1\n      pop\n      jump\t// out\n        /* \"#utility.yul\":4607:4729   */\n    tag_143:\n        /* \"#utility.yul\":4680:4704   */\n      tag_243\n        /* \"#utility.yul\":4698:4703   */\n      dup2\n        /* \"#utility.yul\":4680:4704   */\n      tag_142\n      jump\t// in\n    tag_243:\n        /* \"#utility.yul\":4673:4678   */\n      dup2\n        /* \"#utility.yul\":4670:4705   */\n      eq\n        /* \"#utility.yul\":4660:4723   */\n      tag_244\n      jumpi\n        /* \"#utility.yul\":4719:4720   */\n      0x00\n        /* \"#utility.yul\":4716:4717   */\n      dup1\n        /* \"#utility.yul\":4709:4721   */\n      revert\n        /* \"#utility.yul\":4660:4723   */\n    tag_244:\n        /* \"#utility.yul\":4607:4729   */\n      pop\n      jump\t// out\n        /* \"#utility.yul\":4735:4874   */\n    tag_144:\n        /* \"#utility.yul\":4781:4786   */\n      0x00\n        /* \"#utility.yul\":4819:4825   */\n      dup2\n        /* \"#utility.yul\":4806:4826   */\n      calldataload\n        /* \"#utility.yul\":4797:4826   */\n      swap1\n      pop\n        /* \"#utility.yul\":4835:4868   */\n      tag_246\n        /* \"#utility.yul\":4862:4867   */\n      dup2\n        /* \"#utility.yul\":4835:4868   */\n      tag_143\n      jump\t// in\n    tag_246:\n        /* \"#utility.yul\":4735:4874   */\n      swap3\n      swap2\n      pop\n      pop\n      jump\t// out\n        /* \"#utility.yul\":4880:5534   */\n    tag_21:\n        /* \"#utility.yul\":4958:4964   */\n      0x00\n        /* \"#utility.yul\":4966:4972   */\n      dup1\n        /* \"#utility.yul\":5015:5017   */\n      0x40\n        /* \"#utility.yul\":5003:5012   */\n      dup4\n        /* \"#utility.yul\":4994:5001   */\n      dup6\n        /* \"#utility.yul\":4990:5013   */\n      sub\n        /* \"#utility.yul\":4986:5018   */\n      slt\n        /* \"#utility.yul\":4983:5102   */\n      iszero\n      tag_248\n      jumpi\n        /* \"#utility.yul\":5021:5100   */\n      tag_249\n      tag_122\n      jump\t// in\n    tag_249:\n        /* \"#utility.yul\":4983:5102   */\n    tag_248:\n        /* \"#utility.yul\":5169:5170   */\n      0x00\n        /* \"#utility.yul\":5158:5167   */\n      dup4\n        /* \"#utility.yul\":5154:5171   */\n      add\n        /* \"#utility.yul\":5141:5172   */\n      calldataload\n        /* \"#utility.yul\":5199:5217   */\n      0xffffffffffffffff\n        /* \"#utility.yul\":5191:5197   */\n      dup2\n        /* \"#utility.yul\":5188:5218   */\n      gt\n        /* \"#utility.yul\":5185:5302   */\n      iszero\n      tag_250\n      jumpi\n        /* \"#utility.yul\":5221:5300   */\n      tag_251\n      tag_123\n      jump\t// in\n    tag_251:\n        /* \"#utility.yul\":5185:5302   */\n    tag_250:\n        /* \"#utility.yul\":5326:5389   */\n      tag_252\n        /* \"#utility.yul\":5381:5388   */\n      dup6\n        /* \"#utility.yul\":5372:5378   */\n      dup3\n        /* \"#utility.yul\":5361:5370   */\n      dup7\n        /* \"#utility.yul\":5357:5379   */\n      add\n        /* \"#utility.yul\":5326:5389   */\n      tag_140\n      jump\t// in\n    tag_252:\n        /* \"#utility.yul\":5316:5389   */\n      swap3\n      pop\n        /* \"#utility.yul\":5112:5399   */\n      pop\n        /* \"#utility.yul\":5438:5440   */\n      0x20\n        /* \"#utility.yul\":5464:5517   */\n      tag_253\n        /* \"#utility.yul\":5509:5516   */\n      dup6\n        /* \"#utility.yul\":5500:5506   */\n      dup3\n        /* \"#utility.yul\":5489:5498   */\n      dup7\n        /* \"#utility.yul\":5485:5507   */\n      add\n        /* \"#utility.yul\":5464:5517   */\n      tag_144\n      jump\t// in\n    tag_253:\n        /* \"#utility.yul\":5454:5517   */\n      swap2\n      pop\n        /* \"#utility.yul\":5409:5527   */\n      pop\n        /* \"#utility.yul\":4880:5534   */\n      swap3\n      pop\n      swap3\n      swap1\n      pop\n      jump\t// out\n        /* \"#utility.yul\":5540:5630   */\n    tag_145:\n        /* \"#utility.yul\":5574:5581   */\n      0x00\n        /* \"#utility.yul\":5617:5622   */\n      dup2\n        /* \"#utility.yul\":5610:5623   */\n      iszero\n        /* \"#utility.yul\":5603:5624   */\n      iszero\n        /* \"#utility.yul\":5592:5624   */\n      swap1\n      pop\n        /* \"#utility.yul\":5540:5630   */\n      swap2\n      swap1\n      pop\n      jump\t// out\n        /* \"#utility.yul\":5636:5745   */\n    tag_146:\n        /* \"#utility.yul\":5717:5738   */\n      tag_256\n        /* \"#utility.yul\":5732:5737   */\n      dup2\n        /* \"#utility.yul\":5717:5738   */\n      tag_145\n      jump\t// in\n    tag_256:\n        /* \"#utility.yul\":5712:5715   */\n      dup3\n        /* \"#utility.yul\":5705:5739   */\n      mstore\n        /* \"#utility.yul\":5636:5745   */\n      pop\n      pop\n      jump\t// out\n        /* \"#utility.yul\":5751:5961   */\n    tag_24:\n        /* \"#utility.yul\":5838:5842   */\n      0x00\n        /* \"#utility.yul\":5876:5878   */\n      0x20\n        /* \"#utility.yul\":5865:5874   */\n      dup3\n        /* \"#utility.yul\":5861:5879   */\n      add\n        /* \"#utility.yul\":5853:5879   */\n      swap1\n      pop\n        /* \"#utility.yul\":5889:5954   */\n      tag_258\n        /* \"#utility.yul\":5951:5952   */\n      0x00\n        /* \"#utility.yul\":5940:5949   */\n      dup4\n        /* \"#utility.yul\":5936:5953   */\n      add\n        /* \"#utility.yul\":5927:5933   */\n      dup5\n        /* \"#utility.yul\":5889:5954   */\n      tag_146\n      jump\t// in\n    tag_258:\n        /* \"#utility.yul\":5751:5961   */\n      swap3\n      swap2\n      pop\n      pop\n      jump\t// out\n        /* \"#utility.yul\":5967:6084   */\n    tag_147:\n        /* \"#utility.yul\":6076:6077   */\n      0x00\n        /* \"#utility.yul\":6073:6074   */\n      dup1\n        /* \"#utility.yul\":6066:6078   */\n      revert\n        /* \"#utility.yul\":6090:6207   */\n    tag_148:\n        /* \"#utility.yul\":6199:6200   */\n      0x00\n        /* \"#utility.yul\":6196:6197   */\n      dup1\n        /* \"#utility.yul\":6189:6201   */\n      revert\n        /* \"#utility.yul\":6227:6780   */\n    tag_149:\n        /* \"#utility.yul\":6285:6293   */\n      0x00\n        /* \"#utility.yul\":6295:6301   */\n      dup1\n        /* \"#utility.yul\":6345:6348   */\n      dup4\n        /* \"#utility.yul\":6338:6342   */\n      0x1f\n        /* \"#utility.yul\":6330:6336   */\n      dup5\n        /* \"#utility.yul\":6326:6343   */\n      add\n        /* \"#utility.yul\":6322:6349   */\n      slt\n        /* \"#utility.yul\":6312:6434   */\n      tag_262\n      jumpi\n        /* \"#utility.yul\":6353:6432   */\n      tag_263\n      tag_132\n      jump\t// in\n    tag_263:\n        /* \"#utility.yul\":6312:6434   */\n    tag_262:\n        /* \"#utility.yul\":6466:6472   */\n      dup3\n        /* \"#utility.yul\":6453:6473   */\n      calldataload\n        /* \"#utility.yul\":6443:6473   */\n      swap1\n      pop\n        /* \"#utility.yul\":6496:6514   */\n      0xffffffffffffffff\n        /* \"#utility.yul\":6488:6494   */\n      dup2\n        /* \"#utility.yul\":6485:6515   */\n      gt\n        /* \"#utility.yul\":6482:6599   */\n      iszero\n      tag_264\n      jumpi\n        /* \"#utility.yul\":6518:6597   */\n      tag_265\n      tag_147\n      jump\t// in\n    tag_265:\n        /* \"#utility.yul\":6482:6599   */\n    tag_264:\n        /* \"#utility.yul\":6632:6636   */\n      0x20\n        /* \"#utility.yul\":6624:6630   */\n      dup4\n        /* \"#utility.yul\":6620:6637   */\n      add\n        /* \"#utility.yul\":6608:6637   */\n      swap2\n      pop\n        /* \"#utility.yul\":6686:6689   */\n      dup4\n        /* \"#utility.yul\":6678:6682   */\n      0x01\n        /* \"#utility.yul\":6670:6676   */\n      dup3\n        /* \"#utility.yul\":6666:6683   */\n      mul\n        /* \"#utility.yul\":6656:6664   */\n      dup4\n        /* \"#utility.yul\":6652:6684   */\n      add\n        /* \"#utility.yul\":6649:6690   */\n      gt\n        /* \"#utility.yul\":6646:6774   */\n      iszero\n      tag_266\n      jumpi\n        /* \"#utility.yul\":6693:6772   */\n      tag_267\n      tag_148\n      jump\t// in\n    tag_267:\n        /* \"#utility.yul\":6646:6774   */\n    tag_266:\n        /* \"#utility.yul\":6227:6780   */\n      swap3\n      pop\n      swap3\n      swap1\n      pop\n      jump\t// out\n        /* \"#utility.yul\":6786:7315   */\n    tag_27:\n        /* \"#utility.yul\":6857:6863   */\n      0x00\n        /* \"#utility.yul\":6865:6871   */\n      dup1\n        /* \"#utility.yul\":6914:6916   */\n      0x20\n        /* \"#utility.yul\":6902:6911   */\n      dup4\n        /* \"#utility.yul\":6893:6900   */\n      dup6\n        /* \"#utility.yul\":6889:6912   */\n      sub\n        /* \"#utility.yul\":6885:6917   */\n      slt\n        /* \"#utility.yul\":6882:7001   */\n      iszero\n      tag_269\n      jumpi\n        /* \"#utility.yul\":6920:6999   */\n      tag_270\n      tag_122\n      jump\t// in\n    tag_270:\n        /* \"#utility.yul\":6882:7001   */\n    tag_269:\n        /* \"#utility.yul\":7068:7069   */\n      0x00\n        /* \"#utility.yul\":7057:7066   */\n      dup4\n        /* \"#utility.yul\":7053:7070   */\n      add\n        /* \"#utility.yul\":7040:7071   */\n      calldataload\n        /* \"#utility.yul\":7098:7116   */\n      0xffffffffffffffff\n        /* \"#utility.yul\":7090:7096   */\n      dup2\n        /* \"#utility.yul\":7087:7117   */\n      gt\n        /* \"#utility.yul\":7084:7201   */\n      iszero\n      tag_271\n      jumpi\n        /* \"#utility.yul\":7120:7199   */\n      tag_272\n      tag_123\n      jump\t// in\n    tag_272:\n        /* \"#utility.yul\":7084:7201   */\n    tag_271:\n        /* \"#utility.yul\":7233:7298   */\n      tag_273\n        /* \"#utility.yul\":7290:7297   */\n      dup6\n        /* \"#utility.yul\":7281:7287   */\n      dup3\n        /* \"#utility.yul\":7270:7279   */\n      dup7\n        /* \"#utility.yul\":7266:7288   */\n      add\n        /* \"#utility.yul\":7233:7298   */\n      tag_149\n      jump\t// in\n    tag_273:\n        /* \"#utility.yul\":7215:7298   */\n      swap3\n      pop\n      swap3\n      pop\n        /* \"#utility.yul\":7011:7308   */\n      pop\n        /* \"#utility.yul\":6786:7315   */\n      swap3\n      pop\n      swap3\n      swap1\n      pop\n      jump\t// out\n        /* \"#utility.yul\":7321:7439   */\n    tag_150:\n        /* \"#utility.yul\":7408:7432   */\n      tag_275\n        /* \"#utility.yul\":7426:7431   */\n      dup2\n        /* \"#utility.yul\":7408:7432   */\n      tag_124\n      jump\t// in\n    tag_275:\n        /* \"#utility.yul\":7403:7406   */\n      dup3\n        /* \"#utility.yul\":7396:7433   */\n      mstore\n        /* \"#utility.yul\":7321:7439   */\n      pop\n      pop\n      jump\t// out\n        /* \"#utility.yul\":7445:7667   */\n    tag_30:\n        /* \"#utility.yul\":7538:7542   */\n      0x00\n        /* \"#utility.yul\":7576:7578   */\n      0x20\n        /* \"#utility.yul\":7565:7574   */\n      dup3\n        /* \"#utility.yul\":7561:7579   */\n      add\n        /* \"#utility.yul\":7553:7579   */\n      swap1\n      pop\n        /* \"#utility.yul\":7589:7660   */\n      tag_277\n        /* \"#utility.yul\":7657:7658   */\n      0x00\n        /* \"#utility.yul\":7646:7655   */\n      dup4\n        /* \"#utility.yul\":7642:7659   */\n      add\n        /* \"#utility.yul\":7633:7639   */\n      dup5\n        /* \"#utility.yul\":7589:7660   */\n      tag_150\n      jump\t// in\n    tag_277:\n        /* \"#utility.yul\":7445:7667   */\n      swap3\n      swap2\n      pop\n      pop\n      jump\t// out\n        /* \"#utility.yul\":7673:7791   */\n    tag_151:\n        /* \"#utility.yul\":7760:7784   */\n      tag_279\n        /* \"#utility.yul\":7778:7783   */\n      dup2\n        /* \"#utility.yul\":7760:7784   */\n      tag_142\n      jump\t// in\n    tag_279:\n        /* \"#utility.yul\":7755:7758   */\n      dup3\n        /* \"#utility.yul\":7748:7785   */\n      mstore\n        /* \"#utility.yul\":7673:7791   */\n      pop\n      pop\n      jump\t// out\n        /* \"#utility.yul\":7797:8019   */\n    tag_34:\n        /* \"#utility.yul\":7890:7894   */\n      0x00\n        /* \"#utility.yul\":7928:7930   */\n      0x20\n        /* \"#utility.yul\":7917:7926   */\n      dup3\n        /* \"#utility.yul\":7913:7931   */\n      add\n        /* \"#utility.yul\":7905:7931   */\n      swap1\n      pop\n        /* \"#utility.yul\":7941:8012   */\n      tag_281\n        /* \"#utility.yul\":8009:8010   */\n      0x00\n        /* \"#utility.yul\":7998:8007   */\n      dup4\n        /* \"#utility.yul\":7994:8011   */\n      add\n        /* \"#utility.yul\":7985:7991   */\n      dup5\n        /* \"#utility.yul\":7941:8012   */\n      tag_151\n      jump\t// in\n    tag_281:\n        /* \"#utility.yul\":7797:8019   */\n      swap3\n      swap2\n      pop\n      pop\n      jump\t// out\n        /* \"#utility.yul\":8025:8534   */\n    tag_37:\n        /* \"#utility.yul\":8094:8100   */\n      0x00\n        /* \"#utility.yul\":8143:8145   */\n      0x20\n        /* \"#utility.yul\":8131:8140   */\n      dup3\n        /* \"#utility.yul\":8122:8129   */\n      dup5\n        /* \"#utility.yul\":8118:8141   */\n      sub\n        /* \"#utility.yul\":8114:8146   */\n      slt\n        /* \"#utility.yul\":8111:8230   */\n      iszero\n      tag_283\n      jumpi\n        /* \"#utility.yul\":8149:8228   */\n      tag_284\n      tag_122\n      jump\t// in\n    tag_284:\n        /* \"#utility.yul\":8111:8230   */\n    tag_283:\n        /* \"#utility.yul\":8297:8298   */\n      0x00\n        /* \"#utility.yul\":8286:8295   */\n      dup3\n        /* \"#utility.yul\":8282:8299   */\n      add\n        /* \"#utility.yul\":8269:8300   */\n      calldataload\n        /* \"#utility.yul\":8327:8345   */\n      0xffffffffffffffff\n        /* \"#utility.yul\":8319:8325   */\n      dup2\n        /* \"#utility.yul\":8316:8346   */\n      gt\n        /* \"#utility.yul\":8313:8430   */\n      iszero\n      tag_285\n      jumpi\n        /* \"#utility.yul\":8349:8428   */\n      tag_286\n      tag_123\n      jump\t// in\n    tag_286:\n        /* \"#utility.yul\":8313:8430   */\n    tag_285:\n        /* \"#utility.yul\":8454:8517   */\n      tag_287\n        /* \"#utility.yul\":8509:8516   */\n      dup5\n        /* \"#utility.yul\":8500:8506   */\n      dup3\n        /* \"#utility.yul\":8489:8498   */\n      dup6\n        /* \"#utility.yul\":8485:8507   */\n      add\n        /* \"#utility.yul\":8454:8517   */\n      tag_140\n      jump\t// in\n    tag_287:\n        /* \"#utility.yul\":8444:8517   */\n      swap2\n      pop\n        /* \"#utility.yul\":8240:8527   */\n      pop\n        /* \"#utility.yul\":8025:8534   */\n      swap3\n      swap2\n      pop\n      pop\n      jump\t// out\n        /* \"#utility.yul\":8540:9519   */\n    tag_43:\n        /* \"#utility.yul\":8637:8643   */\n      0x00\n        /* \"#utility.yul\":8645:8651   */\n      dup1\n        /* \"#utility.yul\":8653:8659   */\n      0x00\n        /* \"#utility.yul\":8702:8704   */\n      0x60\n        /* \"#utility.yul\":8690:8699   */\n      dup5\n        /* \"#utility.yul\":8681:8688   */\n      dup7\n        /* \"#utility.yul\":8677:8700   */\n      sub\n        /* \"#utility.yul\":8673:8705   */\n      slt\n        /* \"#utility.yul\":8670:8789   */\n      iszero\n      tag_289\n      jumpi\n        /* \"#utility.yul\":8708:8787   */\n      tag_290\n      tag_122\n      jump\t// in\n    tag_290:\n        /* \"#utility.yul\":8670:8789   */\n    tag_289:\n        /* \"#utility.yul\":8828:8829   */\n      0x00\n        /* \"#utility.yul\":8853:8906   */\n      tag_291\n        /* \"#utility.yul\":8898:8905   */\n      dup7\n        /* \"#utility.yul\":8889:8895   */\n      dup3\n        /* \"#utility.yul\":8878:8887   */\n      dup8\n        /* \"#utility.yul\":8874:8896   */\n      add\n        /* \"#utility.yul\":8853:8906   */\n      tag_144\n      jump\t// in\n    tag_291:\n        /* \"#utility.yul\":8843:8906   */\n      swap4\n      pop\n        /* \"#utility.yul\":8799:8916   */\n      pop\n        /* \"#utility.yul\":8983:8985   */\n      0x20\n        /* \"#utility.yul\":8972:8981   */\n      dup5\n        /* \"#utility.yul\":8968:8986   */\n      add\n        /* \"#utility.yul\":8955:8987   */\n      calldataload\n        /* \"#utility.yul\":9014:9032   */\n      0xffffffffffffffff\n        /* \"#utility.yul\":9006:9012   */\n      dup2\n        /* \"#utility.yul\":9003:9033   */\n      gt\n        /* \"#utility.yul\":9000:9117   */\n      iszero\n      tag_292\n      jumpi\n        /* \"#utility.yul\":9036:9115   */\n      tag_293\n      tag_123\n      jump\t// in\n    tag_293:\n        /* \"#utility.yul\":9000:9117   */\n    tag_292:\n        /* \"#utility.yul\":9141:9204   */\n      tag_294\n        /* \"#utility.yul\":9196:9203   */\n      dup7\n        /* \"#utility.yul\":9187:9193   */\n      dup3\n        /* \"#utility.yul\":9176:9185   */\n      dup8\n        /* \"#utility.yul\":9172:9194   */\n      add\n        /* \"#utility.yul\":9141:9204   */\n      tag_140\n      jump\t// in\n    tag_294:\n        /* \"#utility.yul\":9131:9204   */\n      swap3\n      pop\n        /* \"#utility.yul\":8926:9214   */\n      pop\n        /* \"#utility.yul\":9281:9283   */\n      0x40\n        /* \"#utility.yul\":9270:9279   */\n      dup5\n        /* \"#utility.yul\":9266:9284   */\n      add\n        /* \"#utility.yul\":9253:9285   */\n      calldataload\n        /* \"#utility.yul\":9312:9330   */\n      0xffffffffffffffff\n        /* \"#utility.yul\":9304:9310   */\n      dup2\n        /* \"#utility.yul\":9301:9331   */\n      gt\n        /* \"#utility.yul\":9298:9415   */\n      iszero\n      tag_295\n      jumpi\n        /* \"#utility.yul\":9334:9413   */\n      tag_296\n      tag_123\n      jump\t// in\n    tag_296:\n        /* \"#utility.yul\":9298:9415   */\n    tag_295:\n        /* \"#utility.yul\":9439:9502   */\n      tag_297\n        /* \"#utility.yul\":9494:9501   */\n      dup7\n        /* \"#utility.yul\":9485:9491   */\n      dup3\n        /* \"#utility.yul\":9474:9483   */\n      dup8\n        /* \"#utility.yul\":9470:9492   */\n      add\n        /* \"#utility.yul\":9439:9502   */\n      tag_140\n      jump\t// in\n    tag_297:\n        /* \"#utility.yul\":9429:9502   */\n      swap2\n      pop\n        /* \"#utility.yul\":9224:9512   */\n      pop\n        /* \"#utility.yul\":8540:9519   */\n      swap3\n      pop\n      swap3\n      pop\n      swap3\n      jump\t// out\n        /* \"#utility.yul\":9525:9854   */\n    tag_47:\n        /* \"#utility.yul\":9584:9590   */\n      0x00\n        /* \"#utility.yul\":9633:9635   */\n      0x20\n        /* \"#utility.yul\":9621:9630   */\n      dup3\n        /* \"#utility.yul\":9612:9619   */\n      dup5\n        /* \"#utility.yul\":9608:9631   */\n      sub\n        /* \"#utility.yul\":9604:9636   */\n      slt\n        /* \"#utility.yul\":9601:9720   */\n      iszero\n      tag_299\n      jumpi\n        /* \"#utility.yul\":9639:9718   */\n      tag_300\n      tag_122\n      jump\t// in\n    tag_300:\n        /* \"#utility.yul\":9601:9720   */\n    tag_299:\n        /* \"#utility.yul\":9759:9760   */\n      0x00\n        /* \"#utility.yul\":9784:9837   */\n      tag_301\n        /* \"#utility.yul\":9829:9836   */\n      dup5\n        /* \"#utility.yul\":9820:9826   */\n      dup3\n        /* \"#utility.yul\":9809:9818   */\n      dup6\n        /* \"#utility.yul\":9805:9827   */\n      add\n        /* \"#utility.yul\":9784:9837   */\n      tag_144\n      jump\t// in\n    tag_301:\n        /* \"#utility.yul\":9774:9837   */\n      swap2\n      pop\n        /* \"#utility.yul\":9730:9847   */\n      pop\n        /* \"#utility.yul\":9525:9854   */\n      swap3\n      swap2\n      pop\n      pop\n      jump\t// out\n        /* \"#utility.yul\":9860:10484   */\n    tag_50:\n        /* \"#utility.yul\":10049:10053   */\n      0x00\n        /* \"#utility.yul\":10087:10089   */\n      0x60\n        /* \"#utility.yul\":10076:10085   */\n      dup3\n        /* \"#utility.yul\":10072:10090   */\n      add\n        /* \"#utility.yul\":10064:10090   */\n      swap1\n      pop\n        /* \"#utility.yul\":10136:10145   */\n      dup2\n        /* \"#utility.yul\":10130:10134   */\n      dup2\n        /* \"#utility.yul\":10126:10146   */\n      sub\n        /* \"#utility.yul\":10122:10123   */\n      0x00\n        /* \"#utility.yul\":10111:10120   */\n      dup4\n        /* \"#utility.yul\":10107:10124   */\n      add\n        /* \"#utility.yul\":10100:10147   */\n      mstore\n        /* \"#utility.yul\":10164:10242   */\n      tag_303\n        /* \"#utility.yul\":10237:10241   */\n      dup2\n        /* \"#utility.yul\":10228:10234   */\n      dup7\n        /* \"#utility.yul\":10164:10242   */\n      tag_131\n      jump\t// in\n    tag_303:\n        /* \"#utility.yul\":10156:10242   */\n      swap1\n      pop\n        /* \"#utility.yul\":10289:10298   */\n      dup2\n        /* \"#utility.yul\":10283:10287   */\n      dup2\n        /* \"#utility.yul\":10279:10299   */\n      sub\n        /* \"#utility.yul\":10274:10276   */\n      0x20\n        /* \"#utility.yul\":10263:10272   */\n      dup4\n        /* \"#utility.yul\":10259:10277   */\n      add\n        /* \"#utility.yul\":10252:10300   */\n      mstore\n        /* \"#utility.yul\":10317:10395   */\n      tag_304\n        /* \"#utility.yul\":10390:10394   */\n      dup2\n        /* \"#utility.yul\":10381:10387   */\n      dup6\n        /* \"#utility.yul\":10317:10395   */\n      tag_131\n      jump\t// in\n    tag_304:\n        /* \"#utility.yul\":10309:10395   */\n      swap1\n      pop\n        /* \"#utility.yul\":10405:10477   */\n      tag_305\n        /* \"#utility.yul\":10473:10475   */\n      0x40\n        /* \"#utility.yul\":10462:10471   */\n      dup4\n        /* \"#utility.yul\":10458:10476   */\n      add\n        /* \"#utility.yul\":10449:10455   */\n      dup5\n        /* \"#utility.yul\":10405:10477   */\n      tag_150\n      jump\t// in\n    tag_305:\n        /* \"#utility.yul\":9860:10484   */\n      swap5\n      swap4\n      pop\n      pop\n      pop\n      pop\n      jump\t// out\n        /* \"#utility.yul\":10490:10670   */\n    tag_152:\n        /* \"#utility.yul\":10538:10615   */\n      0x4e487b7100000000000000000000000000000000000000000000000000000000\n        /* \"#utility.yul\":10535:10536   */\n      0x00\n        /* \"#utility.yul\":10528:10616   */\n      mstore\n        /* \"#utility.yul\":10635:10639   */\n      0x22\n        /* \"#utility.yul\":10632:10633   */\n      0x04\n        /* \"#utility.yul\":10625:10640   */\n      mstore\n        /* \"#utility.yul\":10659:10663   */\n      0x24\n        /* \"#utility.yul\":10656:10657   */\n      0x00\n        /* \"#utility.yul\":10649:10664   */\n      revert\n        /* \"#utility.yul\":10676:10996   */\n    tag_58:\n        /* \"#utility.yul\":10720:10726   */\n      0x00\n        /* \"#utility.yul\":10757:10758   */\n      0x02\n        /* \"#utility.yul\":10751:10755   */\n      dup3\n        /* \"#utility.yul\":10747:10759   */\n      div\n        /* \"#utility.yul\":10737:10759   */\n      swap1\n      pop\n        /* \"#utility.yul\":10804:10805   */\n      0x01\n        /* \"#utility.yul\":10798:10802   */\n      dup3\n        /* \"#utility.yul\":10794:10806   */\n      and\n        /* \"#utility.yul\":10825:10843   */\n      dup1\n        /* \"#utility.yul\":10815:10896   */\n      tag_308\n      jumpi\n        /* \"#utility.yul\":10881:10885   */\n      0x7f\n        /* \"#utility.yul\":10873:10879   */\n      dup3\n        /* \"#utility.yul\":10869:10886   */\n      and\n        /* \"#utility.yul\":10859:10886   */\n      swap2\n      pop\n        /* \"#utility.yul\":10815:10896   */\n    tag_308:\n        /* \"#utility.yul\":10943:10945   */\n      0x20\n        /* \"#utility.yul\":10935:10941   */\n      dup3\n        /* \"#utility.yul\":10932:10946   */\n      lt\n        /* \"#utility.yul\":10912:10930   */\n      dup2\n        /* \"#utility.yul\":10909:10947   */\n      sub\n        /* \"#utility.yul\":10906:10990   */\n      tag_309\n      jumpi\n        /* \"#utility.yul\":10962:10980   */\n      tag_310\n      tag_152\n      jump\t// in\n    tag_310:\n        /* \"#utility.yul\":10906:10990   */\n    tag_309:\n        /* \"#utility.yul\":10727:10996   */\n      pop\n        /* \"#utility.yul\":10676:10996   */\n      swap2\n      swap1\n      pop\n      jump\t// out\n        /* \"#utility.yul\":11002:11098   */\n    tag_153:\n        /* \"#utility.yul\":11060:11066   */\n      0x00\n        /* \"#utility.yul\":11088:11091   */\n      dup3\n        /* \"#utility.yul\":11078:11091   */\n      swap1\n      pop\n        /* \"#utility.yul\":11002:11098   */\n      swap3\n      swap2\n      pop\n      pop\n      jump\t// out\n        /* \"#utility.yul\":11196:11346   */\n    tag_155:\n        /* \"#utility.yul\":11233:11240   */\n      0x00\n        /* \"#utility.yul\":11273:11339   */\n      0xffffffffffffffffffffffffffffffffffffffff000000000000000000000000\n        /* \"#utility.yul\":11266:11271   */\n      dup3\n        /* \"#utility.yul\":11262:11340   */\n      and\n        /* \"#utility.yul\":11251:11340   */\n      swap1\n      pop\n        /* \"#utility.yul\":11196:11346   */\n      swap2\n      swap1\n      pop\n      jump\t// out\n        /* \"#utility.yul\":11352:11459   */\n    tag_156:\n        /* \"#utility.yul\":11396:11404   */\n      0x00\n        /* \"#utility.yul\":11446:11451   */\n      dup3\n        /* \"#utility.yul\":11440:11444   */\n      dup3\n        /* \"#utility.yul\":11436:11452   */\n      shl\n        /* \"#utility.yul\":11415:11452   */\n      swap1\n      pop\n        /* \"#utility.yul\":11352:11459   */\n      swap3\n      swap2\n      pop\n      pop\n      jump\t// out\n        /* \"#utility.yul\":11465:12017   */\n    tag_65:\n        /* \"#utility.yul\":11556:11561   */\n      0x00\n        /* \"#utility.yul\":11587:11632   */\n      tag_316\n        /* \"#utility.yul\":11628:11631   */\n      dup4\n        /* \"#utility.yul\":11621:11626   */\n      dup4\n        /* \"#utility.yul\":11587:11632   */\n      tag_153\n      jump\t// in\n    tag_316:\n        /* \"#utility.yul\":11657:11662   */\n      dup3\n        /* \"#utility.yul\":11681:11722   */\n      tag_317\n        /* \"#utility.yul\":11712:11720   */\n      dup2\n        /* \"#utility.yul\":11699:11721   */\n      calldataload\n        /* \"#utility.yul\":11681:11722   */\n      tag_155\n      jump\t// in\n    tag_317:\n        /* \"#utility.yul\":11672:11722   */\n      swap3\n      pop\n        /* \"#utility.yul\":11746:11748   */\n      0x14\n        /* \"#utility.yul\":11738:11744   */\n      dup3\n        /* \"#utility.yul\":11735:11749   */\n      lt\n        /* \"#utility.yul\":11732:12010   */\n      iszero\n      tag_318\n      jumpi\n        /* \"#utility.yul\":11817:11986   */\n      tag_319\n        /* \"#utility.yul\":11902:11968   */\n      0xffffffffffffffffffffffffffffffffffffffff000000000000000000000000\n        /* \"#utility.yul\":11872:11878   */\n      dup4\n        /* \"#utility.yul\":11868:11870   */\n      0x14\n        /* \"#utility.yul\":11864:11879   */\n      sub\n        /* \"#utility.yul\":11861:11862   */\n      0x08\n        /* \"#utility.yul\":11857:11880   */\n      mul\n        /* \"#utility.yul\":11817:11986   */\n      tag_156\n      jump\t// in\n    tag_319:\n        /* \"#utility.yul\":11794:11799   */\n      dup4\n        /* \"#utility.yul\":11773:12000   */\n      and\n        /* \"#utility.yul\":11764:12000   */\n      swap3\n      pop\n        /* \"#utility.yul\":11732:12010   */\n    tag_318:\n        /* \"#utility.yul\":11562:12017   */\n      pop\n      pop\n        /* \"#utility.yul\":11465:12017   */\n      swap3\n      swap2\n      pop\n      pop\n      jump\t// out\n        /* \"#utility.yul\":12023:12243   */\n    tag_157:\n        /* \"#utility.yul\":12163:12197   */\n      0x4f6e6c79206f776e65722063616e2063616c6c20746869732066756e6374696f\n        /* \"#utility.yul\":12159:12160   */\n      0x00\n        /* \"#utility.yul\":12151:12157   */\n      dup3\n        /* \"#utility.yul\":12147:12161   */\n      add\n        /* \"#utility.yul\":12140:12198   */\n      mstore\n        /* \"#utility.yul\":12232:12235   */\n      0x6e00000000000000000000000000000000000000000000000000000000000000\n        /* \"#utility.yul\":12227:12229   */\n      0x20\n        /* \"#utility.yul\":12219:12225   */\n      dup3\n        /* \"#utility.yul\":12215:12230   */\n      add\n        /* \"#utility.yul\":12208:12236   */\n      mstore\n        /* \"#utility.yul\":12023:12243   */\n      pop\n      jump\t// out\n        /* \"#utility.yul\":12249:12615   */\n    tag_158:\n        /* \"#utility.yul\":12391:12394   */\n      0x00\n        /* \"#utility.yul\":12412:12479   */\n      tag_322\n        /* \"#utility.yul\":12476:12478   */\n      0x21\n        /* \"#utility.yul\":12471:12474   */\n      dup4\n        /* \"#utility.yul\":12412:12479   */\n      tag_128\n      jump\t// in\n    tag_322:\n        /* \"#utility.yul\":12405:12479   */\n      swap2\n      pop\n        /* \"#utility.yul\":12488:12581   */\n      tag_323\n        /* \"#utility.yul\":12577:12580   */\n      dup3\n        /* \"#utility.yul\":12488:12581   */\n      tag_157\n      jump\t// in\n    tag_323:\n        /* \"#utility.yul\":12606:12608   */\n      0x40\n        /* \"#utility.yul\":12601:12604   */\n      dup3\n        /* \"#utility.yul\":12597:12609   */\n      add\n        /* \"#utility.yul\":12590:12609   */\n      swap1\n      pop\n        /* \"#utility.yul\":12249:12615   */\n      swap2\n      swap1\n      pop\n      jump\t// out\n        /* \"#utility.yul\":12621:13040   */\n    tag_69:\n        /* \"#utility.yul\":12787:12791   */\n      0x00\n        /* \"#utility.yul\":12825:12827   */\n      0x20\n        /* \"#utility.yul\":12814:12823   */\n      dup3\n        /* \"#utility.yul\":12810:12828   */\n      add\n        /* \"#utility.yul\":12802:12828   */\n      swap1\n      pop\n        /* \"#utility.yul\":12874:12883   */\n      dup2\n        /* \"#utility.yul\":12868:12872   */\n      dup2\n        /* \"#utility.yul\":12864:12884   */\n      sub\n        /* \"#utility.yul\":12860:12861   */\n      0x00\n        /* \"#utility.yul\":12849:12858   */\n      dup4\n        /* \"#utility.yul\":12845:12862   */\n      add\n        /* \"#utility.yul\":12838:12885   */\n      mstore\n        /* \"#utility.yul\":12902:13033   */\n      tag_325\n        /* \"#utility.yul\":13028:13032   */\n      dup2\n        /* \"#utility.yul\":12902:13033   */\n      tag_158\n      jump\t// in\n    tag_325:\n        /* \"#utility.yul\":12894:13033   */\n      swap1\n      pop\n        /* \"#utility.yul\":12621:13040   */\n      swap2\n      swap1\n      pop\n      jump\t// out\n        /* \"#utility.yul\":13046:13187   */\n    tag_159:\n        /* \"#utility.yul\":13095:13099   */\n      0x00\n        /* \"#utility.yul\":13118:13121   */\n      dup2\n        /* \"#utility.yul\":13110:13121   */\n      swap1\n      pop\n        /* \"#utility.yul\":13141:13144   */\n      dup2\n        /* \"#utility.yul\":13138:13139   */\n      0x00\n        /* \"#utility.yul\":13131:13145   */\n      mstore\n        /* \"#utility.yul\":13175:13179   */\n      0x20\n        /* \"#utility.yul\":13172:13173   */\n      0x00\n        /* \"#utility.yul\":13162:13180   */\n      keccak256\n        /* \"#utility.yul\":13154:13180   */\n      swap1\n      pop\n        /* \"#utility.yul\":13046:13187   */\n      swap2\n      swap1\n      pop\n      jump\t// out\n        /* \"#utility.yul\":13193:13286   */\n    tag_160:\n        /* \"#utility.yul\":13230:13236   */\n      0x00\n        /* \"#utility.yul\":13277:13279   */\n      0x20\n        /* \"#utility.yul\":13272:13274   */\n      0x1f\n        /* \"#utility.yul\":13265:13270   */\n      dup4\n        /* \"#utility.yul\":13261:13275   */\n      add\n        /* \"#utility.yul\":13257:13280   */\n      div\n        /* \"#utility.yul\":13247:13280   */\n      swap1\n      pop\n        /* \"#utility.yul\":13193:13286   */\n      swap2\n      swap1\n      pop\n      jump\t// out\n        /* \"#utility.yul\":13292:13685   */\n    tag_161:\n        /* \"#utility.yul\":13361:13367   */\n      0x00\n        /* \"#utility.yul\":13411:13412   */\n      0x08\n        /* \"#utility.yul\":13399:13409   */\n      dup4\n        /* \"#utility.yul\":13395:13413   */\n      mul\n        /* \"#utility.yul\":13434:13531   */\n      tag_329\n        /* \"#utility.yul\":13464:13530   */\n      0xffffffffffffffffffffffffffffffffffffffffffffffffffffffffffffffff\n        /* \"#utility.yul\":13453:13462   */\n      dup3\n        /* \"#utility.yul\":13434:13531   */\n      tag_156\n      jump\t// in\n    tag_329:\n        /* \"#utility.yul\":13552:13591   */\n      tag_330\n        /* \"#utility.yul\":13582:13590   */\n      dup7\n        /* \"#utility.yul\":13571:13580   */\n      dup4\n        /* \"#utility.yul\":13552:13591   */\n      tag_156\n      jump\t// in\n    tag_330:\n        /* \"#utility.yul\":13540:13591   */\n      swap6\n      pop\n        /* \"#utility.yul\":13624:13628   */\n      dup1\n        /* \"#utility.yul\":13620:13629   */\n      not\n        /* \"#utility.yul\":13613:13618   */\n      dup5\n        /* \"#utility.yul\":13609:13630   */\n      and\n        /* \"#utility.yul\":13600:13630   */\n      swap4\n      pop\n        /* \"#utility.yul\":13673:13677   */\n      dup1\n        /* \"#utility.yul\":13663:13671   */\n      dup7\n        /* \"#utility.yul\":13659:13678   */\n      and\n        /* \"#utility.yul\":13652:13657   */\n      dup5\n        /* \"#utility.yul\":13649:13679   */\n      or\n        /* \"#utility.yul\":13639:13679   */\n      swap3\n      pop\n        /* \"#utility.yul\":13368:13685   */\n      pop\n      pop\n        /* \"#utility.yul\":13292:13685   */\n      swap4\n      swap3\n      pop\n      pop\n      pop\n      jump\t// out\n        /* \"#utility.yul\":13691:13751   */\n    tag_162:\n        /* \"#utility.yul\":13719:13722   */\n      0x00\n        /* \"#utility.yul\":13740:13745   */\n      dup2\n        /* \"#utility.yul\":13733:13745   */\n      swap1\n      pop\n        /* \"#utility.yul\":13691:13751   */\n      swap2\n      swap1\n      pop\n      jump\t// out\n        /* \"#utility.yul\":13757:13899   */\n    tag_163:\n        /* \"#utility.yul\":13807:13816   */\n      0x00\n        /* \"#utility.yul\":13840:13893   */\n      tag_333\n        /* \"#utility.yul\":13858:13892   */\n      tag_334\n        /* \"#utility.yul\":13867:13891   */\n      tag_335\n        /* \"#utility.yul\":13885:13890   */\n      dup5\n        /* \"#utility.yul\":13867:13891   */\n      tag_124\n      jump\t// in\n    tag_335:\n        /* \"#utility.yul\":13858:13892   */\n      tag_162\n      jump\t// in\n    tag_334:\n        /* \"#utility.yul\":13840:13893   */\n      tag_124\n      jump\t// in\n    tag_333:\n        /* \"#utility.yul\":13827:13893   */\n      swap1\n      pop\n        /* \"#utility.yul\":13757:13899   */\n      swap2\n      swap1\n      pop\n      jump\t// out\n        /* \"#utility.yul\":13905:13980   */\n    tag_164:\n        /* \"#utility.yul\":13948:13951   */\n      0x00\n        /* \"#utility.yul\":13969:13974   */\n      dup2\n        /* \"#utility.yul\":13962:13974   */\n      swap1\n      pop\n        /* \"#utility.yul\":13905:13980   */\n      swap2\n      swap1\n      pop\n      jump\t// out\n        /* \"#utility.yul\":13986:14255   */\n    tag_165:\n        /* \"#utility.yul\":14096:14135   */\n      tag_338\n        /* \"#utility.yul\":14127:14134   */\n      dup4\n        /* \"#utility.yul\":14096:14135   */\n      tag_163\n      jump\t// in\n    tag_338:\n        /* \"#utility.yul\":14157:14248   */\n      tag_339\n        /* \"#utility.yul\":14206:14247   */\n      tag_340\n        /* \"#utility.yul\":14230:14246   */\n      dup3\n        /* \"#utility.yul\":14206:14247   */\n      tag_164\n      jump\t// in\n    tag_340:\n        /* \"#utility.yul\":14198:14204   */\n      dup5\n        /* \"#utility.yul\":14191:14195   */\n      dup5\n        /* \"#utility.yul\":14185:14196   */\n      sload\n        /* \"#utility.yul\":14157:14248   */\n      tag_161\n      jump\t// in\n    tag_339:\n        /* \"#utility.yul\":14151:14155   */\n      dup3\n        /* \"#utility.yul\":14144:14249   */\n      sstore\n        /* \"#utility.yul\":14062:14255   */\n      pop\n        /* \"#utility.yul\":13986:14255   */\n      pop\n      pop\n      pop\n      jump\t// out\n        /* \"#utility.yul\":14261:14334   */\n    tag_166:\n        /* \"#utility.yul\":14306:14309   */\n      0x00\n        /* \"#utility.yul\":14261:14334   */\n      swap1\n      jump\t// out\n        /* \"#utility.yul\":14340:14529   */\n    tag_167:\n        /* \"#utility.yul\":14417:14449   */\n      tag_343\n      tag_166\n      jump\t// in\n    tag_343:\n        /* \"#utility.yul\":14458:14523   */\n      tag_344\n        /* \"#utility.yul\":14516:14522   */\n      dup2\n        /* \"#utility.yul\":14508:14514   */\n      dup5\n        /* \"#utility.yul\":14502:14506   */\n      dup5\n        /* \"#utility.yul\":14458:14523   */\n      tag_165\n      jump\t// in\n    tag_344:\n        /* \"#utility.yul\":14393:14529   */\n      pop\n        /* \"#utility.yul\":14340:14529   */\n      pop\n      pop\n      jump\t// out\n        /* \"#utility.yul\":14535:14721   */\n    tag_168:\n        /* \"#utility.yul\":14595:14715   */\n    tag_346:\n        /* \"#utility.yul\":14612:14615   */\n      dup2\n        /* \"#utility.yul\":14605:14610   */\n      dup2\n        /* \"#utility.yul\":14602:14616   */\n      lt\n        /* \"#utility.yul\":14595:14715   */\n      iszero\n      tag_348\n      jumpi\n        /* \"#utility.yul\":14666:14705   */\n      tag_349\n        /* \"#utility.yul\":14703:14704   */\n      0x00\n        /* \"#utility.yul\":14696:14701   */\n      dup3\n        /* \"#utility.yul\":14666:14705   */\n      tag_167\n      jump\t// in\n    tag_349:\n        /* \"#utility.yul\":14639:14640   */\n      0x01\n        /* \"#utility.yul\":14632:14637   */\n      dup2\n        /* \"#utility.yul\":14628:14641   */\n      add\n        /* \"#utility.yul\":14619:14641   */\n      swap1\n      pop\n        /* \"#utility.yul\":14595:14715   */\n      jump(tag_346)\n    tag_348:\n        /* \"#utility.yul\":14535:14721   */\n      pop\n      pop\n      jump\t// out\n        /* \"#utility.yul\":14727:15270   */\n    tag_169:\n        /* \"#utility.yul\":14828:14830   */\n      0x1f\n        /* \"#utility.yul\":14823:14826   */\n      dup3\n        /* \"#utility.yul\":14820:14831   */\n      gt\n        /* \"#utility.yul\":14817:15263   */\n      iszero\n      tag_351\n      jumpi\n        /* \"#utility.yul\":14862:14900   */\n      tag_352\n        /* \"#utility.yul\":14894:14899   */\n      dup2\n        /* \"#utility.yul\":14862:14900   */\n      tag_159\n      jump\t// in\n    tag_352:\n        /* \"#utility.yul\":14946:14975   */\n      tag_353\n        /* \"#utility.yul\":14964:14974   */\n      dup5\n        /* \"#utility.yul\":14946:14975   */\n      tag_160\n      jump\t// in\n    tag_353:\n        /* \"#utility.yul\":14936:14944   */\n      dup2\n        /* \"#utility.yul\":14932:14976   */\n      add\n        /* \"#utility.yul\":15129:15131   */\n      0x20\n        /* \"#utility.yul\":15117:15127   */\n      dup6\n        /* \"#utility.yul\":15114:15132   */\n      lt\n        /* \"#utility.yul\":15111:15160   */\n      iszero\n      tag_354\n      jumpi\n        /* \"#utility.yul\":15150:15158   */\n      dup2\n        /* \"#utility.yul\":15135:15158   */\n      swap1\n      pop\n        /* \"#utility.yul\":15111:15160   */\n    tag_354:\n        /* \"#utility.yul\":15173:15253   */\n      tag_355\n        /* \"#utility.yul\":15229:15251   */\n      tag_356\n        /* \"#utility.yul\":15247:15250   */\n      dup6\n        /* \"#utility.yul\":15229:15251   */\n      tag_160\n      jump\t// in\n    tag_356:\n        /* \"#utility.yul\":15219:15227   */\n      dup4\n        /* \"#utility.yul\":15215:15252   */\n      add\n        /* \"#utility.yul\":15202:15213   */\n      dup3\n        /* \"#utility.yul\":15173:15253   */\n      tag_168\n      jump\t// in\n    tag_355:\n        /* \"#utility.yul\":14832:15263   */\n      pop\n      pop\n        /* \"#utility.yul\":14817:15263   */\n    tag_351:\n        /* \"#utility.yul\":14727:15270   */\n      pop\n      pop\n      pop\n      jump\t// out\n        /* \"#utility.yul\":15276:15393   */\n    tag_170:\n        /* \"#utility.yul\":15330:15338   */\n      0x00\n        /* \"#utility.yul\":15380:15385   */\n      dup3\n        /* \"#utility.yul\":15374:15378   */\n      dup3\n        /* \"#utility.yul\":15370:15386   */\n      shr\n        /* \"#utility.yul\":15349:15386   */\n      swap1\n      pop\n        /* \"#utility.yul\":15276:15393   */\n      swap3\n      swap2\n      pop\n      pop\n      jump\t// out\n        /* \"#utility.yul\":15399:15568   */\n    tag_171:\n        /* \"#utility.yul\":15443:15449   */\n      0x00\n        /* \"#utility.yul\":15476:15527   */\n      tag_359\n        /* \"#utility.yul\":15524:15525   */\n      0x00\n        /* \"#utility.yul\":15520:15526   */\n      not\n        /* \"#utility.yul\":15512:15517   */\n      dup5\n        /* \"#utility.yul\":15509:15510   */\n      0x08\n        /* \"#utility.yul\":15505:15518   */\n      mul\n        /* \"#utility.yul\":15476:15527   */\n      tag_170\n      jump\t// in\n    tag_359:\n        /* \"#utility.yul\":15472:15528   */\n      not\n        /* \"#utility.yul\":15557:15561   */\n      dup1\n        /* \"#utility.yul\":15551:15555   */\n      dup4\n        /* \"#utility.yul\":15547:15562   */\n      and\n        /* \"#utility.yul\":15537:15562   */\n      swap2\n      pop\n        /* \"#utility.yul\":15450:15568   */\n      pop\n        /* \"#utility.yul\":15399:15568   */\n      swap3\n      swap2\n      pop\n      pop\n      jump\t// out\n        /* \"#utility.yul\":15573:15868   */\n    tag_172:\n        /* \"#utility.yul\":15649:15653   */\n      0x00\n        /* \"#utility.yul\":15795:15824   */\n      tag_361\n        /* \"#utility.yul\":15820:15823   */\n      dup4\n        /* \"#utility.yul\":15814:15818   */\n      dup4\n        /* \"#utility.yul\":15795:15824   */\n      tag_171\n      jump\t// in\n    tag_361:\n        /* \"#utility.yul\":15787:15824   */\n      swap2\n      pop\n        /* \"#utility.yul\":15857:15860   */\n      dup3\n        /* \"#utility.yul\":15854:15855   */\n      0x02\n        /* \"#utility.yul\":15850:15861   */\n      mul\n        /* \"#utility.yul\":15844:15848   */\n      dup3\n        /* \"#utility.yul\":15841:15862   */\n      or\n        /* \"#utility.yul\":15833:15862   */\n      swap1\n      pop\n        /* \"#utility.yul\":15573:15868   */\n      swap3\n      swap2\n      pop\n      pop\n      jump\t// out\n        /* \"#utility.yul\":15873:17268   */\n    tag_73:\n        /* \"#utility.yul\":15990:16027   */\n      tag_363\n        /* \"#utility.yul\":16023:16026   */\n      dup3\n        /* \"#utility.yul\":15990:16027   */\n      tag_127\n      jump\t// in\n    tag_363:\n        /* \"#utility.yul\":16092:16110   */\n      0xffffffffffffffff\n        /* \"#utility.yul\":16084:16090   */\n      dup2\n        /* \"#utility.yul\":16081:16111   */\n      gt\n        /* \"#utility.yul\":16078:16134   */\n      iszero\n      tag_364\n      jumpi\n        /* \"#utility.yul\":16114:16132   */\n      tag_365\n      tag_134\n      jump\t// in\n    tag_365:\n        /* \"#utility.yul\":16078:16134   */\n    tag_364:\n        /* \"#utility.yul\":16158:16196   */\n      tag_366\n        /* \"#utility.yul\":16190:16194   */\n      dup3\n        /* \"#utility.yul\":16184:16195   */\n      sload\n        /* \"#utility.yul\":16158:16196   */\n      tag_58\n      jump\t// in\n    tag_366:\n        /* \"#utility.yul\":16243:16310   */\n      tag_367\n        /* \"#utility.yul\":16303:16309   */\n      dup3\n        /* \"#utility.yul\":16295:16301   */\n      dup3\n        /* \"#utility.yul\":16289:16293   */\n      dup6\n        /* \"#utility.yul\":16243:16310   */\n      tag_169\n      jump\t// in\n    tag_367:\n        /* \"#utility.yul\":16337:16338   */\n      0x00\n        /* \"#utility.yul\":16361:16365   */\n      0x20\n        /* \"#utility.yul\":16348:16365   */\n      swap1\n      pop\n        /* \"#utility.yul\":16393:16395   */\n      0x1f\n        /* \"#utility.yul\":16385:16391   */\n      dup4\n        /* \"#utility.yul\":16382:16396   */\n      gt\n        /* \"#utility.yul\":16410:16411   */\n      0x01\n        /* \"#utility.yul\":16405:17023   */\n      dup2\n      eq\n      tag_369\n      jumpi\n        /* \"#utility.yul\":17067:17068   */\n      0x00\n        /* \"#utility.yul\":17084:17090   */\n      dup5\n        /* \"#utility.yul\":17081:17158   */\n      iszero\n      tag_370\n      jumpi\n        /* \"#utility.yul\":17133:17142   */\n      dup3\n        /* \"#utility.yul\":17128:17131   */\n      dup8\n        /* \"#utility.yul\":17124:17143   */\n      add\n        /* \"#utility.yul\":17118:17144   */\n      mload\n        /* \"#utility.yul\":17109:17144   */\n      swap1\n      pop\n        /* \"#utility.yul\":17081:17158   */\n    tag_370:\n        /* \"#utility.yul\":17184:17251   */\n      tag_371\n        /* \"#utility.yul\":17244:17250   */\n      dup6\n        /* \"#utility.yul\":17237:17242   */\n      dup3\n        /* \"#utility.yul\":17184:17251   */\n      tag_172\n      jump\t// in\n    tag_371:\n        /* \"#utility.yul\":17178:17182   */\n      dup7\n        /* \"#utility.yul\":17171:17252   */\n      sstore\n        /* \"#utility.yul\":17040:17262   */\n      pop\n        /* \"#utility.yul\":16375:17262   */\n      jump(tag_368)\n        /* \"#utility.yul\":16405:17023   */\n    tag_369:\n        /* \"#utility.yul\":16457:16461   */\n      0x1f\n        /* \"#utility.yul\":16453:16462   */\n      not\n        /* \"#utility.yul\":16445:16451   */\n      dup5\n        /* \"#utility.yul\":16441:16463   */\n      and\n        /* \"#utility.yul\":16491:16528   */\n      tag_372\n        /* \"#utility.yul\":16523:16527   */\n      dup7\n        /* \"#utility.yul\":16491:16528   */\n      tag_159\n      jump\t// in\n    tag_372:\n        /* \"#utility.yul\":16550:16551   */\n      0x00\n        /* \"#utility.yul\":16564:16772   */\n    tag_373:\n        /* \"#utility.yul\":16578:16585   */\n      dup3\n        /* \"#utility.yul\":16575:16576   */\n      dup2\n        /* \"#utility.yul\":16572:16586   */\n      lt\n        /* \"#utility.yul\":16564:16772   */\n      iszero\n      tag_375\n      jumpi\n        /* \"#utility.yul\":16657:16666   */\n      dup5\n        /* \"#utility.yul\":16652:16655   */\n      dup10\n        /* \"#utility.yul\":16648:16667   */\n      add\n        /* \"#utility.yul\":16642:16668   */\n      mload\n        /* \"#utility.yul\":16634:16640   */\n      dup3\n        /* \"#utility.yul\":16627:16669   */\n      sstore\n        /* \"#utility.yul\":16708:16709   */\n      0x01\n        /* \"#utility.yul\":16700:16706   */\n      dup3\n        /* \"#utility.yul\":16696:16710   */\n      add\n        /* \"#utility.yul\":16686:16710   */\n      swap2\n      pop\n        /* \"#utility.yul\":16755:16757   */\n      0x20\n        /* \"#utility.yul\":16744:16753   */\n      dup6\n        /* \"#utility.yul\":16740:16758   */\n      add\n        /* \"#utility.yul\":16727:16758   */\n      swap5\n      pop\n        /* \"#utility.yul\":16601:16605   */\n      0x20\n        /* \"#utility.yul\":16598:16599   */\n      dup2\n        /* \"#utility.yul\":16594:16606   */\n      add\n        /* \"#utility.yul\":16589:16606   */\n      swap1\n      pop\n        /* \"#utility.yul\":16564:16772   */\n      jump(tag_373)\n    tag_375:\n        /* \"#utility.yul\":16800:16806   */\n      dup7\n        /* \"#utility.yul\":16791:16798   */\n      dup4\n        /* \"#utility.yul\":16788:16807   */\n      lt\n        /* \"#utility.yul\":16785:16964   */\n      iszero\n      tag_376\n      jumpi\n        /* \"#utility.yul\":16858:16867   */\n      dup5\n        /* \"#utility.yul\":16853:16856   */\n      dup10\n        /* \"#utility.yul\":16849:16868   */\n      add\n        /* \"#utility.yul\":16843:16869   */\n      mload\n        /* \"#utility.yul\":16901:16949   */\n      tag_377\n        /* \"#utility.yul\":16943:16947   */\n      0x1f\n        /* \"#utility.yul\":16935:16941   */\n      dup10\n        /* \"#utility.yul\":16931:16948   */\n      and\n        /* \"#utility.yul\":16920:16929   */\n      dup3\n        /* \"#utility.yul\":16901:16949   */\n      tag_171\n      jump\t// in\n    tag_377:\n        /* \"#utility.yul\":16893:16899   */\n      dup4\n        /* \"#utility.yul\":16886:16950   */\n      sstore\n        /* \"#utility.yul\":16808:16964   */\n      pop\n        /* \"#utility.yul\":16785:16964   */\n    tag_376:\n        /* \"#utility.yul\":17010:17011   */\n      0x01\n        /* \"#utility.yul\":17006:17007   */\n      0x02\n        /* \"#utility.yul\":16998:17004   */\n      dup9\n        /* \"#utility.yul\":16994:17008   */\n      mul\n        /* \"#utility.yul\":16990:17012   */\n      add\n        /* \"#utility.yul\":16984:16988   */\n      dup9\n        /* \"#utility.yul\":16977:17013   */\n      sstore\n        /* \"#utility.yul\":16412:17023   */\n      pop\n      pop\n      pop\n        /* \"#utility.yul\":16375:17262   */\n    tag_368:\n      pop\n        /* \"#utility.yul\":15965:17268   */\n      pop\n      pop\n      pop\n        /* \"#utility.yul\":15873:17268   */\n      pop\n      pop\n      jump\t// out\n        /* \"#utility.yul\":17274:17454   */\n    tag_83:\n        /* \"#utility.yul\":17322:17399   */\n      0x4e487b7100000000000000000000000000000000000000000000000000000000\n        /* \"#utility.yul\":17319:17320   */\n      0x00\n        /* \"#utility.yul\":17312:17400   */\n      mstore\n        /* \"#utility.yul\":17419:17423   */\n      0x32\n        /* \"#utility.yul\":17416:17417   */\n      0x04\n        /* \"#utility.yul\":17409:17424   */\n      mstore\n        /* \"#utility.yul\":17443:17447   */\n      0x24\n        /* \"#utility.yul\":17440:17441   */\n      0x00\n        /* \"#utility.yul\":17433:17448   */\n      revert\n        /* \"#utility.yul\":17460:17612   */\n    tag_173:\n        /* \"#utility.yul\":17512:17518   */\n      0x00\n        /* \"#utility.yul\":17546:17551   */\n      dup2\n        /* \"#utility.yul\":17540:17552   */\n      sload\n        /* \"#utility.yul\":17530:17552   */\n      swap1\n      pop\n        /* \"#utility.yul\":17572:17605   */\n      tag_380\n        /* \"#utility.yul\":17598:17604   */\n      dup2\n        /* \"#utility.yul\":17572:17605   */\n      tag_58\n      jump\t// in\n    tag_380:\n        /* \"#utility.yul\":17562:17605   */\n      swap1\n      pop\n        /* \"#utility.yul\":17460:17612   */\n      swap2\n      swap1\n      pop\n      jump\t// out\n        /* \"#utility.yul\":17618:17762   */\n    tag_174:\n        /* \"#utility.yul\":17670:17674   */\n      0x00\n        /* \"#utility.yul\":17693:17696   */\n      dup2\n        /* \"#utility.yul\":17685:17696   */\n      swap1\n      pop\n        /* \"#utility.yul\":17716:17719   */\n      dup2\n        /* \"#utility.yul\":17713:17714   */\n      0x00\n        /* \"#utility.yul\":17706:17720   */\n      mstore\n        /* \"#utility.yul\":17750:17754   */\n      0x20\n        /* \"#utility.yul\":17747:17748   */\n      0x00\n        /* \"#utility.yul\":17737:17755   */\n      keccak256\n        /* \"#utility.yul\":17729:17755   */\n      swap1\n      pop\n        /* \"#utility.yul\":17618:17762   */\n      swap2\n      swap1\n      pop\n      jump\t// out\n        /* \"#utility.yul\":17768:17872   */\n    tag_175:\n        /* \"#utility.yul\":17811:17819   */\n      0x00\n        /* \"#utility.yul\":17859:17864   */\n      dup2\n        /* \"#utility.yul\":17855:17857   */\n      0x60\n        /* \"#utility.yul\":17851:17865   */\n      shr\n        /* \"#utility.yul\":17830:17865   */\n      swap1\n      pop\n        /* \"#utility.yul\":17768:17872   */\n      swap2\n      swap1\n      pop\n      jump\t// out\n        /* \"#utility.yul\":17878:17972   */\n    tag_176:\n        /* \"#utility.yul\":17911:17919   */\n      0x00\n        /* \"#utility.yul\":17959:17964   */\n      dup2\n        /* \"#utility.yul\":17955:17957   */\n      0x60\n        /* \"#utility.yul\":17951:17965   */\n      shl\n        /* \"#utility.yul\":17930:17965   */\n      swap1\n      pop\n        /* \"#utility.yul\":17878:17972   */\n      swap2\n      swap1\n      pop\n      jump\t// out\n        /* \"#utility.yul\":17978:18083   */\n    tag_177:\n        /* \"#utility.yul\":18028:18035   */\n      0x00\n        /* \"#utility.yul\":18057:18077   */\n      tag_385\n        /* \"#utility.yul\":18071:18076   */\n      dup3\n        /* \"#utility.yul\":18057:18077   */\n      tag_176\n      jump\t// in\n    tag_385:\n        /* \"#utility.yul\":18046:18077   */\n      swap1\n      pop\n        /* \"#utility.yul\":17978:18083   */\n      swap2\n      swap1\n      pop\n      jump\t// out\n        /* \"#utility.yul\":18089:18257   */\n    tag_178:\n        /* \"#utility.yul\":18159:18164   */\n      0x00\n        /* \"#utility.yul\":18184:18251   */\n      tag_387\n        /* \"#utility.yul\":18215:18250   */\n      tag_388\n        /* \"#utility.yul\":18239:18249   */\n      dup4\n        /* \"#utility.yul\":18215:18250   */\n      tag_175\n      jump\t// in\n    tag_388:\n        /* \"#utility.yul\":18184:18251   */\n      tag_177\n      jump\t// in\n    tag_387:\n        /* \"#utility.yul\":18175:18251   */\n      swap1\n      pop\n        /* \"#utility.yul\":18089:18257   */\n      swap2\n      swap1\n      pop\n      jump\t// out\n        /* \"#utility.yul\":18263:18409   */\n    tag_179:\n        /* \"#utility.yul\":18319:18324   */\n      0x00\n        /* \"#utility.yul\":18344:18402   */\n      tag_390\n        /* \"#utility.yul\":18396:18400   */\n      dup3\n        /* \"#utility.yul\":18390:18401   */\n      sload\n        /* \"#utility.yul\":18344:18402   */\n      tag_178\n      jump\t// in\n    tag_390:\n        /* \"#utility.yul\":18335:18402   */\n      swap1\n      pop\n        /* \"#utility.yul\":18263:18409   */\n      swap2\n      swap1\n      pop\n      jump\t// out\n        /* \"#utility.yul\":18415:19046   */\n    tag_86:\n        /* \"#utility.yul\":18500:18505   */\n      0x00\n        /* \"#utility.yul\":18531:18570   */\n      tag_392\n        /* \"#utility.yul\":18564:18569   */\n      dup3\n        /* \"#utility.yul\":18531:18570   */\n      tag_173\n      jump\t// in\n    tag_392:\n        /* \"#utility.yul\":18595:18600   */\n      dup3\n        /* \"#utility.yul\":18624:18626   */\n      0x1f\n        /* \"#utility.yul\":18616:18622   */\n      dup3\n        /* \"#utility.yul\":18613:18627   */\n      gt\n        /* \"#utility.yul\":18610:18685   */\n      iszero\n      tag_393\n      jumpi\n        /* \"#utility.yul\":18642:18683   */\n      tag_394\n        /* \"#utility.yul\":18677:18682   */\n      dup5\n        /* \"#utility.yul\":18642:18683   */\n      tag_174\n      jump\t// in\n    tag_394:\n        /* \"#utility.yul\":18630:18683   */\n      swap1\n      pop\n        /* \"#utility.yul\":18610:18685   */\n    tag_393:\n        /* \"#utility.yul\":18704:18751   */\n      tag_395\n        /* \"#utility.yul\":18742:18750   */\n      dup2\n        /* \"#utility.yul\":18704:18751   */\n      tag_179\n      jump\t// in\n    tag_395:\n        /* \"#utility.yul\":18695:18751   */\n      swap3\n      pop\n        /* \"#utility.yul\":18775:18777   */\n      0x14\n        /* \"#utility.yul\":18767:18773   */\n      dup3\n        /* \"#utility.yul\":18764:18778   */\n      lt\n        /* \"#utility.yul\":18761:19039   */\n      iszero\n      tag_396\n      jumpi\n        /* \"#utility.yul\":18846:19015   */\n      tag_397\n        /* \"#utility.yul\":18931:18997   */\n      0xffffffffffffffffffffffffffffffffffffffff000000000000000000000000\n        /* \"#utility.yul\":18901:18907   */\n      dup4\n        /* \"#utility.yul\":18897:18899   */\n      0x14\n        /* \"#utility.yul\":18893:18908   */\n      sub\n        /* \"#utility.yul\":18890:18891   */\n      0x08\n        /* \"#utility.yul\":18886:18909   */\n      mul\n        /* \"#utility.yul\":18846:19015   */\n      tag_156\n      jump\t// in\n    tag_397:\n        /* \"#utility.yul\":18823:18828   */\n      dup4\n        /* \"#utility.yul\":18802:19029   */\n      and\n        /* \"#utility.yul\":18793:19029   */\n      swap3\n      pop\n        /* \"#utility.yul\":18761:19039   */\n    tag_396:\n        /* \"#utility.yul\":18506:19046   */\n      pop\n      pop\n        /* \"#utility.yul\":18415:19046   */\n      swap2\n      swap1\n      pop\n      jump\t// out\n        /* \"#utility.yul\":19052:19222   */\n    tag_180:\n        /* \"#utility.yul\":19192:19214   */\n      0x566f746572206e6f742072656769737465726564000000000000000000000000\n        /* \"#utility.yul\":19188:19189   */\n      0x00\n        /* \"#utility.yul\":19180:19186   */\n      dup3\n        /* \"#utility.yul\":19176:19190   */\n      add\n        /* \"#utility.yul\":19169:19215   */\n      mstore\n        /* \"#utility.yul\":19052:19222   */\n      pop\n      jump\t// out\n        /* \"#utility.yul\":19228:19594   */\n    tag_181:\n        /* \"#utility.yul\":19370:19373   */\n      0x00\n        /* \"#utility.yul\":19391:19458   */\n      tag_400\n        /* \"#utility.yul\":19455:19457   */\n      0x14\n        /* \"#utility.yul\":19450:19453   */\n      dup4\n        /* \"#utility.yul\":19391:19458   */\n      tag_128\n      jump\t// in\n    tag_400:\n        /* \"#utility.yul\":19384:19458   */\n      swap2\n      pop\n        /* \"#utility.yul\":19467:19560   */\n      tag_401\n        /* \"#utility.yul\":19556:19559   */\n      dup3\n        /* \"#utility.yul\":19467:19560   */\n      tag_180\n      jump\t// in\n    tag_401:\n        /* \"#utility.yul\":19585:19587   */\n      0x20\n        /* \"#utility.yul\":19580:19583   */\n      dup3\n        /* \"#utility.yul\":19576:19588   */\n      add\n        /* \"#utility.yul\":19569:19588   */\n      swap1\n      pop\n        /* \"#utility.yul\":19228:19594   */\n      swap2\n      swap1\n      pop\n      jump\t// out\n        /* \"#utility.yul\":19600:20019   */\n    tag_104:\n        /* \"#utility.yul\":19766:19770   */\n      0x00\n        /* \"#utility.yul\":19804:19806   */\n      0x20\n        /* \"#utility.yul\":19793:19802   */\n      dup3\n        /* \"#utility.yul\":19789:19807   */\n      add\n        /* \"#utility.yul\":19781:19807   */\n      swap1\n      pop\n        /* \"#utility.yul\":19853:19862   */\n      dup2\n        /* \"#utility.yul\":19847:19851   */\n      dup2\n        /* \"#utility.yul\":19843:19863   */\n      sub\n        /* \"#utility.yul\":19839:19840   */\n      0x00\n        /* \"#utility.yul\":19828:19837   */\n      dup4\n        /* \"#utility.yul\":19824:19841   */\n      add\n        /* \"#utility.yul\":19817:19864   */\n      mstore\n        /* \"#utility.yul\":19881:20012   */\n      tag_403\n        /* \"#utility.yul\":20007:20011   */\n      dup2\n        /* \"#utility.yul\":19881:20012   */\n      tag_181\n      jump\t// in\n    tag_403:\n        /* \"#utility.yul\":19873:20012   */\n      swap1\n      pop\n        /* \"#utility.yul\":19600:20019   */\n      swap2\n      swap1\n      pop\n      jump\t// out\n        /* \"#utility.yul\":20025:20173   */\n    tag_182:\n        /* \"#utility.yul\":20127:20138   */\n      0x00\n        /* \"#utility.yul\":20164:20167   */\n      dup2\n        /* \"#utility.yul\":20149:20167   */\n      swap1\n      pop\n        /* \"#utility.yul\":20025:20173   */\n      swap3\n      swap2\n      pop\n      pop\n      jump\t// out\n        /* \"#utility.yul\":20203:20533   */\n    tag_183:\n        /* \"#utility.yul\":20319:20322   */\n      0x00\n        /* \"#utility.yul\":20340:20429   */\n      tag_406\n        /* \"#utility.yul\":20422:20428   */\n      dup4\n        /* \"#utility.yul\":20417:20420   */\n      dup6\n        /* \"#utility.yul\":20340:20429   */\n      tag_182\n      jump\t// in\n    tag_406:\n        /* \"#utility.yul\":20333:20429   */\n      swap4\n      pop\n        /* \"#utility.yul\":20439:20495   */\n      tag_407\n        /* \"#utility.yul\":20488:20494   */\n      dup4\n        /* \"#utility.yul\":20483:20486   */\n      dup6\n        /* \"#utility.yul\":20476:20481   */\n      dup5\n        /* \"#utility.yul\":20439:20495   */\n      tag_138\n      jump\t// in\n    tag_407:\n        /* \"#utility.yul\":20520:20526   */\n      dup3\n        /* \"#utility.yul\":20515:20518   */\n      dup5\n        /* \"#utility.yul\":20511:20527   */\n      add\n        /* \"#utility.yul\":20504:20527   */\n      swap1\n      pop\n        /* \"#utility.yul\":20203:20533   */\n      swap4\n      swap3\n      pop\n      pop\n      pop\n      jump\t// out\n        /* \"#utility.yul\":20539:20834   */\n    tag_106:\n        /* \"#utility.yul\":20681:20684   */\n      0x00\n        /* \"#utility.yul\":20703:20808   */\n      tag_409\n        /* \"#utility.yul\":20804:20807   */\n      dup3\n        /* \"#utility.yul\":20795:20801   */\n      dup5\n        /* \"#utility.yul\":20787:20793   */\n      dup7\n        /* \"#utility.yul\":20703:20808   */\n      tag_183\n      jump\t// in\n    tag_409:\n        /* \"#utility.yul\":20696:20808   */\n      swap2\n      pop\n        /* \"#utility.yul\":20825:20828   */\n      dup2\n        /* \"#utility.yul\":20818:20828   */\n      swap1\n      pop\n        /* \"#utility.yul\":20539:20834   */\n      swap4\n      swap3\n      pop\n      pop\n      pop\n      jump\t// out\n        /* \"#utility.yul\":20840:21068   */\n    tag_184:\n        /* \"#utility.yul\":20980:21014   */\n      0x596f75206861766520616c726561647920766f74656420666f72207468697320\n        /* \"#utility.yul\":20976:20977   */\n      0x00\n        /* \"#utility.yul\":20968:20974   */\n      dup3\n        /* \"#utility.yul\":20964:20978   */\n      add\n        /* \"#utility.yul\":20957:21015   */\n      mstore\n        /* \"#utility.yul\":21049:21060   */\n      0x63616e6469646174650000000000000000000000000000000000000000000000\n        /* \"#utility.yul\":21044:21046   */\n      0x20\n        /* \"#utility.yul\":21036:21042   */\n      dup3\n        /* \"#utility.yul\":21032:21047   */\n      add\n        /* \"#utility.yul\":21025:21061   */\n      mstore\n        /* \"#utility.yul\":20840:21068   */\n      pop\n      jump\t// out\n        /* \"#utility.yul\":21074:21440   */\n    tag_185:\n        /* \"#utility.yul\":21216:21219   */\n      0x00\n        /* \"#utility.yul\":21237:21304   */\n      tag_412\n        /* \"#utility.yul\":21301:21303   */\n      0x29\n        /* \"#utility.yul\":21296:21299   */\n      dup4\n        /* \"#utility.yul\":21237:21304   */\n      tag_128\n      jump\t// in\n    tag_412:\n        /* \"#utility.yul\":21230:21304   */\n      swap2\n      pop\n        /* \"#utility.yul\":21313:21406   */\n      tag_413\n        /* \"#utility.yul\":21402:21405   */\n      dup3\n        /* \"#utility.yul\":21313:21406   */\n      tag_184\n      jump\t// in\n    tag_413:\n        /* \"#utility.yul\":21431:21433   */\n      0x40\n        /* \"#utility.yul\":21426:21429   */\n      dup3\n        /* \"#utility.yul\":21422:21434   */\n      add\n        /* \"#utility.yul\":21415:21434   */\n      swap1\n      pop\n        /* \"#utility.yul\":21074:21440   */\n      swap2\n      swap1\n      pop\n      jump\t// out\n        /* \"#utility.yul\":21446:21865   */\n    tag_109:\n        /* \"#utility.yul\":21612:21616   */\n      0x00\n        /* \"#utility.yul\":21650:21652   */\n      0x20\n        /* \"#utility.yul\":21639:21648   */\n      dup3\n        /* \"#utility.yul\":21635:21653   */\n      add\n        /* \"#utility.yul\":21627:21653   */\n      swap1\n      pop\n        /* \"#utility.yul\":21699:21708   */\n      dup2\n        /* \"#utility.yul\":21693:21697   */\n      dup2\n        /* \"#utility.yul\":21689:21709   */\n      sub\n        /* \"#utility.yul\":21685:21686   */\n      0x00\n        /* \"#utility.yul\":21674:21683   */\n      dup4\n        /* \"#utility.yul\":21670:21687   */\n      add\n        /* \"#utility.yul\":21663:21710   */\n      mstore\n        /* \"#utility.yul\":21727:21858   */\n      tag_415\n        /* \"#utility.yul\":21853:21857   */\n      dup2\n        /* \"#utility.yul\":21727:21858   */\n      tag_185\n      jump\t// in\n    tag_415:\n        /* \"#utility.yul\":21719:21858   */\n      swap1\n      pop\n        /* \"#utility.yul\":21446:21865   */\n      swap2\n      swap1\n      pop\n      jump\t// out\n        /* \"#utility.yul\":21871:21968   */\n    tag_186:\n        /* \"#utility.yul\":21930:21936   */\n      0x00\n        /* \"#utility.yul\":21958:21961   */\n      dup3\n        /* \"#utility.yul\":21948:21961   */\n      swap1\n      pop\n        /* \"#utility.yul\":21871:21968   */\n      swap3\n      swap2\n      pop\n      pop\n      jump\t// out\n        /* \"#utility.yul\":21974:23377   */\n    tag_115:\n        /* \"#utility.yul\":22098:22142   */\n      tag_418\n        /* \"#utility.yul\":22138:22141   */\n      dup4\n        /* \"#utility.yul\":22133:22136   */\n      dup4\n        /* \"#utility.yul\":22098:22142   */\n      tag_186\n      jump\t// in\n    tag_418:\n        /* \"#utility.yul\":22207:22225   */\n      0xffffffffffffffff\n        /* \"#utility.yul\":22199:22205   */\n      dup2\n        /* \"#utility.yul\":22196:22226   */\n      gt\n        /* \"#utility.yul\":22193:22249   */\n      iszero\n      tag_419\n      jumpi\n        /* \"#utility.yul\":22229:22247   */\n      tag_420\n      tag_134\n      jump\t// in\n    tag_420:\n        /* \"#utility.yul\":22193:22249   */\n    tag_419:\n        /* \"#utility.yul\":22273:22311   */\n      tag_421\n        /* \"#utility.yul\":22305:22309   */\n      dup3\n        /* \"#utility.yul\":22299:22310   */\n      sload\n        /* \"#utility.yul\":22273:22311   */\n      tag_58\n      jump\t// in\n    tag_421:\n        /* \"#utility.yul\":22358:22425   */\n      tag_422\n        /* \"#utility.yul\":22418:22424   */\n      dup3\n        /* \"#utility.yul\":22410:22416   */\n      dup3\n        /* \"#utility.yul\":22404:22408   */\n      dup6\n        /* \"#utility.yul\":22358:22425   */\n      tag_169\n      jump\t// in\n    tag_422:\n        /* \"#utility.yul\":22452:22453   */\n      0x00\n        /* \"#utility.yul\":22481:22483   */\n      0x1f\n        /* \"#utility.yul\":22473:22479   */\n      dup4\n        /* \"#utility.yul\":22470:22484   */\n      gt\n        /* \"#utility.yul\":22498:22499   */\n      0x01\n        /* \"#utility.yul\":22493:23125   */\n      dup2\n      eq\n      tag_424\n      jumpi\n        /* \"#utility.yul\":23169:23170   */\n      0x00\n        /* \"#utility.yul\":23186:23192   */\n      dup5\n        /* \"#utility.yul\":23183:23267   */\n      iszero\n      tag_425\n      jumpi\n        /* \"#utility.yul\":23242:23251   */\n      dup3\n        /* \"#utility.yul\":23237:23240   */\n      dup8\n        /* \"#utility.yul\":23233:23252   */\n      add\n        /* \"#utility.yul\":23220:23253   */\n      calldataload\n        /* \"#utility.yul\":23211:23253   */\n      swap1\n      pop\n        /* \"#utility.yul\":23183:23267   */\n    tag_425:\n        /* \"#utility.yul\":23293:23360   */\n      tag_426\n        /* \"#utility.yul\":23353:23359   */\n      dup6\n        /* \"#utility.yul\":23346:23351   */\n      dup3\n        /* \"#utility.yul\":23293:23360   */\n      tag_172\n      jump\t// in\n    tag_426:\n        /* \"#utility.yul\":23287:23291   */\n      dup7\n        /* \"#utility.yul\":23280:23361   */\n      sstore\n        /* \"#utility.yul\":23142:23371   */\n      pop\n        /* \"#utility.yul\":22463:23371   */\n      jump(tag_423)\n        /* \"#utility.yul\":22493:23125   */\n    tag_424:\n        /* \"#utility.yul\":22545:22549   */\n      0x1f\n        /* \"#utility.yul\":22541:22550   */\n      not\n        /* \"#utility.yul\":22533:22539   */\n      dup5\n        /* \"#utility.yul\":22529:22551   */\n      and\n        /* \"#utility.yul\":22579:22616   */\n      tag_427\n        /* \"#utility.yul\":22611:22615   */\n      dup7\n        /* \"#utility.yul\":22579:22616   */\n      tag_159\n      jump\t// in\n    tag_427:\n        /* \"#utility.yul\":22638:22639   */\n      0x00\n        /* \"#utility.yul\":22652:22867   */\n    tag_428:\n        /* \"#utility.yul\":22666:22673   */\n      dup3\n        /* \"#utility.yul\":22663:22664   */\n      dup2\n        /* \"#utility.yul\":22660:22674   */\n      lt\n        /* \"#utility.yul\":22652:22867   */\n      iszero\n      tag_430\n      jumpi\n        /* \"#utility.yul\":22752:22761   */\n      dup5\n        /* \"#utility.yul\":22747:22750   */\n      dup10\n        /* \"#utility.yul\":22743:22762   */\n      add\n        /* \"#utility.yul\":22730:22763   */\n      calldataload\n        /* \"#utility.yul\":22722:22728   */\n      dup3\n        /* \"#utility.yul\":22715:22764   */\n      sstore\n        /* \"#utility.yul\":22803:22804   */\n      0x01\n        /* \"#utility.yul\":22795:22801   */\n      dup3\n        /* \"#utility.yul\":22791:22805   */\n      add\n        /* \"#utility.yul\":22781:22805   */\n      swap2\n      pop\n        /* \"#utility.yul\":22850:22852   */\n      0x20\n        /* \"#utility.yul\":22839:22848   */\n      dup6\n        /* \"#utility.yul\":22835:22853   */\n      add\n        /* \"#utility.yul\":22822:22853   */\n      swap5\n      pop\n        /* \"#utility.yul\":22689:22693   */\n      0x20\n        /* \"#utility.yul\":22686:22687   */\n      dup2\n        /* \"#utility.yul\":22682:22694   */\n      add\n        /* \"#utility.yul\":22677:22694   */\n      swap1\n      pop\n        /* \"#utility.yul\":22652:22867   */\n      jump(tag_428)\n    tag_430:\n        /* \"#utility.yul\":22895:22901   */\n      dup7\n        /* \"#utility.yul\":22886:22893   */\n      dup4\n        /* \"#utility.yul\":22883:22902   */\n      lt\n        /* \"#utility.yul\":22880:23066   */\n      iszero\n      tag_431\n      jumpi\n        /* \"#utility.yul\":22960:22969   */\n      dup5\n        /* \"#utility.yul\":22955:22958   */\n      dup10\n        /* \"#utility.yul\":22951:22970   */\n      add\n        /* \"#utility.yul\":22938:22971   */\n      calldataload\n        /* \"#utility.yul\":23003:23051   */\n      tag_432\n        /* \"#utility.yul\":23045:23049   */\n      0x1f\n        /* \"#utility.yul\":23037:23043   */\n      dup10\n        /* \"#utility.yul\":23033:23050   */\n      and\n        /* \"#utility.yul\":23022:23031   */\n      dup3\n        /* \"#utility.yul\":23003:23051   */\n      tag_171\n      jump\t// in\n    tag_432:\n        /* \"#utility.yul\":22995:23001   */\n      dup4\n        /* \"#utility.yul\":22988:23052   */\n      sstore\n        /* \"#utility.yul\":22903:23066   */\n      pop\n        /* \"#utility.yul\":22880:23066   */\n    tag_431:\n        /* \"#utility.yul\":23112:23113   */\n      0x01\n        /* \"#utility.yul\":23108:23109   */\n      0x02\n        /* \"#utility.yul\":23100:23106   */\n      dup9\n        /* \"#utility.yul\":23096:23110   */\n      mul\n        /* \"#utility.yul\":23092:23114   */\n      add\n        /* \"#utility.yul\":23086:23090   */\n      dup9\n        /* \"#utility.yul\":23079:23115   */\n      sstore\n        /* \"#utility.yul\":22500:23125   */\n      pop\n      pop\n      pop\n        /* \"#utility.yul\":22463:23371   */\n    tag_423:\n      pop\n        /* \"#utility.yul\":22073:23377   */\n      pop\n      pop\n      pop\n        /* \"#utility.yul\":21974:23377   */\n      pop\n      pop\n      pop\n      jump\t// out\n        /* \"#utility.yul\":23383:23563   */\n    tag_187:\n        /* \"#utility.yul\":23431:23508   */\n      0x4e487b7100000000000000000000000000000000000000000000000000000000\n        /* \"#utility.yul\":23428:23429   */\n      0x00\n        /* \"#utility.yul\":23421:23509   */\n      mstore\n        /* \"#utility.yul\":23528:23532   */\n      0x11\n        /* \"#utility.yul\":23525:23526   */\n      0x04\n        /* \"#utility.yul\":23518:23533   */\n      mstore\n        /* \"#utility.yul\":23552:23556   */\n      0x24\n        /* \"#utility.yul\":23549:23550   */\n      0x00\n        /* \"#utility.yul\":23542:23557   */\n      revert\n        /* \"#utility.yul\":23569:23760   */\n    tag_118:\n        /* \"#utility.yul\":23609:23612   */\n      0x00\n        /* \"#utility.yul\":23628:23648   */\n      tag_435\n        /* \"#utility.yul\":23646:23647   */\n      dup3\n        /* \"#utility.yul\":23628:23648   */\n      tag_124\n      jump\t// in\n    tag_435:\n        /* \"#utility.yul\":23623:23648   */\n      swap2\n      pop\n        /* \"#utility.yul\":23662:23682   */\n      tag_436\n        /* \"#utility.yul\":23680:23681   */\n      dup4\n        /* \"#utility.yul\":23662:23682   */\n      tag_124\n      jump\t// in\n    tag_436:\n        /* \"#utility.yul\":23657:23682   */\n      swap3\n      pop\n        /* \"#utility.yul\":23705:23706   */\n      dup3\n        /* \"#utility.yul\":23702:23703   */\n      dup3\n        /* \"#utility.yul\":23698:23707   */\n      add\n        /* \"#utility.yul\":23691:23707   */\n      swap1\n      pop\n        /* \"#utility.yul\":23726:23729   */\n      dup1\n        /* \"#utility.yul\":23723:23724   */\n      dup3\n        /* \"#utility.yul\":23720:23730   */\n      gt\n        /* \"#utility.yul\":23717:23753   */\n      iszero\n      tag_437\n      jumpi\n        /* \"#utility.yul\":23733:23751   */\n      tag_438\n      tag_187\n      jump\t// in\n    tag_438:\n        /* \"#utility.yul\":23717:23753   */\n    tag_437:\n        /* \"#utility.yul\":23569:23760   */\n      swap3\n      swap2\n      pop\n      pop\n      jump\t// out\n        /* \"#utility.yul\":23790:24107   */\n    tag_188:\n        /* \"#utility.yul\":23888:23891   */\n      0x00\n        /* \"#utility.yul\":23909:23980   */\n      tag_440\n        /* \"#utility.yul\":23973:23979   */\n      dup4\n        /* \"#utility.yul\":23968:23971   */\n      dup6\n        /* \"#utility.yul\":23909:23980   */\n      tag_128\n      jump\t// in\n    tag_440:\n        /* \"#utility.yul\":23902:23980   */\n      swap4\n      pop\n        /* \"#utility.yul\":23990:24046   */\n      tag_441\n        /* \"#utility.yul\":24039:24045   */\n      dup4\n        /* \"#utility.yul\":24034:24037   */\n      dup6\n        /* \"#utility.yul\":24027:24032   */\n      dup5\n        /* \"#utility.yul\":23990:24046   */\n      tag_138\n      jump\t// in\n    tag_441:\n        /* \"#utility.yul\":24071:24100   */\n      tag_442\n        /* \"#utility.yul\":24093:24099   */\n      dup4\n        /* \"#utility.yul\":24071:24100   */\n      tag_130\n      jump\t// in\n    tag_442:\n        /* \"#utility.yul\":24066:24069   */\n      dup5\n        /* \"#utility.yul\":24062:24101   */\n      add\n        /* \"#utility.yul\":24055:24101   */\n      swap1\n      pop\n        /* \"#utility.yul\":23790:24107   */\n      swap4\n      swap3\n      pop\n      pop\n      pop\n      jump\t// out\n        /* \"#utility.yul\":24113:24556   */\n    tag_120:\n        /* \"#utility.yul\":24264:24268   */\n      0x00\n        /* \"#utility.yul\":24302:24304   */\n      0x40\n        /* \"#utility.yul\":24291:24300   */\n      dup3\n        /* \"#utility.yul\":24287:24305   */\n      add\n        /* \"#utility.yul\":24279:24305   */\n      swap1\n      pop\n        /* \"#utility.yul\":24315:24386   */\n      tag_444\n        /* \"#utility.yul\":24383:24384   */\n      0x00\n        /* \"#utility.yul\":24372:24381   */\n      dup4\n        /* \"#utility.yul\":24368:24385   */\n      add\n        /* \"#utility.yul\":24359:24365   */\n      dup7\n        /* \"#utility.yul\":24315:24386   */\n      tag_151\n      jump\t// in\n    tag_444:\n        /* \"#utility.yul\":24433:24442   */\n      dup2\n        /* \"#utility.yul\":24427:24431   */\n      dup2\n        /* \"#utility.yul\":24423:24443   */\n      sub\n        /* \"#utility.yul\":24418:24420   */\n      0x20\n        /* \"#utility.yul\":24407:24416   */\n      dup4\n        /* \"#utility.yul\":24403:24421   */\n      add\n        /* \"#utility.yul\":24396:24444   */\n      mstore\n        /* \"#utility.yul\":24461:24549   */\n      tag_445\n        /* \"#utility.yul\":24544:24548   */\n      dup2\n        /* \"#utility.yul\":24535:24541   */\n      dup5\n        /* \"#utility.yul\":24527:24533   */\n      dup7\n        /* \"#utility.yul\":24461:24549   */\n      tag_188\n      jump\t// in\n    tag_445:\n        /* \"#utility.yul\":24453:24549   */\n      swap1\n      pop\n        /* \"#utility.yul\":24113:24556   */\n      swap5\n      swap4\n      pop\n      pop\n      pop\n      pop\n      jump\t// out\n\n    auxdata: 0xa26469706673582212203bd74da2bb33715e004634aa09f95446fa78ea8c9b953387674149b29afaec1864736f6c634300081a0033\n}\n",
				"bytecode": {
					"linkReferences": {},
					"object": "6080604052348015600e575f80fd5b50335f806101000a81548173ffffffffffffffffffffffffffffffffffffffff021916908373ffffffffffffffffffffffffffffffffffffffff16021790555061178e8061005b5f395ff3fe608060405234801561000f575f80fd5b5060043610610091575f3560e01c80639b60f2ff116100645780639b60f2ff14610143578063b9830ff11461015f578063e22a623114610169578063e7ff284414610185578063fc36e15b146101b757610091565b80633477ee2e146100955780635ab5237b146100c5578063805265e5146100f55780638da5cb5b14610125575b5f80fd5b6100af60048036038101906100aa9190610a84565b6101e7565b6040516100bc9190610b1f565b60405180910390f35b6100df60048036038101906100da9190610cc5565b61028d565b6040516100ec9190610d39565b60405180910390f35b61010f600480360381019061010a9190610daf565b6102cf565b60405161011c9190610e09565b60405180910390f35b61012d61032d565b60405161013a9190610e31565b60405180910390f35b61015d60048036038101906101589190610e4a565b610350565b005b610167610412565b005b610183600480360381019061017e9190610e91565b61055b565b005b61019f600480360381019061019a9190610f19565b6105ef565b6040516101ae93929190610f44565b60405180910390f35b6101d160048036038101906101cc9190610daf565b610721565b6040516101de9190610b1f565b60405180910390f35b600381815481106101f6575f80fd5b905f5260205f20015f91509050805461020e90610fb4565b80601f016020809104026020016040519081016040528092919081815260200182805461023a90610fb4565b80156102855780601f1061025c57610100808354040283529160200191610285565b820191905f5260205f20905b81548152906001019060200180831161026857829003601f168201915b505050505081565b600282805160208101820180518482526020830160208501208183528095505050505050602052805f5260405f205f915091509054906101000a900460ff1681565b5f808383906102de9190611025565b60601c905060015f8273ffffffffffffffffffffffffffffffffffffffff1673ffffffffffffffffffffffffffffffffffffffff1681526020019081526020015f206002015491505092915050565b5f8054906101000a900473ffffffffffffffffffffffffffffffffffffffff1681565b5f8054906101000a900473ffffffffffffffffffffffffffffffffffffffff1673ffffffffffffffffffffffffffffffffffffffff163373ffffffffffffffffffffffffffffffffffffffff16146103dd576040517f08c379a00000000000000000000000000000000000000000000000000000000081526004016103d4906110f3565b60405180910390fd5b600381908060018154018082558091505060019003905f5260205f20015f90919091909150908161040e91906112a2565b5050565b5f8054906101000a900473ffffffffffffffffffffffffffffffffffffffff1673ffffffffffffffffffffffffffffffffffffffff163373ffffffffffffffffffffffffffffffffffffffff161461049f576040517f08c379a0000000000000000000000000000000000000000000000000000000008152600401610496906110f3565b60405180910390fd5b5f5b60038054905081101561052c575f600382815481106104c3576104c2611371565b5b905f5260205f20016104d490611419565b60601c90505f60015f8373ffffffffffffffffffffffffffffffffffffffff1673ffffffffffffffffffffffffffffffffffffffff1681526020019081526020015f20600201819055505080806001019150506104a1565b507f181116b640e6a324b012ab99d433f09debd8232185d611ebed62cfb16f06a4c460405160405180910390a1565b60405180606001604052808381526020018281526020015f81525060015f8573ffffffffffffffffffffffffffffffffffffffff1673ffffffffffffffffffffffffffffffffffffffff1681526020019081526020015f205f820151815f0190816105c691906112a2565b5060208201518160010190816105dc91906112a2565b5060408201518160020155905050505050565b6001602052805f5260405f205f91509050805f01805461060e90610fb4565b80601f016020809104026020016040519081016040528092919081815260200182805461063a90610fb4565b80156106855780601f1061065c57610100808354040283529160200191610685565b820191905f5260205f20905b81548152906001019060200180831161066857829003601f168201915b50505050509080600101805461069a90610fb4565b80601f01602080910402602001604051908101604052809291908181526020018280546106c690610fb4565b80156107115780601f106106e857610100808354040283529160200191610711565b820191905f5260205f20905b8154815290600101906020018083116106f457829003601f168201915b5050505050908060020154905083565b60605f60015f3373ffffffffffffffffffffffffffffffffffffffff1673ffffffffffffffffffffffffffffffffffffffff1681526020019081526020015f205f01805461076e90610fb4565b9050036107b0576040517f08c379a00000000000000000000000000000000000000000000000000000000081526004016107a7906114d3565b60405180910390fd5b600283836040516107c292919061151f565b90815260200160405180910390205f3373ffffffffffffffffffffffffffffffffffffffff1673ffffffffffffffffffffffffffffffffffffffff1681526020019081526020015f205f9054906101000a900460ff1615610858576040517f08c379a000000000000000000000000000000000000000000000000000000000815260040161084f906115a7565b60405180910390fd5b60016002848460405161086c92919061151f565b90815260200160405180910390205f3373ffffffffffffffffffffffffffffffffffffffff1673ffffffffffffffffffffffffffffffffffffffff1681526020019081526020015f205f6101000a81548160ff0219169083151502179055505f60015f8585906108dc9190611025565b60601c73ffffffffffffffffffffffffffffffffffffffff1673ffffffffffffffffffffffffffffffffffffffff1681526020019081526020015f20600201540361095d576003838390918060018154018082558091505060019003905f5260205f20015f90919290919290919290919250918261095b9291906115cf565b505b5f83839061096b9190611025565b60601c90506001805f8373ffffffffffffffffffffffffffffffffffffffff1673ffffffffffffffffffffffffffffffffffffffff1681526020019081526020015f206002015f8282546109bf91906116c9565b925050819055507fcb6783276e8a4347387036bbfea000268f0a4b1f8c46ac79980609f2af8d2acd3385856040516109f993929190611728565b60405180910390a16040518060400160405280600281526020017f6f6b00000000000000000000000000000000000000000000000000000000000081525091505092915050565b5f604051905090565b5f80fd5b5f80fd5b5f819050919050565b610a6381610a51565b8114610a6d575f80fd5b50565b5f81359050610a7e81610a5a565b92915050565b5f60208284031215610a9957610a98610a49565b5b5f610aa684828501610a70565b91505092915050565b5f81519050919050565b5f82825260208201905092915050565b8281835e5f83830152505050565b5f601f19601f8301169050919050565b5f610af182610aaf565b610afb8185610ab9565b9350610b0b818560208601610ac9565b610b1481610ad7565b840191505092915050565b5f6020820190508181035f830152610b378184610ae7565b905092915050565b5f80fd5b5f80fd5b7f4e487b71000000000000000000000000000000000000000000000000000000005f52604160045260245ffd5b610b7d82610ad7565b810181811067ffffffffffffffff82111715610b9c57610b9b610b47565b5b80604052505050565b5f610bae610a40565b9050610bba8282610b74565b919050565b5f67ffffffffffffffff821115610bd957610bd8610b47565b5b610be282610ad7565b9050602081019050919050565b828183375f83830152505050565b5f610c0f610c0a84610bbf565b610ba5565b905082815260208101848484011115610c2b57610c2a610b43565b5b610c36848285610bef565b509392505050565b5f82601f830112610c5257610c51610b3f565b5b8135610c62848260208601610bfd565b91505092915050565b5f73ffffffffffffffffffffffffffffffffffffffff82169050919050565b5f610c9482610c6b565b9050919050565b610ca481610c8a565b8114610cae575f80fd5b50565b5f81359050610cbf81610c9b565b92915050565b5f8060408385031215610cdb57610cda610a49565b5b5f83013567ffffffffffffffff811115610cf857610cf7610a4d565b5b610d0485828601610c3e565b9250506020610d1585828601610cb1565b9150509250929050565b5f8115159050919050565b610d3381610d1f565b82525050565b5f602082019050610d4c5f830184610d2a565b92915050565b5f80fd5b5f80fd5b5f8083601f840112610d6f57610d6e610b3f565b5b8235905067ffffffffffffffff811115610d8c57610d8b610d52565b5b602083019150836001820283011115610da857610da7610d56565b5b9250929050565b5f8060208385031215610dc557610dc4610a49565b5b5f83013567ffffffffffffffff811115610de257610de1610a4d565b5b610dee85828601610d5a565b92509250509250929050565b610e0381610a51565b82525050565b5f602082019050610e1c5f830184610dfa565b92915050565b610e2b81610c8a565b82525050565b5f602082019050610e445f830184610e22565b92915050565b5f60208284031215610e5f57610e5e610a49565b5b5f82013567ffffffffffffffff811115610e7c57610e7b610a4d565b5b610e8884828501610c3e565b91505092915050565b5f805f60608486031215610ea857610ea7610a49565b5b5f610eb586828701610cb1565b935050602084013567ffffffffffffffff811115610ed657610ed5610a4d565b5b610ee286828701610c3e565b925050604084013567ffffffffffffffff811115610f0357610f02610a4d565b5b610f0f86828701610c3e565b9150509250925092565b5f60208284031215610f2e57610f2d610a49565b5b5f610f3b84828501610cb1565b91505092915050565b5f6060820190508181035f830152610f5c8186610ae7565b90508181036020830152610f708185610ae7565b9050610f7f6040830184610dfa565b949350505050565b7f4e487b71000000000000000000000000000000000000000000000000000000005f52602260045260245ffd5b5f6002820490506001821680610fcb57607f821691505b602082108103610fde57610fdd610f87565b5b50919050565b5f82905092915050565b5f7fffffffffffffffffffffffffffffffffffffffff00000000000000000000000082169050919050565b5f82821b905092915050565b5f6110308383610fe4565b8261103b8135610fee565b9250601482101561107b576110767fffffffffffffffffffffffffffffffffffffffff00000000000000000000000083601403600802611019565b831692505b505092915050565b7f4f6e6c79206f776e65722063616e2063616c6c20746869732066756e6374696f5f8201527f6e00000000000000000000000000000000000000000000000000000000000000602082015250565b5f6110dd602183610ab9565b91506110e882611083565b604082019050919050565b5f6020820190508181035f83015261110a816110d1565b9050919050565b5f819050815f5260205f209050919050565b5f6020601f8301049050919050565b5f600883026111617fffffffffffffffffffffffffffffffffffffffffffffffffffffffffffffffff82611019565b61116b8683611019565b95508019841693508086168417925050509392505050565b5f819050919050565b5f6111a66111a161119c84610a51565b611183565b610a51565b9050919050565b5f819050919050565b6111bf8361118c565b6111d36111cb826111ad565b848454611132565b825550505050565b5f90565b6111e76111db565b6111f28184846111b6565b505050565b5b818110156112155761120a5f826111df565b6001810190506111f8565b5050565b601f82111561125a5761122b81611111565b61123484611123565b81016020851015611243578190505b61125761124f85611123565b8301826111f7565b50505b505050565b5f82821c905092915050565b5f61127a5f198460080261125f565b1980831691505092915050565b5f611292838361126b565b9150826002028217905092915050565b6112ab82610aaf565b67ffffffffffffffff8111156112c4576112c3610b47565b5b6112ce8254610fb4565b6112d9828285611219565b5f60209050601f83116001811461130a575f84156112f8578287015190505b6113028582611287565b865550611369565b601f19841661131886611111565b5f5b8281101561133f5784890151825560018201915060208501945060208101905061131a565b8683101561135c5784890151611358601f89168261126b565b8355505b6001600288020188555050505b505050505050565b7f4e487b71000000000000000000000000000000000000000000000000000000005f52603260045260245ffd5b5f815490506113ac81610fb4565b9050919050565b5f819050815f5260205f209050919050565b5f8160601c9050919050565b5f8160601b9050919050565b5f6113e7826113d1565b9050919050565b5f6114006113fb836113c5565b6113dd565b9050919050565b5f61141282546113ee565b9050919050565b5f6114238261139e565b82601f82111561143957611436846113b3565b90505b61144281611407565b925060148210156114825761147d7fffffffffffffffffffffffffffffffffffffffff00000000000000000000000083601403600802611019565b831692505b5050919050565b7f566f746572206e6f7420726567697374657265640000000000000000000000005f82015250565b5f6114bd601483610ab9565b91506114c882611489565b602082019050919050565b5f6020820190508181035f8301526114ea816114b1565b9050919050565b5f81905092915050565b5f61150683856114f1565b9350611513838584610bef565b82840190509392505050565b5f61152b8284866114fb565b91508190509392505050565b7f596f75206861766520616c726561647920766f74656420666f722074686973205f8201527f63616e6469646174650000000000000000000000000000000000000000000000602082015250565b5f611591602983610ab9565b915061159c82611537565b604082019050919050565b5f6020820190508181035f8301526115be81611585565b9050919050565b5f82905092915050565b6115d983836115c5565b67ffffffffffffffff8111156115f2576115f1610b47565b5b6115fc8254610fb4565b611607828285611219565b5f601f831160018114611634575f8415611622578287013590505b61162c8582611287565b865550611693565b601f19841661164286611111565b5f5b8281101561166957848901358255600182019150602085019450602081019050611644565b868310156116865784890135611682601f89168261126b565b8355505b6001600288020188555050505b50505050505050565b7f4e487b71000000000000000000000000000000000000000000000000000000005f52601160045260245ffd5b5f6116d382610a51565b91506116de83610a51565b92508282019050808211156116f6576116f561169c565b5b92915050565b5f6117078385610ab9565b9350611714838584610bef565b61171d83610ad7565b840190509392505050565b5f60408201905061173b5f830186610e22565b818103602083015261174e8184866116fc565b905094935050505056fea26469706673582212203bd74da2bb33715e004634aa09f95446fa78ea8c9b953387674149b29afaec1864736f6c634300081a0033",
					"opcodes": "PUSH1 0x80 PUSH1 0x40 MSTORE CALLVALUE DUP1 ISZERO PUSH1 0xE JUMPI PUSH0 DUP1 REVERT JUMPDEST POP CALLER PUSH0 DUP1 PUSH2 0x100 EXP DUP2 SLOAD DUP2 PUSH20 0xFFFFFFFFFFFFFFFFFFFFFFFFFFFFFFFFFFFFFFFF MUL NOT AND SWAP1 DUP4 PUSH20 0xFFFFFFFFFFFFFFFFFFFFFFFFFFFFFFFFFFFFFFFF AND MUL OR SWAP1 SSTORE POP PUSH2 0x178E DUP1 PUSH2 0x5B PUSH0 CODECOPY PUSH0 RETURN INVALID PUSH1 0x80 PUSH1 0x40 MSTORE CALLVALUE DUP1 ISZERO PUSH2 0xF JUMPI PUSH0 DUP1 REVERT JUMPDEST POP PUSH1 0x4 CALLDATASIZE LT PUSH2 0x91 JUMPI PUSH0 CALLDATALOAD PUSH1 0xE0 SHR DUP1 PUSH4 0x9B60F2FF GT PUSH2 0x64 JUMPI DUP1 PUSH4 0x9B60F2FF EQ PUSH2 0x143 JUMPI DUP1 PUSH4 0xB9830FF1 EQ PUSH2 0x15F JUMPI DUP1 PUSH4 0xE22A6231 EQ PUSH2 0x169 JUMPI DUP1 PUSH4 0xE7FF2844 EQ PUSH2 0x185 JUMPI DUP1 PUSH4 0xFC36E15B EQ PUSH2 0x1B7 JUMPI PUSH2 0x91 JUMP JUMPDEST DUP1 PUSH4 0x3477EE2E EQ PUSH2 0x95 JUMPI DUP1 PUSH4 0x5AB5237B EQ PUSH2 0xC5 JUMPI DUP1 PUSH4 0x805265E5 EQ PUSH2 0xF5 JUMPI DUP1 PUSH4 0x8DA5CB5B EQ PUSH2 0x125 JUMPI JUMPDEST PUSH0 DUP1 REVERT JUMPDEST PUSH2 0xAF PUSH1 0x4 DUP1 CALLDATASIZE SUB DUP2 ADD SWAP1 PUSH2 0xAA SWAP2 SWAP1 PUSH2 0xA84 JUMP JUMPDEST PUSH2 0x1E7 JUMP JUMPDEST PUSH1 0x40 MLOAD PUSH2 0xBC SWAP2 SWAP1 PUSH2 0xB1F JUMP JUMPDEST PUSH1 0x40 MLOAD DUP1 SWAP2 SUB SWAP1 RETURN JUMPDEST PUSH2 0xDF PUSH1 0x4 DUP1 CALLDATASIZE SUB DUP2 ADD SWAP1 PUSH2 0xDA SWAP2 SWAP1 PUSH2 0xCC5 JUMP JUMPDEST PUSH2 0x28D JUMP JUMPDEST PUSH1 0x40 MLOAD PUSH2 0xEC SWAP2 SWAP1 PUSH2 0xD39 JUMP JUMPDEST PUSH1 0x40 MLOAD DUP1 SWAP2 SUB SWAP1 RETURN JUMPDEST PUSH2 0x10F PUSH1 0x4 DUP1 CALLDATASIZE SUB DUP2 ADD SWAP1 PUSH2 0x10A SWAP2 SWAP1 PUSH2 0xDAF JUMP JUMPDEST PUSH2 0x2CF JUMP JUMPDEST PUSH1 0x40 MLOAD PUSH2 0x11C SWAP2 SWAP1 PUSH2 0xE09 JUMP JUMPDEST PUSH1 0x40 MLOAD DUP1 SWAP2 SUB SWAP1 RETURN JUMPDEST PUSH2 0x12D PUSH2 0x32D JUMP JUMPDEST PUSH1 0x40 MLOAD PUSH2 0x13A SWAP2 SWAP1 PUSH2 0xE31 JUMP JUMPDEST PUSH1 0x40 MLOAD DUP1 SWAP2 SUB SWAP1 RETURN JUMPDEST PUSH2 0x15D PUSH1 0x4 DUP1 CALLDATASIZE SUB DUP2 ADD SWAP1 PUSH2 0x158 SWAP2 SWAP1 PUSH2 0xE4A JUMP JUMPDEST PUSH2 0x350 JUMP JUMPDEST STOP JUMPDEST PUSH2 0x167 PUSH2 0x412 JUMP JUMPDEST STOP JUMPDEST PUSH2 0x183 PUSH1 0x4 DUP1 CALLDATASIZE SUB DUP2 ADD SWAP1 PUSH2 0x17E SWAP2 SWAP1 PUSH2 0xE91 JUMP JUMPDEST PUSH2 0x55B JUMP JUMPDEST STOP JUMPDEST PUSH2 0x19F PUSH1 0x4 DUP1 CALLDATASIZE SUB DUP2 ADD SWAP1 PUSH2 0x19A SWAP2 SWAP1 PUSH2 0xF19 JUMP JUMPDEST PUSH2 0x5EF JUMP JUMPDEST PUSH1 0x40 MLOAD PUSH2 0x1AE SWAP4 SWAP3 SWAP2 SWAP1 PUSH2 0xF44 JUMP JUMPDEST PUSH1 0x40 MLOAD DUP1 SWAP2 SUB SWAP1 RETURN JUMPDEST PUSH2 0x1D1 PUSH1 0x4 DUP1 CALLDATASIZE SUB DUP2 ADD SWAP1 PUSH2 0x1CC SWAP2 SWAP1 PUSH2 0xDAF JUMP JUMPDEST PUSH2 0x721 JUMP JUMPDEST PUSH1 0x40 MLOAD PUSH2 0x1DE SWAP2 SWAP1 PUSH2 0xB1F JUMP JUMPDEST PUSH1 0x40 MLOAD DUP1 SWAP2 SUB SWAP1 RETURN JUMPDEST PUSH1 0x3 DUP2 DUP2 SLOAD DUP2 LT PUSH2 0x1F6 JUMPI PUSH0 DUP1 REVERT JUMPDEST SWAP1 PUSH0 MSTORE PUSH1 0x20 PUSH0 KECCAK256 ADD PUSH0 SWAP2 POP SWAP1 POP DUP1 SLOAD PUSH2 0x20E SWAP1 PUSH2 0xFB4 JUMP JUMPDEST DUP1 PUSH1 0x1F ADD PUSH1 0x20 DUP1 SWAP2 DIV MUL PUSH1 0x20 ADD PUSH1 0x40 MLOAD SWAP1 DUP2 ADD PUSH1 0x40 MSTORE DUP1 SWAP3 SWAP2 SWAP1 DUP2 DUP2 MSTORE PUSH1 0x20 ADD DUP3 DUP1 SLOAD PUSH2 0x23A SWAP1 PUSH2 0xFB4 JUMP JUMPDEST DUP1 ISZERO PUSH2 0x285 JUMPI DUP1 PUSH1 0x1F LT PUSH2 0x25C JUMPI PUSH2 0x100 DUP1 DUP4 SLOAD DIV MUL DUP4 MSTORE SWAP2 PUSH1 0x20 ADD SWAP2 PUSH2 0x285 JUMP JUMPDEST DUP3 ADD SWAP2 SWAP1 PUSH0 MSTORE PUSH1 0x20 PUSH0 KECCAK256 SWAP1 JUMPDEST DUP2 SLOAD DUP2 MSTORE SWAP1 PUSH1 0x1 ADD SWAP1 PUSH1 0x20 ADD DUP1 DUP4 GT PUSH2 0x268 JUMPI DUP3 SWAP1 SUB PUSH1 0x1F AND DUP3 ADD SWAP2 JUMPDEST POP POP POP POP POP DUP2 JUMP JUMPDEST PUSH1 0x2 DUP3 DUP1 MLOAD PUSH1 0x20 DUP2 ADD DUP3 ADD DUP1 MLOAD DUP5 DUP3 MSTORE PUSH1 0x20 DUP4 ADD PUSH1 0x20 DUP6 ADD KECCAK256 DUP2 DUP4 MSTORE DUP1 SWAP6 POP POP POP POP POP POP PUSH1 0x20 MSTORE DUP1 PUSH0 MSTORE PUSH1 0x40 PUSH0 KECCAK256 PUSH0 SWAP2 POP SWAP2 POP SWAP1 SLOAD SWAP1 PUSH2 0x100 EXP SWAP1 DIV PUSH1 0xFF AND DUP2 JUMP JUMPDEST PUSH0 DUP1 DUP4 DUP4 SWAP1 PUSH2 0x2DE SWAP2 SWAP1 PUSH2 0x1025 JUMP JUMPDEST PUSH1 0x60 SHR SWAP1 POP PUSH1 0x1 PUSH0 DUP3 PUSH20 0xFFFFFFFFFFFFFFFFFFFFFFFFFFFFFFFFFFFFFFFF AND PUSH20 0xFFFFFFFFFFFFFFFFFFFFFFFFFFFFFFFFFFFFFFFF AND DUP2 MSTORE PUSH1 0x20 ADD SWAP1 DUP2 MSTORE PUSH1 0x20 ADD PUSH0 KECCAK256 PUSH1 0x2 ADD SLOAD SWAP2 POP POP SWAP3 SWAP2 POP POP JUMP JUMPDEST PUSH0 DUP1 SLOAD SWAP1 PUSH2 0x100 EXP SWAP1 DIV PUSH20 0xFFFFFFFFFFFFFFFFFFFFFFFFFFFFFFFFFFFFFFFF AND DUP2 JUMP JUMPDEST PUSH0 DUP1 SLOAD SWAP1 PUSH2 0x100 EXP SWAP1 DIV PUSH20 0xFFFFFFFFFFFFFFFFFFFFFFFFFFFFFFFFFFFFFFFF AND PUSH20 0xFFFFFFFFFFFFFFFFFFFFFFFFFFFFFFFFFFFFFFFF AND CALLER PUSH20 0xFFFFFFFFFFFFFFFFFFFFFFFFFFFFFFFFFFFFFFFF AND EQ PUSH2 0x3DD JUMPI PUSH1 0x40 MLOAD PUSH32 0x8C379A000000000000000000000000000000000000000000000000000000000 DUP2 MSTORE PUSH1 0x4 ADD PUSH2 0x3D4 SWAP1 PUSH2 0x10F3 JUMP JUMPDEST PUSH1 0x40 MLOAD DUP1 SWAP2 SUB SWAP1 REVERT JUMPDEST PUSH1 0x3 DUP2 SWAP1 DUP1 PUSH1 0x1 DUP2 SLOAD ADD DUP1 DUP3 SSTORE DUP1 SWAP2 POP POP PUSH1 0x1 SWAP1 SUB SWAP1 PUSH0 MSTORE PUSH1 0x20 PUSH0 KECCAK256 ADD PUSH0 SWAP1 SWAP2 SWAP1 SWAP2 SWAP1 SWAP2 POP SWAP1 DUP2 PUSH2 0x40E SWAP2 SWAP1 PUSH2 0x12A2 JUMP JUMPDEST POP POP JUMP JUMPDEST PUSH0 DUP1 SLOAD SWAP1 PUSH2 0x100 EXP SWAP1 DIV PUSH20 0xFFFFFFFFFFFFFFFFFFFFFFFFFFFFFFFFFFFFFFFF AND PUSH20 0xFFFFFFFFFFFFFFFFFFFFFFFFFFFFFFFFFFFFFFFF AND CALLER PUSH20 0xFFFFFFFFFFFFFFFFFFFFFFFFFFFFFFFFFFFFFFFF AND EQ PUSH2 0x49F JUMPI PUSH1 0x40 MLOAD PUSH32 0x8C379A000000000000000000000000000000000000000000000000000000000 DUP2 MSTORE PUSH1 0x4 ADD PUSH2 0x496 SWAP1 PUSH2 0x10F3 JUMP JUMPDEST PUSH1 0x40 MLOAD DUP1 SWAP2 SUB SWAP1 REVERT JUMPDEST PUSH0 JUMPDEST PUSH1 0x3 DUP1 SLOAD SWAP1 POP DUP2 LT ISZERO PUSH2 0x52C JUMPI PUSH0 PUSH1 0x3 DUP3 DUP2 SLOAD DUP2 LT PUSH2 0x4C3 JUMPI PUSH2 0x4C2 PUSH2 0x1371 JUMP JUMPDEST JUMPDEST SWAP1 PUSH0 MSTORE PUSH1 0x20 PUSH0 KECCAK256 ADD PUSH2 0x4D4 SWAP1 PUSH2 0x1419 JUMP JUMPDEST PUSH1 0x60 SHR SWAP1 POP PUSH0 PUSH1 0x1 PUSH0 DUP4 PUSH20 0xFFFFFFFFFFFFFFFFFFFFFFFFFFFFFFFFFFFFFFFF AND PUSH20 0xFFFFFFFFFFFFFFFFFFFFFFFFFFFFFFFFFFFFFFFF AND DUP2 MSTORE PUSH1 0x20 ADD SWAP1 DUP2 MSTORE PUSH1 0x20 ADD PUSH0 KECCAK256 PUSH1 0x2 ADD DUP2 SWAP1 SSTORE POP POP DUP1 DUP1 PUSH1 0x1 ADD SWAP2 POP POP PUSH2 0x4A1 JUMP JUMPDEST POP PUSH32 0x181116B640E6A324B012AB99D433F09DEBD8232185D611EBED62CFB16F06A4C4 PUSH1 0x40 MLOAD PUSH1 0x40 MLOAD DUP1 SWAP2 SUB SWAP1 LOG1 JUMP JUMPDEST PUSH1 0x40 MLOAD DUP1 PUSH1 0x60 ADD PUSH1 0x40 MSTORE DUP1 DUP4 DUP2 MSTORE PUSH1 0x20 ADD DUP3 DUP2 MSTORE PUSH1 0x20 ADD PUSH0 DUP2 MSTORE POP PUSH1 0x1 PUSH0 DUP6 PUSH20 0xFFFFFFFFFFFFFFFFFFFFFFFFFFFFFFFFFFFFFFFF AND PUSH20 0xFFFFFFFFFFFFFFFFFFFFFFFFFFFFFFFFFFFFFFFF AND DUP2 MSTORE PUSH1 0x20 ADD SWAP1 DUP2 MSTORE PUSH1 0x20 ADD PUSH0 KECCAK256 PUSH0 DUP3 ADD MLOAD DUP2 PUSH0 ADD SWAP1 DUP2 PUSH2 0x5C6 SWAP2 SWAP1 PUSH2 0x12A2 JUMP JUMPDEST POP PUSH1 0x20 DUP3 ADD MLOAD DUP2 PUSH1 0x1 ADD SWAP1 DUP2 PUSH2 0x5DC SWAP2 SWAP1 PUSH2 0x12A2 JUMP JUMPDEST POP PUSH1 0x40 DUP3 ADD MLOAD DUP2 PUSH1 0x2 ADD SSTORE SWAP1 POP POP POP POP POP JUMP JUMPDEST PUSH1 0x1 PUSH1 0x20 MSTORE DUP1 PUSH0 MSTORE PUSH1 0x40 PUSH0 KECCAK256 PUSH0 SWAP2 POP SWAP1 POP DUP1 PUSH0 ADD DUP1 SLOAD PUSH2 0x60E SWAP1 PUSH2 0xFB4 JUMP JUMPDEST DUP1 PUSH1 0x1F ADD PUSH1 0x20 DUP1 SWAP2 DIV MUL PUSH1 0x20 ADD PUSH1 0x40 MLOAD SWAP1 DUP2 ADD PUSH1 0x40 MSTORE DUP1 SWAP3 SWAP2 SWAP1 DUP2 DUP2 MSTORE PUSH1 0x20 ADD DUP3 DUP1 SLOAD PUSH2 0x63A SWAP1 PUSH2 0xFB4 JUMP JUMPDEST DUP1 ISZERO PUSH2 0x685 JUMPI DUP1 PUSH1 0x1F LT PUSH2 0x65C JUMPI PUSH2 0x100 DUP1 DUP4 SLOAD DIV MUL DUP4 MSTORE SWAP2 PUSH1 0x20 ADD SWAP2 PUSH2 0x685 JUMP JUMPDEST DUP3 ADD SWAP2 SWAP1 PUSH0 MSTORE PUSH1 0x20 PUSH0 KECCAK256 SWAP1 JUMPDEST DUP2 SLOAD DUP2 MSTORE SWAP1 PUSH1 0x1 ADD SWAP1 PUSH1 0x20 ADD DUP1 DUP4 GT PUSH2 0x668 JUMPI DUP3 SWAP1 SUB PUSH1 0x1F AND DUP3 ADD SWAP2 JUMPDEST POP POP POP POP POP SWAP1 DUP1 PUSH1 0x1 ADD DUP1 SLOAD PUSH2 0x69A SWAP1 PUSH2 0xFB4 JUMP JUMPDEST DUP1 PUSH1 0x1F ADD PUSH1 0x20 DUP1 SWAP2 DIV MUL PUSH1 0x20 ADD PUSH1 0x40 MLOAD SWAP1 DUP2 ADD PUSH1 0x40 MSTORE DUP1 SWAP3 SWAP2 SWAP1 DUP2 DUP2 MSTORE PUSH1 0x20 ADD DUP3 DUP1 SLOAD PUSH2 0x6C6 SWAP1 PUSH2 0xFB4 JUMP JUMPDEST DUP1 ISZERO PUSH2 0x711 JUMPI DUP1 PUSH1 0x1F LT PUSH2 0x6E8 JUMPI PUSH2 0x100 DUP1 DUP4 SLOAD DIV MUL DUP4 MSTORE SWAP2 PUSH1 0x20 ADD SWAP2 PUSH2 0x711 JUMP JUMPDEST DUP3 ADD SWAP2 SWAP1 PUSH0 MSTORE PUSH1 0x20 PUSH0 KECCAK256 SWAP1 JUMPDEST DUP2 SLOAD DUP2 MSTORE SWAP1 PUSH1 0x1 ADD SWAP1 PUSH1 0x20 ADD DUP1 DUP4 GT PUSH2 0x6F4 JUMPI DUP3 SWAP1 SUB PUSH1 0x1F AND DUP3 ADD SWAP2 JUMPDEST POP POP POP POP POP SWAP1 DUP1 PUSH1 0x2 ADD SLOAD SWAP1 POP DUP4 JUMP JUMPDEST PUSH1 0x60 PUSH0 PUSH1 0x1 PUSH0 CALLER PUSH20 0xFFFFFFFFFFFFFFFFFFFFFFFFFFFFFFFFFFFFFFFF AND PUSH20 0xFFFFFFFFFFFFFFFFFFFFFFFFFFFFFFFFFFFFFFFF AND DUP2 MSTORE PUSH1 0x20 ADD SWAP1 DUP2 MSTORE PUSH1 0x20 ADD PUSH0 KECCAK256 PUSH0 ADD DUP1 SLOAD PUSH2 0x76E SWAP1 PUSH2 0xFB4 JUMP JUMPDEST SWAP1 POP SUB PUSH2 0x7B0 JUMPI PUSH1 0x40 MLOAD PUSH32 0x8C379A000000000000000000000000000000000000000000000000000000000 DUP2 MSTORE PUSH1 0x4 ADD PUSH2 0x7A7 SWAP1 PUSH2 0x14D3 JUMP JUMPDEST PUSH1 0x40 MLOAD DUP1 SWAP2 SUB SWAP1 REVERT JUMPDEST PUSH1 0x2 DUP4 DUP4 PUSH1 0x40 MLOAD PUSH2 0x7C2 SWAP3 SWAP2 SWAP1 PUSH2 0x151F JUMP JUMPDEST SWAP1 DUP2 MSTORE PUSH1 0x20 ADD PUSH1 0x40 MLOAD DUP1 SWAP2 SUB SWAP1 KECCAK256 PUSH0 CALLER PUSH20 0xFFFFFFFFFFFFFFFFFFFFFFFFFFFFFFFFFFFFFFFF AND PUSH20 0xFFFFFFFFFFFFFFFFFFFFFFFFFFFFFFFFFFFFFFFF AND DUP2 MSTORE PUSH1 0x20 ADD SWAP1 DUP2 MSTORE PUSH1 0x20 ADD PUSH0 KECCAK256 PUSH0 SWAP1 SLOAD SWAP1 PUSH2 0x100 EXP SWAP1 DIV PUSH1 0xFF AND ISZERO PUSH2 0x858 JUMPI PUSH1 0x40 MLOAD PUSH32 0x8C379A000000000000000000000000000000000000000000000000000000000 DUP2 MSTORE PUSH1 0x4 ADD PUSH2 0x84F SWAP1 PUSH2 0x15A7 JUMP JUMPDEST PUSH1 0x40 MLOAD DUP1 SWAP2 SUB SWAP1 REVERT JUMPDEST PUSH1 0x1 PUSH1 0x2 DUP5 DUP5 PUSH1 0x40 MLOAD PUSH2 0x86C SWAP3 SWAP2 SWAP1 PUSH2 0x151F JUMP JUMPDEST SWAP1 DUP2 MSTORE PUSH1 0x20 ADD PUSH1 0x40 MLOAD DUP1 SWAP2 SUB SWAP1 KECCAK256 PUSH0 CALLER PUSH20 0xFFFFFFFFFFFFFFFFFFFFFFFFFFFFFFFFFFFFFFFF AND PUSH20 0xFFFFFFFFFFFFFFFFFFFFFFFFFFFFFFFFFFFFFFFF AND DUP2 MSTORE PUSH1 0x20 ADD SWAP1 DUP2 MSTORE PUSH1 0x20 ADD PUSH0 KECCAK256 PUSH0 PUSH2 0x100 EXP DUP2 SLOAD DUP2 PUSH1 0xFF MUL NOT AND SWAP1 DUP4 ISZERO ISZERO MUL OR SWAP1 SSTORE POP PUSH0 PUSH1 0x1 PUSH0 DUP6 DUP6 SWAP1 PUSH2 0x8DC SWAP2 SWAP1 PUSH2 0x1025 JUMP JUMPDEST PUSH1 0x60 SHR PUSH20 0xFFFFFFFFFFFFFFFFFFFFFFFFFFFFFFFFFFFFFFFF AND PUSH20 0xFFFFFFFFFFFFFFFFFFFFFFFFFFFFFFFFFFFFFFFF AND DUP2 MSTORE PUSH1 0x20 ADD SWAP1 DUP2 MSTORE PUSH1 0x20 ADD PUSH0 KECCAK256 PUSH1 0x2 ADD SLOAD SUB PUSH2 0x95D JUMPI PUSH1 0x3 DUP4 DUP4 SWAP1 SWAP2 DUP1 PUSH1 0x1 DUP2 SLOAD ADD DUP1 DUP3 SSTORE DUP1 SWAP2 POP POP PUSH1 0x1 SWAP1 SUB SWAP1 PUSH0 MSTORE PUSH1 0x20 PUSH0 KECCAK256 ADD PUSH0 SWAP1 SWAP2 SWAP3 SWAP1 SWAP2 SWAP3 SWAP1 SWAP2 SWAP3 SWAP1 SWAP2 SWAP3 POP SWAP2 DUP3 PUSH2 0x95B SWAP3 SWAP2 SWAP1 PUSH2 0x15CF JUMP JUMPDEST POP JUMPDEST PUSH0 DUP4 DUP4 SWAP1 PUSH2 0x96B SWAP2 SWAP1 PUSH2 0x1025 JUMP JUMPDEST PUSH1 0x60 SHR SWAP1 POP PUSH1 0x1 DUP1 PUSH0 DUP4 PUSH20 0xFFFFFFFFFFFFFFFFFFFFFFFFFFFFFFFFFFFFFFFF AND PUSH20 0xFFFFFFFFFFFFFFFFFFFFFFFFFFFFFFFFFFFFFFFF AND DUP2 MSTORE PUSH1 0x20 ADD SWAP1 DUP2 MSTORE PUSH1 0x20 ADD PUSH0 KECCAK256 PUSH1 0x2 ADD PUSH0 DUP3 DUP3 SLOAD PUSH2 0x9BF SWAP2 SWAP1 PUSH2 0x16C9 JUMP JUMPDEST SWAP3 POP POP DUP2 SWAP1 SSTORE POP PUSH32 0xCB6783276E8A4347387036BBFEA000268F0A4B1F8C46AC79980609F2AF8D2ACD CALLER DUP6 DUP6 PUSH1 0x40 MLOAD PUSH2 0x9F9 SWAP4 SWAP3 SWAP2 SWAP1 PUSH2 0x1728 JUMP JUMPDEST PUSH1 0x40 MLOAD DUP1 SWAP2 SUB SWAP1 LOG1 PUSH1 0x40 MLOAD DUP1 PUSH1 0x40 ADD PUSH1 0x40 MSTORE DUP1 PUSH1 0x2 DUP2 MSTORE PUSH1 0x20 ADD PUSH32 0x6F6B000000000000000000000000000000000000000000000000000000000000 DUP2 MSTORE POP SWAP2 POP POP SWAP3 SWAP2 POP POP JUMP JUMPDEST PUSH0 PUSH1 0x40 MLOAD SWAP1 POP SWAP1 JUMP JUMPDEST PUSH0 DUP1 REVERT JUMPDEST PUSH0 DUP1 REVERT JUMPDEST PUSH0 DUP2 SWAP1 POP SWAP2 SWAP1 POP JUMP JUMPDEST PUSH2 0xA63 DUP2 PUSH2 0xA51 JUMP JUMPDEST DUP2 EQ PUSH2 0xA6D JUMPI PUSH0 DUP1 REVERT JUMPDEST POP JUMP JUMPDEST PUSH0 DUP2 CALLDATALOAD SWAP1 POP PUSH2 0xA7E DUP2 PUSH2 0xA5A JUMP JUMPDEST SWAP3 SWAP2 POP POP JUMP JUMPDEST PUSH0 PUSH1 0x20 DUP3 DUP5 SUB SLT ISZERO PUSH2 0xA99 JUMPI PUSH2 0xA98 PUSH2 0xA49 JUMP JUMPDEST JUMPDEST PUSH0 PUSH2 0xAA6 DUP5 DUP3 DUP6 ADD PUSH2 0xA70 JUMP JUMPDEST SWAP2 POP POP SWAP3 SWAP2 POP POP JUMP JUMPDEST PUSH0 DUP2 MLOAD SWAP1 POP SWAP2 SWAP1 POP JUMP JUMPDEST PUSH0 DUP3 DUP3 MSTORE PUSH1 0x20 DUP3 ADD SWAP1 POP SWAP3 SWAP2 POP POP JUMP JUMPDEST DUP3 DUP2 DUP4 MCOPY PUSH0 DUP4 DUP4 ADD MSTORE POP POP POP JUMP JUMPDEST PUSH0 PUSH1 0x1F NOT PUSH1 0x1F DUP4 ADD AND SWAP1 POP SWAP2 SWAP1 POP JUMP JUMPDEST PUSH0 PUSH2 0xAF1 DUP3 PUSH2 0xAAF JUMP JUMPDEST PUSH2 0xAFB DUP2 DUP6 PUSH2 0xAB9 JUMP JUMPDEST SWAP4 POP PUSH2 0xB0B DUP2 DUP6 PUSH1 0x20 DUP7 ADD PUSH2 0xAC9 JUMP JUMPDEST PUSH2 0xB14 DUP2 PUSH2 0xAD7 JUMP JUMPDEST DUP5 ADD SWAP2 POP POP SWAP3 SWAP2 POP POP JUMP JUMPDEST PUSH0 PUSH1 0x20 DUP3 ADD SWAP1 POP DUP2 DUP2 SUB PUSH0 DUP4 ADD MSTORE PUSH2 0xB37 DUP2 DUP5 PUSH2 0xAE7 JUMP JUMPDEST SWAP1 POP SWAP3 SWAP2 POP POP JUMP JUMPDEST PUSH0 DUP1 REVERT JUMPDEST PUSH0 DUP1 REVERT JUMPDEST PUSH32 0x4E487B7100000000000000000000000000000000000000000000000000000000 PUSH0 MSTORE PUSH1 0x41 PUSH1 0x4 MSTORE PUSH1 0x24 PUSH0 REVERT JUMPDEST PUSH2 0xB7D DUP3 PUSH2 0xAD7 JUMP JUMPDEST DUP2 ADD DUP2 DUP2 LT PUSH8 0xFFFFFFFFFFFFFFFF DUP3 GT OR ISZERO PUSH2 0xB9C JUMPI PUSH2 0xB9B PUSH2 0xB47 JUMP JUMPDEST JUMPDEST DUP1 PUSH1 0x40 MSTORE POP POP POP JUMP JUMPDEST PUSH0 PUSH2 0xBAE PUSH2 0xA40 JUMP JUMPDEST SWAP1 POP PUSH2 0xBBA DUP3 DUP3 PUSH2 0xB74 JUMP JUMPDEST SWAP2 SWAP1 POP JUMP JUMPDEST PUSH0 PUSH8 0xFFFFFFFFFFFFFFFF DUP3 GT ISZERO PUSH2 0xBD9 JUMPI PUSH2 0xBD8 PUSH2 0xB47 JUMP JUMPDEST JUMPDEST PUSH2 0xBE2 DUP3 PUSH2 0xAD7 JUMP JUMPDEST SWAP1 POP PUSH1 0x20 DUP2 ADD SWAP1 POP SWAP2 SWAP1 POP JUMP JUMPDEST DUP3 DUP2 DUP4 CALLDATACOPY PUSH0 DUP4 DUP4 ADD MSTORE POP POP POP JUMP JUMPDEST PUSH0 PUSH2 0xC0F PUSH2 0xC0A DUP5 PUSH2 0xBBF JUMP JUMPDEST PUSH2 0xBA5 JUMP JUMPDEST SWAP1 POP DUP3 DUP2 MSTORE PUSH1 0x20 DUP2 ADD DUP5 DUP5 DUP5 ADD GT ISZERO PUSH2 0xC2B JUMPI PUSH2 0xC2A PUSH2 0xB43 JUMP JUMPDEST JUMPDEST PUSH2 0xC36 DUP5 DUP3 DUP6 PUSH2 0xBEF JUMP JUMPDEST POP SWAP4 SWAP3 POP POP POP JUMP JUMPDEST PUSH0 DUP3 PUSH1 0x1F DUP4 ADD SLT PUSH2 0xC52 JUMPI PUSH2 0xC51 PUSH2 0xB3F JUMP JUMPDEST JUMPDEST DUP2 CALLDATALOAD PUSH2 0xC62 DUP5 DUP3 PUSH1 0x20 DUP7 ADD PUSH2 0xBFD JUMP JUMPDEST SWAP2 POP POP SWAP3 SWAP2 POP POP JUMP JUMPDEST PUSH0 PUSH20 0xFFFFFFFFFFFFFFFFFFFFFFFFFFFFFFFFFFFFFFFF DUP3 AND SWAP1 POP SWAP2 SWAP1 POP JUMP JUMPDEST PUSH0 PUSH2 0xC94 DUP3 PUSH2 0xC6B JUMP JUMPDEST SWAP1 POP SWAP2 SWAP1 POP JUMP JUMPDEST PUSH2 0xCA4 DUP2 PUSH2 0xC8A JUMP JUMPDEST DUP2 EQ PUSH2 0xCAE JUMPI PUSH0 DUP1 REVERT JUMPDEST POP JUMP JUMPDEST PUSH0 DUP2 CALLDATALOAD SWAP1 POP PUSH2 0xCBF DUP2 PUSH2 0xC9B JUMP JUMPDEST SWAP3 SWAP2 POP POP JUMP JUMPDEST PUSH0 DUP1 PUSH1 0x40 DUP4 DUP6 SUB SLT ISZERO PUSH2 0xCDB JUMPI PUSH2 0xCDA PUSH2 0xA49 JUMP JUMPDEST JUMPDEST PUSH0 DUP4 ADD CALLDATALOAD PUSH8 0xFFFFFFFFFFFFFFFF DUP2 GT ISZERO PUSH2 0xCF8 JUMPI PUSH2 0xCF7 PUSH2 0xA4D JUMP JUMPDEST JUMPDEST PUSH2 0xD04 DUP6 DUP3 DUP7 ADD PUSH2 0xC3E JUMP JUMPDEST SWAP3 POP POP PUSH1 0x20 PUSH2 0xD15 DUP6 DUP3 DUP7 ADD PUSH2 0xCB1 JUMP JUMPDEST SWAP2 POP POP SWAP3 POP SWAP3 SWAP1 POP JUMP JUMPDEST PUSH0 DUP2 ISZERO ISZERO SWAP1 POP SWAP2 SWAP1 POP JUMP JUMPDEST PUSH2 0xD33 DUP2 PUSH2 0xD1F JUMP JUMPDEST DUP3 MSTORE POP POP JUMP JUMPDEST PUSH0 PUSH1 0x20 DUP3 ADD SWAP1 POP PUSH2 0xD4C PUSH0 DUP4 ADD DUP5 PUSH2 0xD2A JUMP JUMPDEST SWAP3 SWAP2 POP POP JUMP JUMPDEST PUSH0 DUP1 REVERT JUMPDEST PUSH0 DUP1 REVERT JUMPDEST PUSH0 DUP1 DUP4 PUSH1 0x1F DUP5 ADD SLT PUSH2 0xD6F JUMPI PUSH2 0xD6E PUSH2 0xB3F JUMP JUMPDEST JUMPDEST DUP3 CALLDATALOAD SWAP1 POP PUSH8 0xFFFFFFFFFFFFFFFF DUP2 GT ISZERO PUSH2 0xD8C JUMPI PUSH2 0xD8B PUSH2 0xD52 JUMP JUMPDEST JUMPDEST PUSH1 0x20 DUP4 ADD SWAP2 POP DUP4 PUSH1 0x1 DUP3 MUL DUP4 ADD GT ISZERO PUSH2 0xDA8 JUMPI PUSH2 0xDA7 PUSH2 0xD56 JUMP JUMPDEST JUMPDEST SWAP3 POP SWAP3 SWAP1 POP JUMP JUMPDEST PUSH0 DUP1 PUSH1 0x20 DUP4 DUP6 SUB SLT ISZERO PUSH2 0xDC5 JUMPI PUSH2 0xDC4 PUSH2 0xA49 JUMP JUMPDEST JUMPDEST PUSH0 DUP4 ADD CALLDATALOAD PUSH8 0xFFFFFFFFFFFFFFFF DUP2 GT ISZERO PUSH2 0xDE2 JUMPI PUSH2 0xDE1 PUSH2 0xA4D JUMP JUMPDEST JUMPDEST PUSH2 0xDEE DUP6 DUP3 DUP7 ADD PUSH2 0xD5A JUMP JUMPDEST SWAP3 POP SWAP3 POP POP SWAP3 POP SWAP3 SWAP1 POP JUMP JUMPDEST PUSH2 0xE03 DUP2 PUSH2 0xA51 JUMP JUMPDEST DUP3 MSTORE POP POP JUMP JUMPDEST PUSH0 PUSH1 0x20 DUP3 ADD SWAP1 POP PUSH2 0xE1C PUSH0 DUP4 ADD DUP5 PUSH2 0xDFA JUMP JUMPDEST SWAP3 SWAP2 POP POP JUMP JUMPDEST PUSH2 0xE2B DUP2 PUSH2 0xC8A JUMP JUMPDEST DUP3 MSTORE POP POP JUMP JUMPDEST PUSH0 PUSH1 0x20 DUP3 ADD SWAP1 POP PUSH2 0xE44 PUSH0 DUP4 ADD DUP5 PUSH2 0xE22 JUMP JUMPDEST SWAP3 SWAP2 POP POP JUMP JUMPDEST PUSH0 PUSH1 0x20 DUP3 DUP5 SUB SLT ISZERO PUSH2 0xE5F JUMPI PUSH2 0xE5E PUSH2 0xA49 JUMP JUMPDEST JUMPDEST PUSH0 DUP3 ADD CALLDATALOAD PUSH8 0xFFFFFFFFFFFFFFFF DUP2 GT ISZERO PUSH2 0xE7C JUMPI PUSH2 0xE7B PUSH2 0xA4D JUMP JUMPDEST JUMPDEST PUSH2 0xE88 DUP5 DUP3 DUP6 ADD PUSH2 0xC3E JUMP JUMPDEST SWAP2 POP POP SWAP3 SWAP2 POP POP JUMP JUMPDEST PUSH0 DUP1 PUSH0 PUSH1 0x60 DUP5 DUP7 SUB SLT ISZERO PUSH2 0xEA8 JUMPI PUSH2 0xEA7 PUSH2 0xA49 JUMP JUMPDEST JUMPDEST PUSH0 PUSH2 0xEB5 DUP7 DUP3 DUP8 ADD PUSH2 0xCB1 JUMP JUMPDEST SWAP4 POP POP PUSH1 0x20 DUP5 ADD CALLDATALOAD PUSH8 0xFFFFFFFFFFFFFFFF DUP2 GT ISZERO PUSH2 0xED6 JUMPI PUSH2 0xED5 PUSH2 0xA4D JUMP JUMPDEST JUMPDEST PUSH2 0xEE2 DUP7 DUP3 DUP8 ADD PUSH2 0xC3E JUMP JUMPDEST SWAP3 POP POP PUSH1 0x40 DUP5 ADD CALLDATALOAD PUSH8 0xFFFFFFFFFFFFFFFF DUP2 GT ISZERO PUSH2 0xF03 JUMPI PUSH2 0xF02 PUSH2 0xA4D JUMP JUMPDEST JUMPDEST PUSH2 0xF0F DUP7 DUP3 DUP8 ADD PUSH2 0xC3E JUMP JUMPDEST SWAP2 POP POP SWAP3 POP SWAP3 POP SWAP3 JUMP JUMPDEST PUSH0 PUSH1 0x20 DUP3 DUP5 SUB SLT ISZERO PUSH2 0xF2E JUMPI PUSH2 0xF2D PUSH2 0xA49 JUMP JUMPDEST JUMPDEST PUSH0 PUSH2 0xF3B DUP5 DUP3 DUP6 ADD PUSH2 0xCB1 JUMP JUMPDEST SWAP2 POP POP SWAP3 SWAP2 POP POP JUMP JUMPDEST PUSH0 PUSH1 0x60 DUP3 ADD SWAP1 POP DUP2 DUP2 SUB PUSH0 DUP4 ADD MSTORE PUSH2 0xF5C DUP2 DUP7 PUSH2 0xAE7 JUMP JUMPDEST SWAP1 POP DUP2 DUP2 SUB PUSH1 0x20 DUP4 ADD MSTORE PUSH2 0xF70 DUP2 DUP6 PUSH2 0xAE7 JUMP JUMPDEST SWAP1 POP PUSH2 0xF7F PUSH1 0x40 DUP4 ADD DUP5 PUSH2 0xDFA JUMP JUMPDEST SWAP5 SWAP4 POP POP POP POP JUMP JUMPDEST PUSH32 0x4E487B7100000000000000000000000000000000000000000000000000000000 PUSH0 MSTORE PUSH1 0x22 PUSH1 0x4 MSTORE PUSH1 0x24 PUSH0 REVERT JUMPDEST PUSH0 PUSH1 0x2 DUP3 DIV SWAP1 POP PUSH1 0x1 DUP3 AND DUP1 PUSH2 0xFCB JUMPI PUSH1 0x7F DUP3 AND SWAP2 POP JUMPDEST PUSH1 0x20 DUP3 LT DUP2 SUB PUSH2 0xFDE JUMPI PUSH2 0xFDD PUSH2 0xF87 JUMP JUMPDEST JUMPDEST POP SWAP2 SWAP1 POP JUMP JUMPDEST PUSH0 DUP3 SWAP1 POP SWAP3 SWAP2 POP POP JUMP JUMPDEST PUSH0 PUSH32 0xFFFFFFFFFFFFFFFFFFFFFFFFFFFFFFFFFFFFFFFF000000000000000000000000 DUP3 AND SWAP1 POP SWAP2 SWAP1 POP JUMP JUMPDEST PUSH0 DUP3 DUP3 SHL SWAP1 POP SWAP3 SWAP2 POP POP JUMP JUMPDEST PUSH0 PUSH2 0x1030 DUP4 DUP4 PUSH2 0xFE4 JUMP JUMPDEST DUP3 PUSH2 0x103B DUP2 CALLDATALOAD PUSH2 0xFEE JUMP JUMPDEST SWAP3 POP PUSH1 0x14 DUP3 LT ISZERO PUSH2 0x107B JUMPI PUSH2 0x1076 PUSH32 0xFFFFFFFFFFFFFFFFFFFFFFFFFFFFFFFFFFFFFFFF000000000000000000000000 DUP4 PUSH1 0x14 SUB PUSH1 0x8 MUL PUSH2 0x1019 JUMP JUMPDEST DUP4 AND SWAP3 POP JUMPDEST POP POP SWAP3 SWAP2 POP POP JUMP JUMPDEST PUSH32 0x4F6E6C79206F776E65722063616E2063616C6C20746869732066756E6374696F PUSH0 DUP3 ADD MSTORE PUSH32 0x6E00000000000000000000000000000000000000000000000000000000000000 PUSH1 0x20 DUP3 ADD MSTORE POP JUMP JUMPDEST PUSH0 PUSH2 0x10DD PUSH1 0x21 DUP4 PUSH2 0xAB9 JUMP JUMPDEST SWAP2 POP PUSH2 0x10E8 DUP3 PUSH2 0x1083 JUMP JUMPDEST PUSH1 0x40 DUP3 ADD SWAP1 POP SWAP2 SWAP1 POP JUMP JUMPDEST PUSH0 PUSH1 0x20 DUP3 ADD SWAP1 POP DUP2 DUP2 SUB PUSH0 DUP4 ADD MSTORE PUSH2 0x110A DUP2 PUSH2 0x10D1 JUMP JUMPDEST SWAP1 POP SWAP2 SWAP1 POP JUMP JUMPDEST PUSH0 DUP2 SWAP1 POP DUP2 PUSH0 MSTORE PUSH1 0x20 PUSH0 KECCAK256 SWAP1 POP SWAP2 SWAP1 POP JUMP JUMPDEST PUSH0 PUSH1 0x20 PUSH1 0x1F DUP4 ADD DIV SWAP1 POP SWAP2 SWAP1 POP JUMP JUMPDEST PUSH0 PUSH1 0x8 DUP4 MUL PUSH2 0x1161 PUSH32 0xFFFFFFFFFFFFFFFFFFFFFFFFFFFFFFFFFFFFFFFFFFFFFFFFFFFFFFFFFFFFFFFF DUP3 PUSH2 0x1019 JUMP JUMPDEST PUSH2 0x116B DUP7 DUP4 PUSH2 0x1019 JUMP JUMPDEST SWAP6 POP DUP1 NOT DUP5 AND SWAP4 POP DUP1 DUP7 AND DUP5 OR SWAP3 POP POP POP SWAP4 SWAP3 POP POP POP JUMP JUMPDEST PUSH0 DUP2 SWAP1 POP SWAP2 SWAP1 POP JUMP JUMPDEST PUSH0 PUSH2 0x11A6 PUSH2 0x11A1 PUSH2 0x119C DUP5 PUSH2 0xA51 JUMP JUMPDEST PUSH2 0x1183 JUMP JUMPDEST PUSH2 0xA51 JUMP JUMPDEST SWAP1 POP SWAP2 SWAP1 POP JUMP JUMPDEST PUSH0 DUP2 SWAP1 POP SWAP2 SWAP1 POP JUMP JUMPDEST PUSH2 0x11BF DUP4 PUSH2 0x118C JUMP JUMPDEST PUSH2 0x11D3 PUSH2 0x11CB DUP3 PUSH2 0x11AD JUMP JUMPDEST DUP5 DUP5 SLOAD PUSH2 0x1132 JUMP JUMPDEST DUP3 SSTORE POP POP POP POP JUMP JUMPDEST PUSH0 SWAP1 JUMP JUMPDEST PUSH2 0x11E7 PUSH2 0x11DB JUMP JUMPDEST PUSH2 0x11F2 DUP2 DUP5 DUP5 PUSH2 0x11B6 JUMP JUMPDEST POP POP POP JUMP JUMPDEST JUMPDEST DUP2 DUP2 LT ISZERO PUSH2 0x1215 JUMPI PUSH2 0x120A PUSH0 DUP3 PUSH2 0x11DF JUMP JUMPDEST PUSH1 0x1 DUP2 ADD SWAP1 POP PUSH2 0x11F8 JUMP JUMPDEST POP POP JUMP JUMPDEST PUSH1 0x1F DUP3 GT ISZERO PUSH2 0x125A JUMPI PUSH2 0x122B DUP2 PUSH2 0x1111 JUMP JUMPDEST PUSH2 0x1234 DUP5 PUSH2 0x1123 JUMP JUMPDEST DUP2 ADD PUSH1 0x20 DUP6 LT ISZERO PUSH2 0x1243 JUMPI DUP2 SWAP1 POP JUMPDEST PUSH2 0x1257 PUSH2 0x124F DUP6 PUSH2 0x1123 JUMP JUMPDEST DUP4 ADD DUP3 PUSH2 0x11F7 JUMP JUMPDEST POP POP JUMPDEST POP POP POP JUMP JUMPDEST PUSH0 DUP3 DUP3 SHR SWAP1 POP SWAP3 SWAP2 POP POP JUMP JUMPDEST PUSH0 PUSH2 0x127A PUSH0 NOT DUP5 PUSH1 0x8 MUL PUSH2 0x125F JUMP JUMPDEST NOT DUP1 DUP4 AND SWAP2 POP POP SWAP3 SWAP2 POP POP JUMP JUMPDEST PUSH0 PUSH2 0x1292 DUP4 DUP4 PUSH2 0x126B JUMP JUMPDEST SWAP2 POP DUP3 PUSH1 0x2 MUL DUP3 OR SWAP1 POP SWAP3 SWAP2 POP POP JUMP JUMPDEST PUSH2 0x12AB DUP3 PUSH2 0xAAF JUMP JUMPDEST PUSH8 0xFFFFFFFFFFFFFFFF DUP2 GT ISZERO PUSH2 0x12C4 JUMPI PUSH2 0x12C3 PUSH2 0xB47 JUMP JUMPDEST JUMPDEST PUSH2 0x12CE DUP3 SLOAD PUSH2 0xFB4 JUMP JUMPDEST PUSH2 0x12D9 DUP3 DUP3 DUP6 PUSH2 0x1219 JUMP JUMPDEST PUSH0 PUSH1 0x20 SWAP1 POP PUSH1 0x1F DUP4 GT PUSH1 0x1 DUP2 EQ PUSH2 0x130A JUMPI PUSH0 DUP5 ISZERO PUSH2 0x12F8 JUMPI DUP3 DUP8 ADD MLOAD SWAP1 POP JUMPDEST PUSH2 0x1302 DUP6 DUP3 PUSH2 0x1287 JUMP JUMPDEST DUP7 SSTORE POP PUSH2 0x1369 JUMP JUMPDEST PUSH1 0x1F NOT DUP5 AND PUSH2 0x1318 DUP7 PUSH2 0x1111 JUMP JUMPDEST PUSH0 JUMPDEST DUP3 DUP2 LT ISZERO PUSH2 0x133F JUMPI DUP5 DUP10 ADD MLOAD DUP3 SSTORE PUSH1 0x1 DUP3 ADD SWAP2 POP PUSH1 0x20 DUP6 ADD SWAP5 POP PUSH1 0x20 DUP2 ADD SWAP1 POP PUSH2 0x131A JUMP JUMPDEST DUP7 DUP4 LT ISZERO PUSH2 0x135C JUMPI DUP5 DUP10 ADD MLOAD PUSH2 0x1358 PUSH1 0x1F DUP10 AND DUP3 PUSH2 0x126B JUMP JUMPDEST DUP4 SSTORE POP JUMPDEST PUSH1 0x1 PUSH1 0x2 DUP9 MUL ADD DUP9 SSTORE POP POP POP JUMPDEST POP POP POP POP POP POP JUMP JUMPDEST PUSH32 0x4E487B7100000000000000000000000000000000000000000000000000000000 PUSH0 MSTORE PUSH1 0x32 PUSH1 0x4 MSTORE PUSH1 0x24 PUSH0 REVERT JUMPDEST PUSH0 DUP2 SLOAD SWAP1 POP PUSH2 0x13AC DUP2 PUSH2 0xFB4 JUMP JUMPDEST SWAP1 POP SWAP2 SWAP1 POP JUMP JUMPDEST PUSH0 DUP2 SWAP1 POP DUP2 PUSH0 MSTORE PUSH1 0x20 PUSH0 KECCAK256 SWAP1 POP SWAP2 SWAP1 POP JUMP JUMPDEST PUSH0 DUP2 PUSH1 0x60 SHR SWAP1 POP SWAP2 SWAP1 POP JUMP JUMPDEST PUSH0 DUP2 PUSH1 0x60 SHL SWAP1 POP SWAP2 SWAP1 POP JUMP JUMPDEST PUSH0 PUSH2 0x13E7 DUP3 PUSH2 0x13D1 JUMP JUMPDEST SWAP1 POP SWAP2 SWAP1 POP JUMP JUMPDEST PUSH0 PUSH2 0x1400 PUSH2 0x13FB DUP4 PUSH2 0x13C5 JUMP JUMPDEST PUSH2 0x13DD JUMP JUMPDEST SWAP1 POP SWAP2 SWAP1 POP JUMP JUMPDEST PUSH0 PUSH2 0x1412 DUP3 SLOAD PUSH2 0x13EE JUMP JUMPDEST SWAP1 POP SWAP2 SWAP1 POP JUMP JUMPDEST PUSH0 PUSH2 0x1423 DUP3 PUSH2 0x139E JUMP JUMPDEST DUP3 PUSH1 0x1F DUP3 GT ISZERO PUSH2 0x1439 JUMPI PUSH2 0x1436 DUP5 PUSH2 0x13B3 JUMP JUMPDEST SWAP1 POP JUMPDEST PUSH2 0x1442 DUP2 PUSH2 0x1407 JUMP JUMPDEST SWAP3 POP PUSH1 0x14 DUP3 LT ISZERO PUSH2 0x1482 JUMPI PUSH2 0x147D PUSH32 0xFFFFFFFFFFFFFFFFFFFFFFFFFFFFFFFFFFFFFFFF000000000000000000000000 DUP4 PUSH1 0x14 SUB PUSH1 0x8 MUL PUSH2 0x1019 JUMP JUMPDEST DUP4 AND SWAP3 POP JUMPDEST POP POP SWAP2 SWAP1 POP JUMP JUMPDEST PUSH32 0x566F746572206E6F742072656769737465726564000000000000000000000000 PUSH0 DUP3 ADD MSTORE POP JUMP JUMPDEST PUSH0 PUSH2 0x14BD PUSH1 0x14 DUP4 PUSH2 0xAB9 JUMP JUMPDEST SWAP2 POP PUSH2 0x14C8 DUP3 PUSH2 0x1489 JUMP JUMPDEST PUSH1 0x20 DUP3 ADD SWAP1 POP SWAP2 SWAP1 POP JUMP JUMPDEST PUSH0 PUSH1 0x20 DUP3 ADD SWAP1 POP DUP2 DUP2 SUB PUSH0 DUP4 ADD MSTORE PUSH2 0x14EA DUP2 PUSH2 0x14B1 JUMP JUMPDEST SWAP1 POP SWAP2 SWAP1 POP JUMP JUMPDEST PUSH0 DUP2 SWAP1 POP SWAP3 SWAP2 POP POP JUMP JUMPDEST PUSH0 PUSH2 0x1506 DUP4 DUP6 PUSH2 0x14F1 JUMP JUMPDEST SWAP4 POP PUSH2 0x1513 DUP4 DUP6 DUP5 PUSH2 0xBEF JUMP JUMPDEST DUP3 DUP5 ADD SWAP1 POP SWAP4 SWAP3 POP POP POP JUMP JUMPDEST PUSH0 PUSH2 0x152B DUP3 DUP5 DUP7 PUSH2 0x14FB JUMP JUMPDEST SWAP2 POP DUP2 SWAP1 POP SWAP4 SWAP3 POP POP POP JUMP JUMPDEST PUSH32 0x596F75206861766520616C726561647920766F74656420666F72207468697320 PUSH0 DUP3 ADD MSTORE PUSH32 0x63616E6469646174650000000000000000000000000000000000000000000000 PUSH1 0x20 DUP3 ADD MSTORE POP JUMP JUMPDEST PUSH0 PUSH2 0x1591 PUSH1 0x29 DUP4 PUSH2 0xAB9 JUMP JUMPDEST SWAP2 POP PUSH2 0x159C DUP3 PUSH2 0x1537 JUMP JUMPDEST PUSH1 0x40 DUP3 ADD SWAP1 POP SWAP2 SWAP1 POP JUMP JUMPDEST PUSH0 PUSH1 0x20 DUP3 ADD SWAP1 POP DUP2 DUP2 SUB PUSH0 DUP4 ADD MSTORE PUSH2 0x15BE DUP2 PUSH2 0x1585 JUMP JUMPDEST SWAP1 POP SWAP2 SWAP1 POP JUMP JUMPDEST PUSH0 DUP3 SWAP1 POP SWAP3 SWAP2 POP POP JUMP JUMPDEST PUSH2 0x15D9 DUP4 DUP4 PUSH2 0x15C5 JUMP JUMPDEST PUSH8 0xFFFFFFFFFFFFFFFF DUP2 GT ISZERO PUSH2 0x15F2 JUMPI PUSH2 0x15F1 PUSH2 0xB47 JUMP JUMPDEST JUMPDEST PUSH2 0x15FC DUP3 SLOAD PUSH2 0xFB4 JUMP JUMPDEST PUSH2 0x1607 DUP3 DUP3 DUP6 PUSH2 0x1219 JUMP JUMPDEST PUSH0 PUSH1 0x1F DUP4 GT PUSH1 0x1 DUP2 EQ PUSH2 0x1634 JUMPI PUSH0 DUP5 ISZERO PUSH2 0x1622 JUMPI DUP3 DUP8 ADD CALLDATALOAD SWAP1 POP JUMPDEST PUSH2 0x162C DUP6 DUP3 PUSH2 0x1287 JUMP JUMPDEST DUP7 SSTORE POP PUSH2 0x1693 JUMP JUMPDEST PUSH1 0x1F NOT DUP5 AND PUSH2 0x1642 DUP7 PUSH2 0x1111 JUMP JUMPDEST PUSH0 JUMPDEST DUP3 DUP2 LT ISZERO PUSH2 0x1669 JUMPI DUP5 DUP10 ADD CALLDATALOAD DUP3 SSTORE PUSH1 0x1 DUP3 ADD SWAP2 POP PUSH1 0x20 DUP6 ADD SWAP5 POP PUSH1 0x20 DUP2 ADD SWAP1 POP PUSH2 0x1644 JUMP JUMPDEST DUP7 DUP4 LT ISZERO PUSH2 0x1686 JUMPI DUP5 DUP10 ADD CALLDATALOAD PUSH2 0x1682 PUSH1 0x1F DUP10 AND DUP3 PUSH2 0x126B JUMP JUMPDEST DUP4 SSTORE POP JUMPDEST PUSH1 0x1 PUSH1 0x2 DUP9 MUL ADD DUP9 SSTORE POP POP POP JUMPDEST POP POP POP POP POP POP POP JUMP JUMPDEST PUSH32 0x4E487B7100000000000000000000000000000000000000000000000000000000 PUSH0 MSTORE PUSH1 0x11 PUSH1 0x4 MSTORE PUSH1 0x24 PUSH0 REVERT JUMPDEST PUSH0 PUSH2 0x16D3 DUP3 PUSH2 0xA51 JUMP JUMPDEST SWAP2 POP PUSH2 0x16DE DUP4 PUSH2 0xA51 JUMP JUMPDEST SWAP3 POP DUP3 DUP3 ADD SWAP1 POP DUP1 DUP3 GT ISZERO PUSH2 0x16F6 JUMPI PUSH2 0x16F5 PUSH2 0x169C JUMP JUMPDEST JUMPDEST SWAP3 SWAP2 POP POP JUMP JUMPDEST PUSH0 PUSH2 0x1707 DUP4 DUP6 PUSH2 0xAB9 JUMP JUMPDEST SWAP4 POP PUSH2 0x1714 DUP4 DUP6 DUP5 PUSH2 0xBEF JUMP JUMPDEST PUSH2 0x171D DUP4 PUSH2 0xAD7 JUMP JUMPDEST DUP5 ADD SWAP1 POP SWAP4 SWAP3 POP POP POP JUMP JUMPDEST PUSH0 PUSH1 0x40 DUP3 ADD SWAP1 POP PUSH2 0x173B PUSH0 DUP4 ADD DUP7 PUSH2 0xE22 JUMP JUMPDEST DUP2 DUP2 SUB PUSH1 0x20 DUP4 ADD MSTORE PUSH2 0x174E DUP2 DUP5 DUP7 PUSH2 0x16FC JUMP JUMPDEST SWAP1 POP SWAP5 SWAP4 POP POP POP POP JUMP INVALID LOG2 PUSH5 0x6970667358 0x22 SLT KECCAK256 EXTCODESIZE 0xD7 0x4D LOG2 0xBB CALLER PUSH18 0x5E004634AA09F95446FA78EA8C9B95338767 COINBASE BLOBHASH 0xB2 SWAP11 STATICCALL 0xEC XOR PUSH5 0x736F6C6343 STOP ADDMOD BYTE STOP CALLER "
				},
				"gasEstimates": {
					"creation": {
						"codeDepositCost": "1206000",
						"executionCost": "25517",
						"totalCost": "1231517"
					},
					"external": {
						"addCandidate(address,string,string)": "infinite",
						"addToCandidates(string)": "infinite",
						"candidates(uint256)": "infinite",
						"getVotes(string)": "3191",
						"houMap(address)": "infinite",
						"owner()": "2572",
						"resetVotes()": "infinite",
						"touMap(string,address)": "infinite",
						"vote(string)": "infinite"
					}
				},
				"methodIdentifiers": {
					"addCandidate(address,string,string)": "e22a6231",
					"addToCandidates(string)": "9b60f2ff",
					"candidates(uint256)": "3477ee2e",
					"getVotes(string)": "805265e5",
					"houMap(address)": "e7ff2844",
					"owner()": "8da5cb5b",
					"resetVotes()": "b9830ff1",
					"touMap(string,address)": "5ab5237b",
					"vote(string)": "fc36e15b"
				}
			},
			"storageLayout": {
				"storage": [
					{
						"astId": 10,
						"contract": ".deps/remix-tests/vetong.sol:voting",
						"label": "owner",
						"offset": 0,
						"slot": "0",
						"type": "t_address"
					},
					{
						"astId": 44,
						"contract": ".deps/remix-tests/vetong.sol:voting",
						"label": "houMap",
						"offset": 0,
						"slot": "1",
						"type": "t_mapping(t_address,t_struct(houUsers)8_storage)"
					},
					{
						"astId": 50,
						"contract": ".deps/remix-tests/vetong.sol:voting",
						"label": "touMap",
						"offset": 0,
						"slot": "2",
						"type": "t_mapping(t_string_memory_ptr,t_mapping(t_address,t_bool))"
					},
					{
						"astId": 53,
						"contract": ".deps/remix-tests/vetong.sol:voting",
						"label": "candidates",
						"offset": 0,
						"slot": "3",
						"type": "t_array(t_string_storage)dyn_storage"
					}
				],
				"types": {
					"t_address": {
						"encoding": "inplace",
						"label": "address",
						"numberOfBytes": "20"
					},
					"t_array(t_string_storage)dyn_storage": {
						"base": "t_string_storage",
						"encoding": "dynamic_array",
						"label": "string[]",
						"numberOfBytes": "32"
					},
					"t_bool": {
						"encoding": "inplace",
						"label": "bool",
						"numberOfBytes": "1"
					},
					"t_mapping(t_address,t_bool)": {
						"encoding": "mapping",
						"key": "t_address",
						"label": "mapping(address => bool)",
						"numberOfBytes": "32",
						"value": "t_bool"
					},
					"t_mapping(t_address,t_struct(houUsers)8_storage)": {
						"encoding": "mapping",
						"key": "t_address",
						"label": "mapping(address => struct voting.houUsers)",
						"numberOfBytes": "32",
						"value": "t_struct(houUsers)8_storage"
					},
					"t_mapping(t_string_memory_ptr,t_mapping(t_address,t_bool))": {
						"encoding": "mapping",
						"key": "t_string_memory_ptr",
						"label": "mapping(string => mapping(address => bool))",
						"numberOfBytes": "32",
						"value": "t_mapping(t_address,t_bool)"
					},
					"t_string_memory_ptr": {
						"encoding": "bytes",
						"label": "string",
						"numberOfBytes": "32"
					},
					"t_string_storage": {
						"encoding": "bytes",
						"label": "string",
						"numberOfBytes": "32"
					},
					"t_struct(houUsers)8_storage": {
						"encoding": "inplace",
						"label": "struct voting.houUsers",
						"members": [
							{
								"astId": 3,
								"contract": ".deps/remix-tests/vetong.sol:voting",
								"label": "username",
								"offset": 0,
								"slot": "0",
								"type": "t_string_storage"
							},
							{
								"astId": 5,
								"contract": ".deps/remix-tests/vetong.sol:voting",
								"label": "gender",
								"offset": 0,
								"slot": "1",
								"type": "t_string_storage"
							},
							{
								"astId": 7,
								"contract": ".deps/remix-tests/vetong.sol:voting",
								"label": "piao",
								"offset": 0,
								"slot": "2",
								"type": "t_uint256"
							}
						],
						"numberOfBytes": "96"
					},
					"t_uint256": {
						"encoding": "inplace",
						"label": "uint256",
						"numberOfBytes": "32"
					}
				}
			},
			"userdoc": {
				"kind": "user",
				"methods": {},
				"version": 1
			}
		}
	}
}