{
	"data": {
		"bytecode": {
			"linkReferences": {},
			"object": "6080604052348015600e575f5ffd5b506106858061001c5f395ff3fe608060405234801561000f575f5ffd5b5060043610610029575f3560e01c8063de9487091461002d575b5f5ffd5b6100476004803603810190610042919061042e565b61005d565b604051610054919061055b565b60405180910390f35b60605f835190505f845190505f818361007691906105a8565b67ffffffffffffffff81111561008f5761008e6102bf565b5b6040519080825280602002602001820160405280156100bd5781602001602082028036833780820191505090505b5090505f5f90505f5f90505f5f90505b85831080156100db57508482105b156101cb578782815181106100f3576100f26105db565b5b602002602001015189848151811061010e5761010d6105db565b5b602002602001015110156101735788838061012890610608565b94508151811061013b5761013a6105db565b5b602002602001015184828061014f90610608565b935081518110610162576101616105db565b5b6020026020010181815250506101c6565b87828061017f90610608565b935081518110610192576101916105db565b5b60200260200101518482806101a690610608565b9350815181106101b9576101b86105db565b5b6020026020010181815250505b6100cd565b5b8583101561022b578883806101e090610608565b9450815181106101f3576101f26105db565b5b602002602001015184828061020790610608565b93508151811061021a576102196105db565b5b6020026020010181815250506101cc565b5b8482101561028b5787828061024090610608565b935081518110610253576102526105db565b5b602002602001015184828061026790610608565b93508151811061027a576102796105db565b5b60200260200101818152505061022c565b83965050505050505092915050565b5f604051905090565b5f5ffd5b5f5ffd5b5f5ffd5b5f601f19601f8301169050919050565b7f4e487b71000000000000000000000000000000000000000000000000000000005f52604160045260245ffd5b6102f5826102af565b810181811067ffffffffffffffff82111715610314576103136102bf565b5b80604052505050565b5f61032661029a565b905061033282826102ec565b919050565b5f67ffffffffffffffff821115610351576103506102bf565b5b602082029050602081019050919050565b5f5ffd5b5f819050919050565b61037881610366565b8114610382575f5ffd5b50565b5f813590506103938161036f565b92915050565b5f6103ab6103a684610337565b61031d565b905080838252602082019050602084028301858111156103ce576103cd610362565b5b835b818110156103f757806103e38882610385565b8452602084019350506020810190506103d0565b5050509392505050565b5f82601f830112610415576104146102ab565b5b8135610425848260208601610399565b91505092915050565b5f5f60408385031215610444576104436102a3565b5b5f83013567ffffffffffffffff811115610461576104606102a7565b5b61046d85828601610401565b925050602083013567ffffffffffffffff81111561048e5761048d6102a7565b5b61049a85828601610401565b9150509250929050565b5f81519050919050565b5f82825260208201905092915050565b5f819050602082019050919050565b6104d681610366565b82525050565b5f6104e783836104cd565b60208301905092915050565b5f602082019050919050565b5f610509826104a4565b61051381856104ae565b935061051e836104be565b805f5b8381101561054e57815161053588826104dc565b9750610540836104f3565b925050600181019050610521565b5085935050505092915050565b5f6020820190508181035f83015261057381846104ff565b905092915050565b7f4e487b71000000000000000000000000000000000000000000000000000000005f52601160045260245ffd5b5f6105b282610366565b91506105bd83610366565b92508282019050808211156105d5576105d461057b565b5b92915050565b7f4e487b71000000000000000000000000000000000000000000000000000000005f52603260045260245ffd5b5f61061282610366565b91507fffffffffffffffffffffffffffffffffffffffffffffffffffffffffffffffff82036106445761064361057b565b5b60018201905091905056fea2646970667358221220e95fc58b541f86537f7a7f24aff418ecfeb41dd2c5889ceb87b3ca717135008064736f6c634300081e0033",
			"opcodes": "PUSH1 0x80 PUSH1 0x40 MSTORE CALLVALUE DUP1 ISZERO PUSH1 0xE JUMPI PUSH0 PUSH0 REVERT JUMPDEST POP PUSH2 0x685 DUP1 PUSH2 0x1C PUSH0 CODECOPY PUSH0 RETURN INVALID PUSH1 0x80 PUSH1 0x40 MSTORE CALLVALUE DUP1 ISZERO PUSH2 0xF JUMPI PUSH0 PUSH0 REVERT JUMPDEST POP PUSH1 0x4 CALLDATASIZE LT PUSH2 0x29 JUMPI PUSH0 CALLDATALOAD PUSH1 0xE0 SHR DUP1 PUSH4 0xDE948709 EQ PUSH2 0x2D JUMPI JUMPDEST PUSH0 PUSH0 REVERT JUMPDEST PUSH2 0x47 PUSH1 0x4 DUP1 CALLDATASIZE SUB DUP2 ADD SWAP1 PUSH2 0x42 SWAP2 SWAP1 PUSH2 0x42E JUMP JUMPDEST PUSH2 0x5D JUMP JUMPDEST PUSH1 0x40 MLOAD PUSH2 0x54 SWAP2 SWAP1 PUSH2 0x55B JUMP JUMPDEST PUSH1 0x40 MLOAD DUP1 SWAP2 SUB SWAP1 RETURN JUMPDEST PUSH1 0x60 PUSH0 DUP4 MLOAD SWAP1 POP PUSH0 DUP5 MLOAD SWAP1 POP PUSH0 DUP2 DUP4 PUSH2 0x76 SWAP2 SWAP1 PUSH2 0x5A8 JUMP JUMPDEST PUSH8 0xFFFFFFFFFFFFFFFF DUP2 GT ISZERO PUSH2 0x8F JUMPI PUSH2 0x8E PUSH2 0x2BF JUMP JUMPDEST JUMPDEST PUSH1 0x40 MLOAD SWAP1 DUP1 DUP3 MSTORE DUP1 PUSH1 0x20 MUL PUSH1 0x20 ADD DUP3 ADD PUSH1 0x40 MSTORE DUP1 ISZERO PUSH2 0xBD JUMPI DUP2 PUSH1 0x20 ADD PUSH1 0x20 DUP3 MUL DUP1 CALLDATASIZE DUP4 CALLDATACOPY DUP1 DUP3 ADD SWAP2 POP POP SWAP1 POP JUMPDEST POP SWAP1 POP PUSH0 PUSH0 SWAP1 POP PUSH0 PUSH0 SWAP1 POP PUSH0 PUSH0 SWAP1 POP JUMPDEST DUP6 DUP4 LT DUP1 ISZERO PUSH2 0xDB JUMPI POP DUP5 DUP3 LT JUMPDEST ISZERO PUSH2 0x1CB JUMPI DUP8 DUP3 DUP2 MLOAD DUP2 LT PUSH2 0xF3 JUMPI PUSH2 0xF2 PUSH2 0x5DB JUMP JUMPDEST JUMPDEST PUSH1 0x20 MUL PUSH1 0x20 ADD ADD MLOAD DUP10 DUP5 DUP2 MLOAD DUP2 LT PUSH2 0x10E JUMPI PUSH2 0x10D PUSH2 0x5DB JUMP JUMPDEST JUMPDEST PUSH1 0x20 MUL PUSH1 0x20 ADD ADD MLOAD LT ISZERO PUSH2 0x173 JUMPI DUP9 DUP4 DUP1 PUSH2 0x128 SWAP1 PUSH2 0x608 JUMP JUMPDEST SWAP5 POP DUP2 MLOAD DUP2 LT PUSH2 0x13B JUMPI PUSH2 0x13A PUSH2 0x5DB JUMP JUMPDEST JUMPDEST PUSH1 0x20 MUL PUSH1 0x20 ADD ADD MLOAD DUP5 DUP3 DUP1 PUSH2 0x14F SWAP1 PUSH2 0x608 JUMP JUMPDEST SWAP4 POP DUP2 MLOAD DUP2 LT PUSH2 0x162 JUMPI PUSH2 0x161 PUSH2 0x5DB JUMP JUMPDEST JUMPDEST PUSH1 0x20 MUL PUSH1 0x20 ADD ADD DUP2 DUP2 MSTORE POP POP PUSH2 0x1C6 JUMP JUMPDEST DUP8 DUP3 DUP1 PUSH2 0x17F SWAP1 PUSH2 0x608 JUMP JUMPDEST SWAP4 POP DUP2 MLOAD DUP2 LT PUSH2 0x192 JUMPI PUSH2 0x191 PUSH2 0x5DB JUMP JUMPDEST JUMPDEST PUSH1 0x20 MUL PUSH1 0x20 ADD ADD MLOAD DUP5 DUP3 DUP1 PUSH2 0x1A6 SWAP1 PUSH2 0x608 JUMP JUMPDEST SWAP4 POP DUP2 MLOAD DUP2 LT PUSH2 0x1B9 JUMPI PUSH2 0x1B8 PUSH2 0x5DB JUMP JUMPDEST JUMPDEST PUSH1 0x20 MUL PUSH1 0x20 ADD ADD DUP2 DUP2 MSTORE POP POP JUMPDEST PUSH2 0xCD JUMP JUMPDEST JUMPDEST DUP6 DUP4 LT ISZERO PUSH2 0x22B JUMPI DUP9 DUP4 DUP1 PUSH2 0x1E0 SWAP1 PUSH2 0x608 JUMP JUMPDEST SWAP5 POP DUP2 MLOAD DUP2 LT PUSH2 0x1F3 JUMPI PUSH2 0x1F2 PUSH2 0x5DB JUMP JUMPDEST JUMPDEST PUSH1 0x20 MUL PUSH1 0x20 ADD ADD MLOAD DUP5 DUP3 DUP1 PUSH2 0x207 SWAP1 PUSH2 0x608 JUMP JUMPDEST SWAP4 POP DUP2 MLOAD DUP2 LT PUSH2 0x21A JUMPI PUSH2 0x219 PUSH2 0x5DB JUMP JUMPDEST JUMPDEST PUSH1 0x20 MUL PUSH1 0x20 ADD ADD DUP2 DUP2 MSTORE POP POP PUSH2 0x1CC JUMP JUMPDEST JUMPDEST DUP5 DUP3 LT ISZERO PUSH2 0x28B JUMPI DUP8 DUP3 DUP1 PUSH2 0x240 SWAP1 PUSH2 0x608 JUMP JUMPDEST SWAP4 POP DUP2 MLOAD DUP2 LT PUSH2 0x253 JUMPI PUSH2 0x252 PUSH2 0x5DB JUMP JUMPDEST JUMPDEST PUSH1 0x20 MUL PUSH1 0x20 ADD ADD MLOAD DUP5 DUP3 DUP1 PUSH2 0x267 SWAP1 PUSH2 0x608 JUMP JUMPDEST SWAP4 POP DUP2 MLOAD DUP2 LT PUSH2 0x27A JUMPI PUSH2 0x279 PUSH2 0x5DB JUMP JUMPDEST JUMPDEST PUSH1 0x20 MUL PUSH1 0x20 ADD ADD DUP2 DUP2 MSTORE POP POP PUSH2 0x22C JUMP JUMPDEST DUP4 SWAP7 POP POP POP POP POP POP POP SWAP3 SWAP2 POP POP JUMP JUMPDEST PUSH0 PUSH1 0x40 MLOAD SWAP1 POP SWAP1 JUMP JUMPDEST PUSH0 PUSH0 REVERT JUMPDEST PUSH0 PUSH0 REVERT JUMPDEST PUSH0 PUSH0 REVERT JUMPDEST PUSH0 PUSH1 0x1F NOT PUSH1 0x1F DUP4 ADD AND SWAP1 POP SWAP2 SWAP1 POP JUMP JUMPDEST PUSH32 0x4E487B7100000000000000000000000000000000000000000000000000000000 PUSH0 MSTORE PUSH1 0x41 PUSH1 0x4 MSTORE PUSH1 0x24 PUSH0 REVERT JUMPDEST PUSH2 0x2F5 DUP3 PUSH2 0x2AF JUMP JUMPDEST DUP2 ADD DUP2 DUP2 LT PUSH8 0xFFFFFFFFFFFFFFFF DUP3 GT OR ISZERO PUSH2 0x314 JUMPI PUSH2 0x313 PUSH2 0x2BF JUMP JUMPDEST JUMPDEST DUP1 PUSH1 0x40 MSTORE POP POP POP JUMP JUMPDEST PUSH0 PUSH2 0x326 PUSH2 0x29A JUMP JUMPDEST SWAP1 POP PUSH2 0x332 DUP3 DUP3 PUSH2 0x2EC JUMP JUMPDEST SWAP2 SWAP1 POP JUMP JUMPDEST PUSH0 PUSH8 0xFFFFFFFFFFFFFFFF DUP3 GT ISZERO PUSH2 0x351 JUMPI PUSH2 0x350 PUSH2 0x2BF JUMP JUMPDEST JUMPDEST PUSH1 0x20 DUP3 MUL SWAP1 POP PUSH1 0x20 DUP2 ADD SWAP1 POP SWAP2 SWAP1 POP JUMP JUMPDEST PUSH0 PUSH0 REVERT JUMPDEST PUSH0 DUP2 SWAP1 POP SWAP2 SWAP1 POP JUMP JUMPDEST PUSH2 0x378 DUP2 PUSH2 0x366 JUMP JUMPDEST DUP2 EQ PUSH2 0x382 JUMPI PUSH0 PUSH0 REVERT JUMPDEST POP JUMP JUMPDEST PUSH0 DUP2 CALLDATALOAD SWAP1 POP PUSH2 0x393 DUP2 PUSH2 0x36F JUMP JUMPDEST SWAP3 SWAP2 POP POP JUMP JUMPDEST PUSH0 PUSH2 0x3AB PUSH2 0x3A6 DUP5 PUSH2 0x337 JUMP JUMPDEST PUSH2 0x31D JUMP JUMPDEST SWAP1 POP DUP1 DUP4 DUP3 MSTORE PUSH1 0x20 DUP3 ADD SWAP1 POP PUSH1 0x20 DUP5 MUL DUP4 ADD DUP6 DUP2 GT ISZERO PUSH2 0x3CE JUMPI PUSH2 0x3CD PUSH2 0x362 JUMP JUMPDEST JUMPDEST DUP4 JUMPDEST DUP2 DUP2 LT ISZERO PUSH2 0x3F7 JUMPI DUP1 PUSH2 0x3E3 DUP9 DUP3 PUSH2 0x385 JUMP JUMPDEST DUP5 MSTORE PUSH1 0x20 DUP5 ADD SWAP4 POP POP PUSH1 0x20 DUP2 ADD SWAP1 POP PUSH2 0x3D0 JUMP JUMPDEST POP POP POP SWAP4 SWAP3 POP POP POP JUMP JUMPDEST PUSH0 DUP3 PUSH1 0x1F DUP4 ADD SLT PUSH2 0x415 JUMPI PUSH2 0x414 PUSH2 0x2AB JUMP JUMPDEST JUMPDEST DUP2 CALLDATALOAD PUSH2 0x425 DUP5 DUP3 PUSH1 0x20 DUP7 ADD PUSH2 0x399 JUMP JUMPDEST SWAP2 POP POP SWAP3 SWAP2 POP POP JUMP JUMPDEST PUSH0 PUSH0 PUSH1 0x40 DUP4 DUP6 SUB SLT ISZERO PUSH2 0x444 JUMPI PUSH2 0x443 PUSH2 0x2A3 JUMP JUMPDEST JUMPDEST PUSH0 DUP4 ADD CALLDATALOAD PUSH8 0xFFFFFFFFFFFFFFFF DUP2 GT ISZERO PUSH2 0x461 JUMPI PUSH2 0x460 PUSH2 0x2A7 JUMP JUMPDEST JUMPDEST PUSH2 0x46D DUP6 DUP3 DUP7 ADD PUSH2 0x401 JUMP JUMPDEST SWAP3 POP POP PUSH1 0x20 DUP4 ADD CALLDATALOAD PUSH8 0xFFFFFFFFFFFFFFFF DUP2 GT ISZERO PUSH2 0x48E JUMPI PUSH2 0x48D PUSH2 0x2A7 JUMP JUMPDEST JUMPDEST PUSH2 0x49A DUP6 DUP3 DUP7 ADD PUSH2 0x401 JUMP JUMPDEST SWAP2 POP POP SWAP3 POP SWAP3 SWAP1 POP JUMP JUMPDEST PUSH0 DUP2 MLOAD SWAP1 POP SWAP2 SWAP1 POP JUMP JUMPDEST PUSH0 DUP3 DUP3 MSTORE PUSH1 0x20 DUP3 ADD SWAP1 POP SWAP3 SWAP2 POP POP JUMP JUMPDEST PUSH0 DUP2 SWAP1 POP PUSH1 0x20 DUP3 ADD SWAP1 POP SWAP2 SWAP1 POP JUMP JUMPDEST PUSH2 0x4D6 DUP2 PUSH2 0x366 JUMP JUMPDEST DUP3 MSTORE POP POP JUMP JUMPDEST PUSH0 PUSH2 0x4E7 DUP4 DUP4 PUSH2 0x4CD JUMP JUMPDEST PUSH1 0x20 DUP4 ADD SWAP1 POP SWAP3 SWAP2 POP POP JUMP JUMPDEST PUSH0 PUSH1 0x20 DUP3 ADD SWAP1 POP SWAP2 SWAP1 POP JUMP JUMPDEST PUSH0 PUSH2 0x509 DUP3 PUSH2 0x4A4 JUMP JUMPDEST PUSH2 0x513 DUP2 DUP6 PUSH2 0x4AE JUMP JUMPDEST SWAP4 POP PUSH2 0x51E DUP4 PUSH2 0x4BE JUMP JUMPDEST DUP1 PUSH0 JUMPDEST DUP4 DUP2 LT ISZERO PUSH2 0x54E JUMPI DUP2 MLOAD PUSH2 0x535 DUP9 DUP3 PUSH2 0x4DC JUMP JUMPDEST SWAP8 POP PUSH2 0x540 DUP4 PUSH2 0x4F3 JUMP JUMPDEST SWAP3 POP POP PUSH1 0x1 DUP2 ADD SWAP1 POP PUSH2 0x521 JUMP JUMPDEST POP DUP6 SWAP4 POP POP POP POP SWAP3 SWAP2 POP POP JUMP JUMPDEST PUSH0 PUSH1 0x20 DUP3 ADD SWAP1 POP DUP2 DUP2 SUB PUSH0 DUP4 ADD MSTORE PUSH2 0x573 DUP2 DUP5 PUSH2 0x4FF JUMP JUMPDEST SWAP1 POP SWAP3 SWAP2 POP POP JUMP JUMPDEST PUSH32 0x4E487B7100000000000000000000000000000000000000000000000000000000 PUSH0 MSTORE PUSH1 0x11 PUSH1 0x4 MSTORE PUSH1 0x24 PUSH0 REVERT JUMPDEST PUSH0 PUSH2 0x5B2 DUP3 PUSH2 0x366 JUMP JUMPDEST SWAP2 POP PUSH2 0x5BD DUP4 PUSH2 0x366 JUMP JUMPDEST SWAP3 POP DUP3 DUP3 ADD SWAP1 POP DUP1 DUP3 GT ISZERO PUSH2 0x5D5 JUMPI PUSH2 0x5D4 PUSH2 0x57B JUMP JUMPDEST JUMPDEST SWAP3 SWAP2 POP POP JUMP JUMPDEST PUSH32 0x4E487B7100000000000000000000000000000000000000000000000000000000 PUSH0 MSTORE PUSH1 0x32 PUSH1 0x4 MSTORE PUSH1 0x24 PUSH0 REVERT JUMPDEST PUSH0 PUSH2 0x612 DUP3 PUSH2 0x366 JUMP JUMPDEST SWAP2 POP PUSH32 0xFFFFFFFFFFFFFFFFFFFFFFFFFFFFFFFFFFFFFFFFFFFFFFFFFFFFFFFFFFFFFFFF DUP3 SUB PUSH2 0x644 JUMPI PUSH2 0x643 PUSH2 0x57B JUMP JUMPDEST JUMPDEST PUSH1 0x1 DUP3 ADD SWAP1 POP SWAP2 SWAP1 POP JUMP INVALID LOG2 PUSH5 0x6970667358 0x22 SLT KECCAK256 0xE9 PUSH0 0xC5 DUP12 SLOAD 0x1F DUP7 MSTORE8 PUSH32 0x7A7F24AFF418ECFEB41DD2C5889CEB87B3CA717135008064736F6C634300081E STOP CALLER "
		},
		"gasEstimates": {
			"creation": {
				"codeDepositCost": "333800",
				"executionCost": "372",
				"totalCost": "334172"
			},
			"external": {
				"mergeArrays(uint256[],uint256[])": "infinite"
			}
		},
		"methodIdentifiers": {
			"mergeArrays(uint256[],uint256[])": "de948709"
		}
	},
	"abi": [
		{
			"inputs": [
				{
					"internalType": "uint256[]",
					"name": "arry1",
					"type": "uint256[]"
				},
				{
					"internalType": "uint256[]",
					"name": "arry2",
					"type": "uint256[]"
				}
			],
			"name": "mergeArrays",
			"outputs": [
				{
					"internalType": "uint256[]",
					"name": "array",
					"type": "uint256[]"
				}
			],
			"stateMutability": "pure",
			"type": "function"
		}
	]
}