{
	"data": {
		"bytecode": {
			"linkReferences": {},
			"object": "6080604052348015600e575f5ffd5b5061049e8061001c5f395ff3fe608060405234801561000f575f5ffd5b5060043610610029575f3560e01c8063159cea151461002d575b5f5ffd5b610047600480360381019061004291906102a1565b61005e565b604051610055929190610324565b60405180910390f35b5f5f5f5f90505f855190505b808210156100fd575f600283836100819190610378565b61008b91906103d8565b9050858782815181106100a1576100a0610408565b5b6020026020010151036100bd5760018194509450505050610106565b858782815181106100d1576100d0610408565b5b602002602001015111156100f3576001816100ec9190610435565b91506100f7565b8092505b5061006a565b5f5f9350935050505b9250929050565b5f604051905090565b5f5ffd5b5f5ffd5b5f5ffd5b5f601f19601f8301169050919050565b7f4e487b71000000000000000000000000000000000000000000000000000000005f52604160045260245ffd5b61016882610122565b810181811067ffffffffffffffff8211171561018757610186610132565b5b80604052505050565b5f61019961010d565b90506101a5828261015f565b919050565b5f67ffffffffffffffff8211156101c4576101c3610132565b5b602082029050602081019050919050565b5f5ffd5b5f819050919050565b6101eb816101d9565b81146101f5575f5ffd5b50565b5f81359050610206816101e2565b92915050565b5f61021e610219846101aa565b610190565b90508083825260208201905060208402830185811115610241576102406101d5565b5b835b8181101561026a578061025688826101f8565b845260208401935050602081019050610243565b5050509392505050565b5f82601f8301126102885761028761011e565b5b813561029884826020860161020c565b91505092915050565b5f5f604083850312156102b7576102b6610116565b5b5f83013567ffffffffffffffff8111156102d4576102d361011a565b5b6102e085828601610274565b92505060206102f1858286016101f8565b9150509250929050565b5f8115159050919050565b61030f816102fb565b82525050565b61031e816101d9565b82525050565b5f6040820190506103375f830185610306565b6103446020830184610315565b9392505050565b7f4e487b71000000000000000000000000000000000000000000000000000000005f52601160045260245ffd5b5f610382826101d9565b915061038d836101d9565b92508282019050808211156103a5576103a461034b565b5b92915050565b7f4e487b71000000000000000000000000000000000000000000000000000000005f52601260045260245ffd5b5f6103e2826101d9565b91506103ed836101d9565b9250826103fd576103fc6103ab565b5b828204905092915050565b7f4e487b71000000000000000000000000000000000000000000000000000000005f52603260045260245ffd5b5f61043f826101d9565b915061044a836101d9565b92508282039050818111156104625761046161034b565b5b9291505056fea26469706673582212206e788258118f6d1b98608349ce441fde1d9d8f8a7b07c2eb330485aa8021300364736f6c634300081e0033",
			"opcodes": "PUSH1 0x80 PUSH1 0x40 MSTORE CALLVALUE DUP1 ISZERO PUSH1 0xE JUMPI PUSH0 PUSH0 REVERT JUMPDEST POP PUSH2 0x49E DUP1 PUSH2 0x1C PUSH0 CODECOPY PUSH0 RETURN INVALID PUSH1 0x80 PUSH1 0x40 MSTORE CALLVALUE DUP1 ISZERO PUSH2 0xF JUMPI PUSH0 PUSH0 REVERT JUMPDEST POP PUSH1 0x4 CALLDATASIZE LT PUSH2 0x29 JUMPI PUSH0 CALLDATALOAD PUSH1 0xE0 SHR DUP1 PUSH4 0x159CEA15 EQ PUSH2 0x2D JUMPI JUMPDEST PUSH0 PUSH0 REVERT JUMPDEST PUSH2 0x47 PUSH1 0x4 DUP1 CALLDATASIZE SUB DUP2 ADD SWAP1 PUSH2 0x42 SWAP2 SWAP1 PUSH2 0x2A1 JUMP JUMPDEST PUSH2 0x5E JUMP JUMPDEST PUSH1 0x40 MLOAD PUSH2 0x55 SWAP3 SWAP2 SWAP1 PUSH2 0x324 JUMP JUMPDEST PUSH1 0x40 MLOAD DUP1 SWAP2 SUB SWAP1 RETURN JUMPDEST PUSH0 PUSH0 PUSH0 PUSH0 SWAP1 POP PUSH0 DUP6 MLOAD SWAP1 POP JUMPDEST DUP1 DUP3 LT ISZERO PUSH2 0xFD JUMPI PUSH0 PUSH1 0x2 DUP4 DUP4 PUSH2 0x81 SWAP2 SWAP1 PUSH2 0x378 JUMP JUMPDEST PUSH2 0x8B SWAP2 SWAP1 PUSH2 0x3D8 JUMP JUMPDEST SWAP1 POP DUP6 DUP8 DUP3 DUP2 MLOAD DUP2 LT PUSH2 0xA1 JUMPI PUSH2 0xA0 PUSH2 0x408 JUMP JUMPDEST JUMPDEST PUSH1 0x20 MUL PUSH1 0x20 ADD ADD MLOAD SUB PUSH2 0xBD JUMPI PUSH1 0x1 DUP2 SWAP5 POP SWAP5 POP POP POP POP PUSH2 0x106 JUMP JUMPDEST DUP6 DUP8 DUP3 DUP2 MLOAD DUP2 LT PUSH2 0xD1 JUMPI PUSH2 0xD0 PUSH2 0x408 JUMP JUMPDEST JUMPDEST PUSH1 0x20 MUL PUSH1 0x20 ADD ADD MLOAD GT ISZERO PUSH2 0xF3 JUMPI PUSH1 0x1 DUP2 PUSH2 0xEC SWAP2 SWAP1 PUSH2 0x435 JUMP JUMPDEST SWAP2 POP PUSH2 0xF7 JUMP JUMPDEST DUP1 SWAP3 POP JUMPDEST POP PUSH2 0x6A JUMP JUMPDEST PUSH0 PUSH0 SWAP4 POP SWAP4 POP POP POP JUMPDEST SWAP3 POP SWAP3 SWAP1 POP JUMP JUMPDEST PUSH0 PUSH1 0x40 MLOAD SWAP1 POP SWAP1 JUMP JUMPDEST PUSH0 PUSH0 REVERT JUMPDEST PUSH0 PUSH0 REVERT JUMPDEST PUSH0 PUSH0 REVERT JUMPDEST PUSH0 PUSH1 0x1F NOT PUSH1 0x1F DUP4 ADD AND SWAP1 POP SWAP2 SWAP1 POP JUMP JUMPDEST PUSH32 0x4E487B7100000000000000000000000000000000000000000000000000000000 PUSH0 MSTORE PUSH1 0x41 PUSH1 0x4 MSTORE PUSH1 0x24 PUSH0 REVERT JUMPDEST PUSH2 0x168 DUP3 PUSH2 0x122 JUMP JUMPDEST DUP2 ADD DUP2 DUP2 LT PUSH8 0xFFFFFFFFFFFFFFFF DUP3 GT OR ISZERO PUSH2 0x187 JUMPI PUSH2 0x186 PUSH2 0x132 JUMP JUMPDEST JUMPDEST DUP1 PUSH1 0x40 MSTORE POP POP POP JUMP JUMPDEST PUSH0 PUSH2 0x199 PUSH2 0x10D JUMP JUMPDEST SWAP1 POP PUSH2 0x1A5 DUP3 DUP3 PUSH2 0x15F JUMP JUMPDEST SWAP2 SWAP1 POP JUMP JUMPDEST PUSH0 PUSH8 0xFFFFFFFFFFFFFFFF DUP3 GT ISZERO PUSH2 0x1C4 JUMPI PUSH2 0x1C3 PUSH2 0x132 JUMP JUMPDEST JUMPDEST PUSH1 0x20 DUP3 MUL SWAP1 POP PUSH1 0x20 DUP2 ADD SWAP1 POP SWAP2 SWAP1 POP JUMP JUMPDEST PUSH0 PUSH0 REVERT JUMPDEST PUSH0 DUP2 SWAP1 POP SWAP2 SWAP1 POP JUMP JUMPDEST PUSH2 0x1EB DUP2 PUSH2 0x1D9 JUMP JUMPDEST DUP2 EQ PUSH2 0x1F5 JUMPI PUSH0 PUSH0 REVERT JUMPDEST POP JUMP JUMPDEST PUSH0 DUP2 CALLDATALOAD SWAP1 POP PUSH2 0x206 DUP2 PUSH2 0x1E2 JUMP JUMPDEST SWAP3 SWAP2 POP POP JUMP JUMPDEST PUSH0 PUSH2 0x21E PUSH2 0x219 DUP5 PUSH2 0x1AA JUMP JUMPDEST PUSH2 0x190 JUMP JUMPDEST SWAP1 POP DUP1 DUP4 DUP3 MSTORE PUSH1 0x20 DUP3 ADD SWAP1 POP PUSH1 0x20 DUP5 MUL DUP4 ADD DUP6 DUP2 GT ISZERO PUSH2 0x241 JUMPI PUSH2 0x240 PUSH2 0x1D5 JUMP JUMPDEST JUMPDEST DUP4 JUMPDEST DUP2 DUP2 LT ISZERO PUSH2 0x26A JUMPI DUP1 PUSH2 0x256 DUP9 DUP3 PUSH2 0x1F8 JUMP JUMPDEST DUP5 MSTORE PUSH1 0x20 DUP5 ADD SWAP4 POP POP PUSH1 0x20 DUP2 ADD SWAP1 POP PUSH2 0x243 JUMP JUMPDEST POP POP POP SWAP4 SWAP3 POP POP POP JUMP JUMPDEST PUSH0 DUP3 PUSH1 0x1F DUP4 ADD SLT PUSH2 0x288 JUMPI PUSH2 0x287 PUSH2 0x11E JUMP JUMPDEST JUMPDEST DUP2 CALLDATALOAD PUSH2 0x298 DUP5 DUP3 PUSH1 0x20 DUP7 ADD PUSH2 0x20C JUMP JUMPDEST SWAP2 POP POP SWAP3 SWAP2 POP POP JUMP JUMPDEST PUSH0 PUSH0 PUSH1 0x40 DUP4 DUP6 SUB SLT ISZERO PUSH2 0x2B7 JUMPI PUSH2 0x2B6 PUSH2 0x116 JUMP JUMPDEST JUMPDEST PUSH0 DUP4 ADD CALLDATALOAD PUSH8 0xFFFFFFFFFFFFFFFF DUP2 GT ISZERO PUSH2 0x2D4 JUMPI PUSH2 0x2D3 PUSH2 0x11A JUMP JUMPDEST JUMPDEST PUSH2 0x2E0 DUP6 DUP3 DUP7 ADD PUSH2 0x274 JUMP JUMPDEST SWAP3 POP POP PUSH1 0x20 PUSH2 0x2F1 DUP6 DUP3 DUP7 ADD PUSH2 0x1F8 JUMP JUMPDEST SWAP2 POP POP SWAP3 POP SWAP3 SWAP1 POP JUMP JUMPDEST PUSH0 DUP2 ISZERO ISZERO SWAP1 POP SWAP2 SWAP1 POP JUMP JUMPDEST PUSH2 0x30F DUP2 PUSH2 0x2FB JUMP JUMPDEST DUP3 MSTORE POP POP JUMP JUMPDEST PUSH2 0x31E DUP2 PUSH2 0x1D9 JUMP JUMPDEST DUP3 MSTORE POP POP JUMP JUMPDEST PUSH0 PUSH1 0x40 DUP3 ADD SWAP1 POP PUSH2 0x337 PUSH0 DUP4 ADD DUP6 PUSH2 0x306 JUMP JUMPDEST PUSH2 0x344 PUSH1 0x20 DUP4 ADD DUP5 PUSH2 0x315 JUMP JUMPDEST SWAP4 SWAP3 POP POP POP JUMP JUMPDEST PUSH32 0x4E487B7100000000000000000000000000000000000000000000000000000000 PUSH0 MSTORE PUSH1 0x11 PUSH1 0x4 MSTORE PUSH1 0x24 PUSH0 REVERT JUMPDEST PUSH0 PUSH2 0x382 DUP3 PUSH2 0x1D9 JUMP JUMPDEST SWAP2 POP PUSH2 0x38D DUP4 PUSH2 0x1D9 JUMP JUMPDEST SWAP3 POP DUP3 DUP3 ADD SWAP1 POP DUP1 DUP3 GT ISZERO PUSH2 0x3A5 JUMPI PUSH2 0x3A4 PUSH2 0x34B JUMP JUMPDEST JUMPDEST SWAP3 SWAP2 POP POP JUMP JUMPDEST PUSH32 0x4E487B7100000000000000000000000000000000000000000000000000000000 PUSH0 MSTORE PUSH1 0x12 PUSH1 0x4 MSTORE PUSH1 0x24 PUSH0 REVERT JUMPDEST PUSH0 PUSH2 0x3E2 DUP3 PUSH2 0x1D9 JUMP JUMPDEST SWAP2 POP PUSH2 0x3ED DUP4 PUSH2 0x1D9 JUMP JUMPDEST SWAP3 POP DUP3 PUSH2 0x3FD JUMPI PUSH2 0x3FC PUSH2 0x3AB JUMP JUMPDEST JUMPDEST DUP3 DUP3 DIV SWAP1 POP SWAP3 SWAP2 POP POP JUMP JUMPDEST PUSH32 0x4E487B7100000000000000000000000000000000000000000000000000000000 PUSH0 MSTORE PUSH1 0x32 PUSH1 0x4 MSTORE PUSH1 0x24 PUSH0 REVERT JUMPDEST PUSH0 PUSH2 0x43F DUP3 PUSH2 0x1D9 JUMP JUMPDEST SWAP2 POP PUSH2 0x44A DUP4 PUSH2 0x1D9 JUMP JUMPDEST SWAP3 POP DUP3 DUP3 SUB SWAP1 POP DUP2 DUP2 GT ISZERO PUSH2 0x462 JUMPI PUSH2 0x461 PUSH2 0x34B JUMP JUMPDEST JUMPDEST SWAP3 SWAP2 POP POP JUMP INVALID LOG2 PUSH5 0x6970667358 0x22 SLT KECCAK256 PUSH15 0x788258118F6D1B98608349CE441FDE SAR SWAP14 DUP16 DUP11 PUSH28 0x7C2EB330485AA8021300364736F6C634300081E0033000000000000 "
		},
		"gasEstimates": {
			"creation": {
				"codeDepositCost": "236400",
				"executionCost": "273",
				"totalCost": "236673"
			},
			"external": {
				"midSeach(uint256[],uint256)": "infinite"
			}
		},
		"methodIdentifiers": {
			"midSeach(uint256[],uint256)": "159cea15"
		}
	},
	"abi": [
		{
			"inputs": [
				{
					"internalType": "uint256[]",
					"name": "arry1",
					"type": "uint256[]"
				},
				{
					"internalType": "uint256",
					"name": "tagert",
					"type": "uint256"
				}
			],
			"name": "midSeach",
			"outputs": [
				{
					"internalType": "bool",
					"name": "flag",
					"type": "bool"
				},
				{
					"internalType": "uint256",
					"name": "a",
					"type": "uint256"
				}
			],
			"stateMutability": "pure",
			"type": "function"
		}
	]
}